:020000040800F2
:1000000000200020C51E0008F91D0008011E000880
:1000100000000000000000000000000000000000E0
:10002000000000000000000000000000091E0008A1
:100030000000000000000000131E00081D1E000844
:10004000151F000800000000151F0008151F0008FC
:100050002B1E0008151F0008151F0008151F00089B
:1000600000000000151F0008151F0008151F0008DC
:10007000151F0008151F0008151F000800000000CC
:10008000151F00080000000000000000351E0008D9
:1000900000000000151F0008151F0008151F0008AC
:1000A000151F0008151F0008151F0008151F000860
:0800B000151F0008000000000C
:1000B80010B5064C2378002B07D1054B002B02D036
:1000C800044800E000BF0123237010BDF8000020A1
:1000D80000000000B84C0008044B10B5002B03D0FA
:1000E8000349044800E000BF10BDC04600000000FE
:1000F800FC000020B84C000803B4714649084000D1
:100108004900095E49008E4403BC70470022430839
:100118008B4274D303098B425FD3030A8B4244D3C7
:10012800030B8B4228D3030C8B420DD3FF22090209
:1001380012BA030C8B4202D31212090265D0030BC8
:100148008B4219D300E0090AC30B8B4201D3CB03BE
:10015800C01A5241830B8B4201D38B03C01A524100
:10016800430B8B4201D34B03C01A5241030B8B4202
:1001780001D30B03C01A5241C30A8B4201D3CB02ED
:10018800C01A5241830A8B4201D38B02C01A5241D2
:10019800430A8B4201D34B02C01A5241030A8B42D5
:1001A80001D30B02C01A5241CDD2C3098B4201D3ED
:1001B800CB01C01A524183098B4201D38B01C01A6B
:1001C800524143098B4201D34B01C01A52410309E2
:1001D8008B4201D30B01C01A5241C3088B4201D391
:1001E800CB00C01A524183088B4201D38B00C01A3E
:1001F800524143088B4201D34B00C01A5241411A65
:1002080000D20146524110467047FFE701B5002071
:1002180000F0F0F802BDC0460029F7D076E7704735
:1002280003460B437FD4002243088B4274D303094F
:100238008B425FD3030A8B4244D3030B8B4228D3F0
:10024800030C8B420DD3FF22090212BA030C8B4216
:1002580002D31212090265D0030B8B4219D300E0B6
:10026800090AC30B8B4201D3CB03C01A5241830B3B
:100278008B4201D38B03C01A5241430B8B4201D3EB
:100288004B03C01A5241030B8B4201D30B03C01A14
:100298005241C30A8B4201D3CB02C01A5241830A8E
:1002A8008B4201D38B02C01A5241430A8B4201D3BD
:1002B8004B02C01A5241030A8B4201D30B02C01AE7
:1002C8005241CDD2C3098B4201D3CB01C01A52414E
:1002D80083098B4201D38B01C01A524143098B42D7
:1002E80001D34B01C01A524103098B4201D30B01C0
:1002F800C01A5241C3088B4201D3CB00C01A5241E5
:1003080083088B4201D38B00C01A524143088B42A9
:1003180001D34B00C01A5241411A00D20146524142
:10032800104670475DE0CA0F00D04942031000D361
:100338004042534000229C4603098B422DD3030AB6
:100348008B4212D3FC22890112BA030A8B420CD3C6
:10035800890192118B4208D3890192118B4204D3EF
:1003680089013AD0921100E08909C3098B4201D36F
:10037800CB01C01A524183098B4201D38B01C01AA9
:10038800524143098B4201D34B01C01A5241030920
:100398008B4201D30B01C01A5241C3088B4201D3CF
:1003A800CB00C01A524183088B4201D38B00C01A7C
:1003B8005241D9D243088B4201D34B00C01A524153
:1003C800411A00D20146634652415B10104601D3E0
:1003D8004042002B00D54942704763465B1000D36A
:1003E800404201B5002000F005F802BD0029F8D010
:1003F80016E770477047C04680B584B000AF786094
:10040800104BFB607B681B68FA685340FB607B6895
:100418005B68FA685340FB607B689B68FA685340E6
:10042800FB607B681B7B1B02FA685340FB607B68A0
:100438005B7B1B04FA685340FB60FB681800BD46F1
:1004480004B080BD7856341280B582B000AF01F098
:10045800DBFD03007B60124B1B88592B06D9114B1F
:100468007A681A60104B01221A7012E00E4B1B7842
:10047800002B0ED00A4B1B884F2B0AD8094B1B6840
:100488007A68D21AFA235B009A4202D3064B0022FA
:100498001A70054B1B781800BD4602B080BDC046D7
:1004A8003E020020400200204402002080B586B0B1
:1004B80000AF01F0A9FD0300BB6000237B61BB68AE
:1004C8003B610023FB6021E0254BFA689200D3587A
:1004D800002B18D0224BFA689200D358BA68D21A67
:1004E800FA239B009A420ED87B6901337B611C4B2F
:1004F800FA689200D3583A699A4204D9184BFA68B4
:100508009200D3583B61FB680133FB60FB68132BF7
:10051800DADD7B69012B1BDD3A69BB689A4217D289
:10052800BA683B69D31A7B607B68002B0CD07B6967
:10053800013B0C4A534379681800FFF7E7FD0300B5
:100548009AB2094B1A8007E0074B00221A8003E091
:10055800054B00221A80C046C046BD4606B080BD85
:10056800EC010020102700003E020020B0B500AFCB
:100578000C4B1B781C0001F047FD01000A4BA20040
:10058800D150084B1B78013314211800FFF72EFFB8
:100598000B00DAB2034B1A70FFF788FFC046BD465E
:1005A800B0BDC0463C020020EC01002080B582B0FE
:1005B80000AF174B1B7B5A425341DBB21A00144B56
:1005C8001A73134B1B7B180001F030FB114B0122EF
:1005D8001A7000237B6012E0012001F0B9F801F0E5
:1005E800D1F8322001F01AFD002001F0B1F801F035
:1005F800C9F8322001F012FD7B6801337B607B680B
:10060800012BE9DDC046C046BD4602B080BDC046EC
:10061800C0010020DC01002080B584B002AF786002
:10062800002001F095F87A68012301934023009394
:1006380080230021002001F02DFA034B7A681A600C
:10064800C046BD4602B080BDE801002080B584B038
:1006580002AF78607A6800230193402300938023D7
:100668000021002001F016FAC046BD4602B080BD48
:1006780080B584B002AF78607A6801230193402383
:10068800009380230021002001F004FAC046BD46F3
:1006980002B080BD80B500AFA023DB054021180063
:1006A80002F0C8F803005A425341DBB21A00084B63
:1006B8001A60084B0121180002F0BCF803005A42E6
:1006C8005341DBB21A00044B1A60C046BD4680BDD8
:1006D800B401002000040050B8010020B0B58CB06F
:1006E80002AF294B1A6829493B1D180003F042FE46
:1006F8000121022001F0B4F9254B381D0122009296
:1007080019685A689B6801F07FF9224B1B88012BF6
:1007180036D9204B1B8826257C190A211800FFF79B
:10072800F5FC030023801B4B1B882422BC180A21DC
:100738001800FFF771FD0B0023807B191B88092B1C
:1007480007D97B191A8814493B1D180003F012FEBB
:1007580009E02623FB181A882423FB181B880F4955
:10076800381D03F007FE01215F2001F079F9084BDD
:10077800381D0122009219685A689B6801F044F9F3
:10078800C046BD460AB0B0BDC0010020E04C00081C
:10079800C09200083E020020E44C0008EC4C00081F
:1007A80080B582B002AF3421502001F059F9064BD0
:1007B80006480122009219685A689B6801F024F9DA
:1007C800C046BD4680BDC046C0920008F44C000833
:1007D80080B500AF084B5B7B002B01D0FFF77EFF95
:1007E800064B1B78002B01D0FFF7DAFF00F0CAFF99
:1007F800C046BD4680BDC046C0010020E4010020BF
:1008080080B500AF064B1B68002B06D0044B1B6855
:100818001800FFF701FFFFF7DBFFC046BD4680BDAC
:10082800E801002080B58AB000AF264B1800FFF71A
:10083800E3FD0200234B1A6101F040FD08217B18FB
:1008480002221A607B181F229A607B180122DA6044
:100858003A1D7B181100180001F0E4FD194BFB61EB
:10086800194B7B620323BB6100233B620FE03B6AA9
:10087800DB00FA69D3181A685B68796A012001F00D
:10088800CFFC7B6A08337B623B6A01333B623A6A7E
:10089800BB699A42EBDB01F035FD01F0B5FB0200C4
:1008A8000A4B1A600A4B00221A700A4B01221A706E
:1008B80001F0AAFB0200084B1A60C046BD460AB008
:1008C80080BDC046C001002000F80008D801002003
:1008D800DC010020E4010020E001002090B58BB08D
:1008E80000AF3B1D3B62224BFB610323BB6100232E
:1008F8007B620EE07B6ADB00FA69D3187A6AD20061
:10090800396A89181A685B680A604B607B6A013328
:100918007B627A6ABB699A42ECDB3B1D1C693B1D12
:100928001800FFF769FD03009C420AD13B1D1B69B3
:10093800013306D00F4B3A1D13CA13C303CA03C3AE
:1009480012E00C4B00221A600A4B00225A60094B35
:1009580000229A60074B00221A73064B00225A7332
:10096800044B00221A61C046C046BD460BB090BD7C
:1009780000F80008C001002080B582B000AF01F087
:1009880043FB0300632B02D8642001F047FB164B9E
:1009980000221A60144B00225A60134B00229A60FE
:1009A800114B00221A73104B01225A7300237B60EB
:1009B80007E00E4B7A6892000021D1507B68013322
:1009C8007B607B68132BF4DD094B00221A70094BFE
:1009D80000221A80084B00221A60FFF723FFC04646
:1009E800BD4602B080BDC046C0010020EC01002019
:1009F8003C0200203E0200204002002080B500AFEB
:100A0800084B1B78002B0AD001F0FEFA0200064BB7
:100A18001B68D31A054A934201D9FFF703FFC04662
:100A2800BD4680BDDC010020D80100202F750000E4
:100A380080B500AF044B1B78002B01D0FFF7F2FE06
:100A4800C046BD4680BDC046DC01002080B500AF71
:100A5800094B1B78002B0CD001F0D6FA0200074B8B
:100A68001B68D21AFA23DB009A4202D3024B0022F7
:100A78001A70C046BD4680BDE4010020E001002098
:100A880080B500AF1B4B1B68002B2AD11A4B1B6883
:100A9800002B26D1194B1B68002B05D101F0B4FAA5
:100AA8000200164B1A6020E001F0AEFA0200134B68
:100AB8001B68D31A124A934217D9124B5B7B5A42CE
:100AC8005341DBB21A000F4B5A730C4B00221A60C9
:100AD8000D4B01221A70FFF793FEFFF7A9FF0123C0
:100AE80005E0064B00221A6000E0C046002318000B
:100AF800BD4680BDB4010020B8010020D40100200B
:100B0800C3090000C0010020DC01002080B582B0CC
:100B180000AF0200FB1D1A70FB1D1B78002B05D0CF
:100B28000C4B5B685A1C0B4B5A6004E0094B9B68E2
:100B38005A1C084B9A60074B1B685A1C054B1A60D5
:100B4800054B01221A70FFF711FDC046BD4602B0E1
:100B580080BDC046C0010020DC01002080B582B005
:100B680000AF786039607B681B68002B13DD01F0EB
:100B78004BFA02007B681B68D31AC82B07D9144BA1
:100B88001800FFF763FD7B6800221A6003E0104B32
:100B98001800FFF76DFD3B681B68002B13DD01F0A3
:100BA80033FA02003B681B68D31AC82B07D9094BD4
:100BB8001800FFF74BFD3B6800221A6003E0054B65
:100BC8001800FFF755FDC046BD4602B080BDC046BF
:100BD800787100087875000890B587B000AFF860A4
:100BE800B9607A603B60BB6A00221A601723FC1860
:100BF800FFF72AFC030023705E4B1B68002B47D1CC
:100C08005D4B1B68002B43D1FB681A78BB681B78C7
:100C18001343DBB2002B07D0FB681A78BB681B783C
:100C28005340DBB2012B33D11723FB181B78002B61
:100C380001D0524B00E0524B1800FFF7EDFCBB68A7
:100C48001B78002B0CD14F4B1800FFF711FD01F05A
:100C5800DBF903001A003B681A600020FFF756FF13
:100C6800FB681B78002B0CD1474B1800FFF700FDE1
:100C780001F0CAF903001A007B681A600120FFF727
:100C880045FFBB6801221A70FB6801221A706DE0EB
:100C9800384B1B68012B32D1374B1B68002B2ED1E8
:100CA800BB681B78002B03D0FB681B78012B1ED177
:100CB8001723FB181B78002B01D0344B00E0344B72
:100CC8001800FFF7A9FCBB681B78002B0CD12D4B33
:100CD8001800FFF7CDFC01F097F903001A003B68F4
:100CE8001A600020FFF712FFBB6801221A70FB6828
:100CF8001B78002B3AD0FB6800221A7036E01D4B97
:100D08001B68002B32D11C4B1B68012B2ED1FB68B2
:100D18001B78002B03D0BB681B78012B1ED117232F
:100D2800FB181B78002B01D01A4B00E01A4B180057
:100D3800FFF772FCFB681B78002B0CD1124B1800D4
:100D4800FFF796FC01F060F903001A007B681A604F
:100D58000120FFF7DBFEFB6801221A70BB681B78D5
:100D6800002B03D0BB6800221A70FFE7C046BD46BF
:100D780007B090BDB4010020B801002078790008C0
:100D8800786500087875000878710008788500088B
:100D9800786D00087881000878690008B0B586B0D9
:100DA80000AFF860B9607A60224B1B68012B3CD118
:100DB800214B1B68012B38D117257C19FFF744FB01
:100DC800030023707B191B78002B01D01B4B00E01C
:100DD8001B4B1800FFF720FCFB681B68002B05D194
:100DE80001F012F903001A00FB681A6001F00CF90F
:100DF8000200FB681B68D21AFA23DB009A4206D36A
:100E0800FB6800221A60FFF713FE01230EE0BB689F
:100E18001B78002B02D0BB6800221A707B681B78F5
:100E2800002B02D07B6800221A7000231800BD46F0
:100E380006B0B0BDB4010020B8010020787D0008DC
:100E4800784D000880B584B002AF0A211B2000F05D
:100E580007FE514B51480122009219685A689B6855
:100E680000F0D2FD1A211B2000F0FAFD4A4B4C4835
:100E78000122009219685A689B6800F0C5FD2A2172
:100E88001B2000F0EDFD444B4648012200921968F2
:100E98005A689B6800F0B8FD00F074FC04E00A2072
:100EA80001F0BCF8FFF7F6FB3F4B1B68012B03D1A1
:100EB8003E4B1B68002BF2D001F0A6F803003B6004
:100EC800FB1D00221A7010E0FFF7E4FB364B1B688D
:100ED800012B07D1354B1B68002B03D1FB1D0122C9
:100EE8001A700AE0642001F099F801F08DF8020008
:100EF8003B68D31A2E4A9342E6D9FB1D1B78002B78
:100F08002AD0FFF739FD002000F090FE002000F005
:100F18001FFC1421232000F0A3FD1F4B25480122AC
:100F2800009219685A689B6800F06EFD00F02AFC70
:100F3800FA239B00180001F071F804E00A2001F080
:100F48006DF8FFF7A7FB184B1B68012B1BD1174B3C
:100F58001B68002BF2D016E0002000F0F9FB1921E5
:100F6800282000F07DFD0C4B1348012200921968DF
:100F78005A689B6800F048FD00F004FCFA239B00C7
:100F8800180001F04BF8002000F0E2FB00F0FAFB3B
:100F9800C046BD4602B080BDC0920008FC4C0008A7
:100FA800084D0008144D0008B4010020B8010020C5
:100FB8000F270000204D00082C4D000880B582B096
:100FC80002AF0A21052000F04BFD354B35480122C0
:100FD800009219685A689B6800F016FD15210D20CB
:100FE80000F03EFD2E4B30480122009219685A68E5
:100FF8009B6800F009FD28210D2000F031FD284BE9
:101008002A480122009219685A689B6800F0FCFC83
:1010180000F0B8FB04E00A2001F000F8FFF73AFB03
:10102800234B1B68002B03D1224B1B68002BF2D0EB
:101038001F4B1B68002B03D11E4B1B68012BEAD0EA
:101048001B4B1B68012B00D003E01A4B1B68002BBD
:10105800E1D0FFF71FFB164B1B68012B03D1154B83
:101068001B68002B13D0124B1B68002B03D1114BAC
:101078001B68012B0BD00E4B1B68002B03D10D4BAB
:101088001B68002B03D0642000F0C8FFE1E70020B4
:1010980000F05EFB00F076FBC046BD4680BDC04652
:1010A800C0920008384D0008504D0008644D0008F3
:1010B800B4010020B801002080B500AFFFF7EAFABC
:1010C800184B1B68002B06D1174B1B68002B02D14D
:1010D800FFF774FF23E0134B1B68002B15D1124B4D
:1010E8001B68012B11D1FFF761FAFFF7A1FC04E09F
:1010F8000A2000F093FFFFF7CDFA0A4B1B68002B7C
:1011080003D1094B1B68012BF2D0064B1B68012B3E
:1011180005D1054B1B68002B01D1FFF793FEC04694
:10112800BD4680BDB4010020B801002080B582B062
:1011380000AF00F069FF03007B60074B1B687A680B
:10114800D31A632B04D9FFF7B1F9034B7A681A60F5
:10115800C046BD4602B080BD4802002080B582B0BE
:1011680000AF78607A68044B9A4201D1FFF792FA8F
:10117800C046BD4602B080BD6801002090B589B068
:1011880002AF00F0C5FE00F0B3F800F08BF900F0F4
:101198001FF900F061F900F006F980231902A02375
:1011A800DB050022180001F062FB0A2000F036FF80
:1011B80080231902A023DB050122180001F057FB48
:1011C80000F05AFAFFF78AFB424B1B7B180000F02D
:1011D8002DFD00F019FF02003F4B1A60FFF76CFF6E
:1011E8001723FB1800221A7000233B610023FB60C1
:1011F8000023BB60FB1D00221A70BB1D00221A7061
:10120800364B180002F0AEFEFFF7F8FBFFF71EFCA6
:10121800FFF78CFF1723FB181B78002B02D0012B3C
:1012280028D056E02E4B1B68002B03D02D4B1B6893
:10123800002B04D11723FB1801221A7049E02A4B0E
:101248001B781A00294B9200D3581800FFF7E4F9CD
:10125800FFF7BEFA244B1B78013305221100180052
:10126800FFF7C4F80B00DAB21F4B1A70642000F0C5
:10127800D5FE2EE0FFF704FCBA1DF91D1023FB185C
:101288001800FFF78BFD031E04D01723FB1800225C
:101298001A7013E0124B1B68012B03D1114B1B680A
:1012A800012B0BD00823FC180C23FA18B91DF81DC4
:1012B8001023FB1800932300FFF78EFC0823FA186D
:1012C8000C23FB1811001800FFF748FCFFF780FA01
:1012D800C04699E7C0010020D8010020680100201D
:1012E800B4010020B8010020BC010020000000204B
:1012F80090B593B000AF14243B19180034231A009A
:10130800002103F059F83B1D180010231A00002192
:1013180003F052F880239B00180001F0CBFF3B1923
:1013280002221A603B1980225200DA6021007B18E1
:1013380000221A617B1840225A617B180222DA6166
:101348007B1802221A627B1800225A627B18082234
:101358009A627B1880229202DA627B1880229205B8
:101368001A637B18180001F0E5FF031E01D000F096
:1013780043F93B1D07221A603B1D02225A603B1DA0
:10138800802212019A603B1D0022DA603B1D012178
:10139800180002F0DFFA031E01D000F02DF9C04654
:1013A800BD4613B090BD80B500AF002200210420D7
:1013B80000F004FF042000F016FF00220021132093
:1013C80000F0FCFE132000F00EFFC046BD4680BDB5
:1013D80080B500AF1D4B1E4A1A601C4B1D4A5A604F
:1013E8001A4B00229A60194B0122DA60174B00222F
:1013F8001A61164B00225A61144B00229A61134B52
:101408000022DA61114B802292021A620F4B1800F7
:1014180001F04AFA031E01D000F0EEF880235A01C9
:101428000A4B1100180001F0ADFE031E01D000F0B8
:10143800E3F8064B0021180001F0F0FE031E01D06E
:1014480000F0DAF8C046BD4680BDC0461401002051
:10145800005400403311600080B500AF0E4B0F4AB6
:101468001A600D4B1F225A600B4B00229A600A4BE0
:101478000B4ADA60084B00221A61074B00229A6176
:10148800054B180002F016FD031E01D000F0B4F859
:10149800C046BD4680BDC04668010020002000400F
:1014A8000F27000090B589B000AF0C243B19180035
:1014B80014231A00002102F07FFF4A4B5A6B494B54
:1014C80002210A435A63474B5B6B02221340BB60FD
:1014D800BB68444B5A6B434B04210A435A63414B44
:1014E8005B6B042213407B607B683E4B5A6B3D4B21
:1014F80001210A435A633B4B5B6B012213403B605B
:101508003B6880231902A023DB050022180001F0A4
:10151800AEF93B19344A1A603B1903225A603B1949
:1015280000229A603B19314A1900100001F01EF898
:101538003B192F4A1A603B1903225A603B190022B3
:101548009A603A19A023DB051100180001F00EF883
:101558003B1940221A603B1900225A603B190022AD
:101568009A603A19A023DB051100180000F0FEFF6D
:101578003B1901221A603B1900225A603B190022CC
:101588009A603B191B4A1900100000F0EFFF210078
:101598007B18FF2252001A600C003B1903225A6084
:1015A8003B1900229A603B19124A1900100000F0FA
:1015B800DDFF21007B18802212021A607B180122AD
:1015C8005A607B1800229A607B180022DA607A1829
:1015D800A023DB051100180000F0C8FFC046BD4677
:1015E80009B090BD0010024040C000000008005043
:1015F800BF1D00000004005080B500AF72B6C046A1
:10160800C046FDE780B500AFC046BD4680BD0000BE
:1016180080B586B004AF0200FB1D1A70084801238C
:101628005B42029301230193FB1D009301230022D7
:10163800782101F0DFF9C046BD4602B080BDC04642
:101648001401002080B586B004AF786039603B682B
:101658009BB2084801225242029201937B68009390
:1016680001234022782101F0C5F9C046BD4602B0E9
:1016780080BDC0461401002080B500AFFFF7C2FF4F
:10168800642000F0CBFC002000F0AAFA2020FFF72D
:10169800BFFF0020FFF7BCFFB020FFF7B9FFC02055
:1016A800FFF7B6FF0020FFF7B3FF1020FFF7B0FFEA
:1016B8004020FFF7ADFFFF2000F079FAA020FFF7E8
:1016C800A7FFA620FFF7A4FFA820FFF7A1FF3F2050
:1016D800FFF79EFFA420FFF79BFFD320FFF798FF9B
:1016E8000020FFF795FFD520FFF792FFF020FFF7C6
:1016F8008FFFD920FFF78CFF2220FFF789FFDA2020
:10170800FFF786FF1220FFF783FFDB20FFF780FF3C
:101718002020FFF77DFF8D20FFF77AFF1420FFF7C9
:1017280077FF012000F05CFA002000F011F800F0CB
:1017380029F8064B00221A80044B00225A80034BDA
:1017480001221A71C046BD4680BDC0465C06002015
:1017580080B582B000AF0200FB1D1A70FB1D1B781C
:10176800002B01D1002300E0FF238222D20004488D
:10177800190002F021FEC046BD4602B080BDC04639
:101788004C02002080B582B000AFFB1D00221A7009
:101798001EE0FB1D1B78503BDBB21800FFF738FF3B
:1017A8000020FFF735FF1020FFF732FFFB1D1A78E6
:1017B80013009B019B185B001A000A4BD318822167
:1017C8001800FFF73FFFFB1D1A78FB1D01321A7046
:1017D800FB1D1B78072BDCD9C046C046BD4602B0AE
:1017E80080BDC0464C02002090B583B000AF040015
:1017F80008001100FB1D221C1A70BB1D021C1A7068
:101808007B1D0A1C1A70FB1D1B78812B53D8BB1D2E
:101818001B783F2B4FD87B1D1B78012B24D1FB1D38
:101828001A78BB1D1B78DB08D8B201000B009B019E
:101838005B185B00D318224AD35C5AB2BB1D1B78D5
:1018480007210B40012199400B005BB213435CB2A6
:10185800FB1D1A7801000B009B015B185B00D31875
:10186800E1B2174AD15427E0FB1D1A78BB1D1B783B
:10187800DB08D8B201000B009B015B185B00D31892
:101888000F4AD35C5BB2BA1D127807210A400121C6
:1018980091400A0052B2D24352B213405CB2FB1DCF
:1018A8001A7801000B009B015B185B00D318E1B2AA
:1018B800034AD15400E0C046BD4603B090BDC046BF
:1018C8004C02002090B589B000AF040038000160D8
:1018D800426083600F217B18221C1A700A00BB1813
:1018E8001B781F2B03D9BB181B787E2B01D900232B
:1018F80084E0444B1B881A003B001B78D318822BCA
:1019080007DC404B5B881A003B005B78D318402B00
:1019180001DD002372E00023FB6151E03B005A68BF
:101928000F23FB181B78203B390049784B431900DB
:10193800FB69CB185B00D3181B887B610023BB6154
:1019480035E07A69BB699A4080231B02134014D0A2
:101958002C4B1B88DAB2BB69DBB2D318D8B2294B3F
:101968005B88DAB2FB69DBB2D318D9B23023FB1833
:101978001B781A00FFF738FF16E0224B1B88DAB2F3
:10198800BB69DBB2D318D8B21E4B5B88DAB2FB69ED
:10199800DBB2D318D9B23023FB181B785A42534113
:1019A800DBB21A00FFF720FFBB690133BB613B00C4
:1019B8001B781A00BB699342C3D3FB690133FB61EF
:1019C8003B005B781A00FB699342A7D30D4B1A883A
:1019D8003B009B68002B08D03B0099680F23FB183D
:1019E8001B78203BCB181B7801E03B001B789B1829
:1019F8009AB2044B1A800F23FB181B781800BD46B7
:101A080009B090BD5C06002080B586B002AFF860D2
:101A1800380001604260836017E0FB6818783B007B
:101A28001822BA181278009219685A689B68FFF74A
:101A380049FF03001A00FB681B789A4202D0FB6832
:101A48001B7808E0FB680133FB60FB681B78002B00
:101A5800E3D1FB681B781800BD4604B080BD0000C8
:101A680080B582B000AF0200FB1D1A70BB1D0A1CB6
:101A78001A70FB1D1B789AB2054B1A80BB1D1B7888
:101A88009AB2034B5A80C046BD4602B080BDC046DC
:101A98005C06002090B585B000AF040008003A60ED
:101AA8001900FB1D221C1A70BB1D021C1A707B1D1D
:101AB8000A1C1A707B1D1B780733002B00DA0733CA
:101AC800DB101A000A23FB181A800F23FB180022C8
:101AD8001A70FB1D1B78812B65D8BB1D1B783F2B0B
:101AE80061D80E23FB1800221A7053E00D23FB184F
:101AF80000221A703CE00D23FB181B7807221340C4
:101B080006D00F23FA18FB181B78DB18137014E0A3
:101B18000E23FB181B780A22BA180021525E534381
:101B28000D22BA181278D208D2B29B181A003B6854
:101B38009A180F23FB1812781A700F23FB181B78BA
:101B48005BB2002B0EDAFA1D0D23FB1812781B78F6
:101B5800D318D8B22423FB181A78BB1D1B78190098
:101B6800FFF742FE0D217B181A787B1801321A7094
:101B78000D23FA187B1D12781B789A42BBD30E21CD
:101B88007B181A787B1801321A70BB1D1A78BB1D96
:101B980001321A700E23FA182023FB1812781B78CA
:101BA8009A42A3D300E0C046BD4605B090BD80B5BB
:101BB80084B000AF0200FB1D1A700F217B18812230
:101BC8001A707B181B781800FFF722FDFB1D1B7885
:101BD8001800FFF71DFDC046BD4604B080BD0000DB
:101BE80080B584B000AF0200FB1D1A70FB1D1B7886
:101BF800002B07D00F23FB18AF221A700A4B0122C3
:101C08005A7106E00F23FB18AE221A70064B002209
:101C18005A710F23FB181B781800FFF7F9FCC04610
:101C2800BD4604B080BDC0465C06002080B582B0C9
:101C380000AF0200FB1D1A70FB1D1B78002B03D0A0
:101C4800A720FFF7E5FC02E0A620FFF7E1FCC0466D
:101C5800BD4602B080BD000080B582B000AF0F4B1A
:101C68001A6C0E4B01210A431A640C4B1B6C01229F
:101C780013407B607B68094BDA6B084B8021490570
:101C88000A43DA63054BDA6B80235B0513403B603C
:101C98003B68C046BD4602B080BDC0460010024049
:101CA80090B591B000AF78602C23FB18180014236E
:101CB8001A00002102F080FB14243B191800182395
:101CC8001A00002102F078FB7B681B68354A9342B2
:101CD80063D13B1920221A603B1900229A603B19F4
:101CE800180001F0C1FF031E01D0FFF785FC2E4B41
:101CF8005A6B2D4B02210A435A632B4B5B6B022212
:101D080013403B613B69284B5A6B274B01210A431F
:101D18005A63254B5B6B01221340FB60FB682C2147
:101D28007B18802292001A600C003B1912225A601C
:101D38003B1901229A603B190322DA603B190622FB
:101D48001A613B19194A1900100000F00FFC210014
:101D58007B18802292001A607B1812225A607B1826
:101D680001229A607B180322DA607B1806221A6126
:101D78007A18A023DB051100180000F0F7FB0A4BC6
:101D8800DA6B094B802189030A43DA63064BDA6B65
:101D980080239B031340BB60BB68C046BD4611B09F
:101DA80090BDC0460054004000100240000400509E
:101DB80080B584B000AF78607B681B680A4A93429C
:101DC8000DD10A4B1A6C094B802109020A431A6487
:101DD800064B1A6C80231B021340FB60FB68C0464D
:101DE800BD4604B080BDC04600200040001002403F
:101DF80080B500AFC046FDE780B500AFC046FDE73F
:101E080080B500AFC046BD4680BD80B500AFC046B6
:101E1800BD4680BD80B500AF00F0E4F8C046BD46C1
:101E280080BD80B500AFC046BD4680BD80B500AF5F
:101E3800034B180002F0E4F8C046BD4680BDC0461A
:101E48006801002080B586B000AF7860144A154B51
:101E5800D31A7B617B693B61134B1B68002B02D152
:101E6800114B124A1A60104B1A687B68D3183A69EA
:101E78009A4207D202F0A8FA03000C221A60012342
:101E88005B4209E0084B1B68FB60074B1A687B68DC
:101E9800D218054B1A60FB681800BD4606B080BD15
:101EA800002000200004000064060020D007002065
:101EB80080B500AFC046BD4680BD00000D488546D0
:101EC800FFF7F6FF0C480D490D4A002302E0D458ED
:101ED800C4500433C4188C42F9D30A4A0A4C00236C
:101EE80001E013600432A242FBD302F073FAFFF759
:101EF80045F9FEE70020002000000020F80000203F
:101F080048930008F8000020D0070020FEE70000F2
:101F180080B582B000AFFB1D00221A700B4B1A6807
:101F28000A4B802149000A431A60032000F010F888
:101F3800031E03D0FB1D01221A7001E0FFF78CFE7F
:101F4800FB1D1B781800BD4602B080BD0020024072
:101F580090B585B000AF78600F23FB1800221A7087
:101F68001D4B1B78002B2BD01C4B1C681A4B1B7865
:101F78001900FA239800FEF7C9F803001900200099
:101F8800FEF7C4F80300180000F03DF9031E12D153
:101F98007B68032B0AD8796801235B42002218006A
:101FA80000F00CF90E4B7A681A600DE00F23FB184D
:101FB80001221A7008E00F23FB1801221A7003E0AF
:101FC8000F23FB1801221A700F23FB181B78180027
:101FD800BD4605B090BDC0461C000020140000207E
:101FE8001800002080B500AF054B1B781A00054B80
:101FF8001B68D218034B1A60C046BD4680BDC04658
:102008001C0000206806002080B500AF024B1B684A
:102018001800BD4680BDC0466806002080B584B063
:1020280000AF7860FFF7F0FF0300BB607B68FB60E0
:10203800FB68013305D00A4B1B781A00FB689B1814
:10204800FB60C046FFF7E0FF0200BB68D31AFA68DE
:102058009A42F7D8C046C046BD4604B080BDC046C7
:102068001C00002080B582B000AF0200FB1D1A7072
:10207800FB1D1B787F2B09D8FB1D1B781A001F231B
:102088001A40044B012191400A001A60C046BD461F
:1020980002B080BD00E100E090B583B000AF02005F
:1020A8003960FB1D1A70FB1D1B787F2B28D82F4A1F
:1020B800FB1D1B785BB29B08C0339B009B58FA1D25
:1020C8001278110003220A40D200FF2191400A0031
:1020D800D2431A4011003B689B01FF221A40FB1DA6
:1020E8001B78180003230340DB009A401F48FB1DA0
:1020F8001B785BB29B080A43C0339B001A5031E03F
:102108001B4AFB1D1B7819000F230B40083B9B083B
:1021180006339B00D31804331B68FA1D127811008C
:1021280003220A40D200FF2191400A00D2431A40FC
:1021380011003B689B01FF221A40FB1D1B78180009
:1021480003230340DB009A400948FB1D1B781C0051
:102158000F232340083B9B080A4306339B00C31800
:1021680004331A60C046BD4603B090BD00E100E0EC
:1021780000ED00E080B582B000AF78607B685A1E41
:1021880080235B049A4201D3012310E00A4B7A684A
:10219800013A5A6001235B4203211800FFF77CFFD4
:1021A800054B00229A60044B07221A60002318008E
:1021B800BD4602B080BDC04610E000E080B584B0E6
:1021C80000AFB9607A600F217B18021C1A70BA68D8
:1021D8007B181B785BB211001800FFF75DFFC04643
:1021E800BD4604B080BD80B582B000AF0200FB1DC3
:1021F8001A70FB1D1B785BB21800FFF733FFC0464F
:10220800BD4602B080BD80B582B000AF78607B6803
:102218001800FFF7AFFF03001800BD4602B080BDED
:10222800B0B586B000AFF860B9603A607B60214B0A
:102238001B78012B01D1022338E01E4B01221A70B2
:102248001C4B00225A6017257C19FA239B001800A2
:1022580000F07AF8030023707B191B78002B1FD13C
:10226800FB68012B06D13A687B68B968080000F062
:10227800B9F805E03A68BB681100180002F024FDBF
:102288001723FC18FA239B00180000F05DF80300E0
:102298002370094B5A69FB68D943074B0A405A61B6
:1022A800044B00221A701723FB181B781800BD4630
:1022B80006B0B0BD6C0600200020024080B582B098
:1022C80000AFFB1D00221A700B4B5B69002B0CDA68
:1022D800094B0A4A9A60084B094A9A60064B5B699F
:1022E800002B02DAFB1D01221A70FB1D1B78180057
:1022F800BD4602B080BDC0460020024023016745AC
:10230800AB89EFCD80B582B000AFFB1D01221A70FA
:10231800FA239B00180000F017F80A4B5A69094B7A
:10232800802109060A435A61064B5B69002B02DAD1
:10233800FB1D00221A70FB1D1B781800BD4602B059
:1023480080BDC0460020024080B584B000AF7860F0
:10235800FFF75AFE0300FB6080235B02BB600CE0C2
:102368007B68013309D0FFF74FFE0200FB68D31AE0
:102378007A689A4201D8032328E0164B1B69BA6889
:102388001340EDD1134B1B69134A1340BB60114B2B
:10239800124A1A61BB68002B11D0114BBA685A60F7
:1023A800012313E07B68013309D0FFF72DFE0200FB
:1023B800FB68D31A7A689A4201D8032306E0054BD2
:1023C8001A698023DB021340ECD100231800BD46B4
:1023D80004B080BD00200240FA830000FB830000A7
:1023E8006C060020B0B584B000AFF8603A607B603E
:1023F8000B4B5A690A4B01210A435A61FB683A6838
:102408001A60BFF36F8FC0467B681C0000231D0055
:10241800FB68043322001A60C046BD4604B0B0BD54
:1024280000200240B0B584B000AF78603960354B09
:102438001B78012B01D102235FE0324B01221A7075
:10244800304B00225A600F257C19FA239B00180094
:10245800FFF77AFF030023702C003B191B78002B31
:1024680045D17B6804225A607B681B68042B0DD118
:102478007B685B68180000F049F83C19FA239B0058
:102488001800FFF761FF0300237030E03B6801226A
:1024980052421A607B689B68BB601AE07B685B6885
:1024A800BA681100180000F045F80F257C19FA23C6
:1024B8009B001800FFF748FF030023707B191B7867
:1024C800002B03D03B68BA681A600AE0BB68013386
:1024D800BB607B689A687B68DB68D318BA689A42E5
:1024E800DCD3094B5A69084B02218A435A61054BD0
:1024F80000221A700F23FB181B781800BD4604B081
:10250800B0BDC0466C0600200020024080B582B0F5
:1025180000AF7860064B5A697B681A43044B8021E8
:1025280049020A435A61C046BD4602B080BDC04652
:102538000020024080B584B000AF78603960084B55
:102548005B69084A1340FB603B68DA00FB681A4382
:10255800034B05490A435A61C046BD4604B080BDD5
:102568000020024007E0FFFF0200010080B586B0AE
:1025780000AF7860396000237B6147E13B681B68E6
:1025880001217A6991400A001340FB60FB68002B27
:1025980000D138E13B685B6803221340012B05D06A
:1025A8003B685B6803221340022B30D17B689B6831
:1025B8003B617B695B0003229A401300DA433B6965
:1025C80013403B613B68DA687B695B009A40130003
:1025D8003A6913433B617B683A699A607B685B6838
:1025E8003B6101227B699A401300DA433B6913403F
:1025F8003B613B685B681B0901221A407B699A4072
:1026080013003A6913433B617B683A695A603B6837
:102618005B6803221340032B17D07B68DB683B61A0
:102628007B695B0003229A401300DA433B6913403D
:102638003B613B689A687B695B009A4013003A6982
:1026480013433B617B683A69DA603B685B68032245
:102658001340022B23D17B69DA087B680832920089
:10266800D3583B617B69072213409B000F229A4095
:102678001300DA433B6913403B613B681A697B6985
:1026880007210B409B009A4013003A6913433B61B2
:102698007B69DA087B68083292003969D1507B6817
:1026A8001B683B617B695B0003229A401300DA4395
:1026B8003B6913403B613B685B6803221A407B69B6
:1026C8005B009A4013003A6913433B617B683A699F
:1026D8001A603B685A68C0239B02134000D192E0FD
:1026E800504A7B699B0818339B009B583B617B6968
:1026F80003221340DB000F229A401300DA433B69A0
:1027080013403B617A68A023DB059A4213D07B68AB
:10271800454A93420DD07B68444A934207D07B6870
:10272800434A934201D1032306E0052304E0022330
:1027380002E0012300E000237A6903210A40D20065
:1027480093403A6913433B6136497B699B081833C8
:102758009B003A695A50334B1B683B61FB68DA436C
:102768003B6913403B613B685A6880235B03134015
:1027780003D03A69FB6813433B612A4B3A691A60F4
:10278800284B5B683B61FB68DA433B6913403B615C
:102798003B685A6880239B03134003D03A69FB685F
:1027A80013433B611F4B3A695A601E4A8423D3582E
:1027B8003B61FB68DA433B6913403B613B685A68FD
:1027C80080239B02134003D03A69FB6813433B61A3
:1027D800144984223B698B50124A8023D3583B61A9
:1027E800FB68DA433B6913403B613B685A688023C6
:1027F8005B02134003D03A69FB6813433B61094904
:1028080080223B698B507B6901337B613B681A6886
:102818007B69DA40131E00D0B0E6C046C046BD460C
:1028280006B080BD001802400004005000080050A7
:10283800000C005080B584B000AF78600A00BB1C63
:102848001A807B681B69BA1C1288134004D00F23B6
:10285800FB1801221A7003E00F23FB1800221A70DC
:102868000F23FB181B781800BD4604B080BD80B547
:1028780082B000AF786008001100BB1C021C1A80EF
:102888007B1C0A1C1A707B1C1B78002B04D0BB1CF9
:102898001A887B689A6103E0BB1C1A887B689A6275
:1028A800C046BD4602B080BD80B582B000AF78603A
:1028B8007B68002B01D101238FE07B6841229B5C60
:1028C800DBB2002B07D17B684022002199547B683A
:1028D8001800FFF7E5F97B684122242199547B68A9
:1028E8001B681A687B681B6801218A431A607B6829
:1028F8005A687B681B683B490A401A617B681B68F9
:102908009A687B681B6838490A409A607B68DB686C
:10291800012B08D17B689A687B681B6880210902B3
:102928000A439A6007E07B689A687B681B68842181
:1029380009020A439A607B68DB68022B09D17B682D
:102948001B685A687B681B68802109010A435A6022
:1029580007E07B681B685A687B681B6823490A4044
:102968005A607B681B685A687B681B6820490A4361
:102978005A607B681B68DA687B681B681A490A40DA
:10298800DA607B681A697B685B691A4311007B68A7
:102998009B691A027B681B680A43DA607B68D969FD
:1029A8007B681A6A7B681B680A431A607B681B6825
:1029B8001A687B681B6801210A431A607B68002239
:1029C8005A647B684122202199547B6800221A634B
:1029D8007B6842220021995400231800BD4602B0AA
:1029E80080BDC046FFFFFFF0FF7FFFFFFFF7FFFF3F
:1029F8000080000290B589B002AFF8600C001000AA
:102A080019000A23FB18221C1A800823FB18021C31
:102A18001A80BB1D0A1C1A80FB6841229B5CDBB232
:102A2800202B00D00CE1BB6A002B04D02C23FB1810
:102A38001B88002B05D1FB68802292005A64012371
:102A4800FFE0FB6840229B5C012B01D10223F8E0E8
:102A5800FB68402201219954FFF7D6FA03007B61F5
:102A680080231902F8687B6900931923012200F07A
:102A780075F9031E01D00123E3E0FB6841222121FF
:102A88009954FB68422240219954FB6800225A64F9
:102A9800FB68BA6A5A62FB682C22BA1812885A85EF
:102AA800FB6800225A63BB1D1C880823FB181A8880
:102AB8000A23FB181988F8687B6901933B6B00931C
:102AC800230000F0C5F8031E05D0FB684022002152
:102AD80099540123B5E0FB685B8D9BB2FF2B11D99C
:102AE800FB68FF221A85FB681B8DDAB280235C0421
:102AF8000A23FB181988F86800230093230000F0C4
:102B080007FB12E0FB685B8D9AB2FB681A85FB68CD
:102B18001B8DDAB280239C040A23FB181988F868F5
:102B280000230093230000F0F3FA7A69396BFB68FD
:102B3800180000F06BF9031E01D0012381E0FB6847
:102B48005B6A1A78FB681B689A62FB685B6A5A1CA6
:102B5800FB685A62FB685B8D9BB2013B9AB2FB68CB
:102B68005A85FB681B8D013B9AB2FB681A85FB6886
:102B78005B8D9BB2002B3AD0FB681B8D002B36D1A6
:102B88003A6BF8687B69009313000022802100F0FB
:102B9800E5F8031E01D0012353E0FB685B8D9BB26F
:102BA800FF2B11D9FB68FF221A85FB681B8DDAB24F
:102BB80080235C040A23FB181988F8680023009313
:102BC800230000F0A5FA12E0FB685B8D9AB2FB685F
:102BD8001A85FB681B8DDAB280239C040A23FB1834
:102BE8001988F86800230093230000F091FAFB6825
:102BF8005B8D9BB2002B98D17A69396BFB68180002
:102C080000F04AF9031E01D001231AE0FB681B6893
:102C18002022DA61FB681B685A68FB681B680B494D
:102C28000A405A60FB68412220219954FB684222DD
:102C380000219954FB68402200219954002300E0A8
:102C480002231800BD4607B090BDC04600E800FE4C
:102C5800B0B586B002AFF8600C00100019000A2564
:102C68007B19221C1A800823FB18021C1A80BB1D22
:102C78000A1C1A80BB1D1B88DAB280235C047B19EE
:102C88001988F868234B0093230000F041FA7A6A08
:102C9800396AFB68180000F0B9F8031E01D0012357
:102CA80033E0BB1D1B88012B07D10823FB181B88A9
:102CB800DAB2FB681B689A6219E00823FB181B88C4
:102CC8001B0A9BB2DAB2FB681B689A627A6A396A95
:102CD800FB68180000F09AF8031E01D0012314E0E5
:102CE8000823FB181B88DAB2FB681B689A623A6AE9
:102CF800F8687B6A009313000022802100F02EF808
:102D0800031E01D0012300E000231800BD4604B0D3
:102D1800B0BDC0460020008080B582B000AF7860AA
:102D28007B681B689B6902221340022B03D17B68D6
:102D38001B6800229A627B681B689B69012213400A
:102D4800012B07D07B681B689A697B681B68012187
:102D58000A439A61C046BD4602B080BD80B584B0C2
:102D680000AFF860B9603B60FB1D1A703AE0BA69C1
:102D78003968FB68180000F0D3F8031E01D001235E
:102D880040E03B6801332DD0FFF73EF90200BB69F4
:102D9800D31A3A689A4202D33B68002B22D1FB68C7
:102DA8001B689B69BA681340BA68D31A5A425341E0
:102DB800DBB21A00FB1D1B789A4213D1FB685B6CCF
:102DC80020221A43FB685A64FB6841222021995447
:102DD800FB68422200219954FB6840220021995443
:102DE80001230FE0FB681B689B69BA681340BA6847
:102DF800D31A5A425341DBB21A00FB1D1B789A4280
:102E0800B5D000231800BD4604B080BD80B584B09D
:102E180000AFF860B9607A6032E07A68B968FB6838
:102E2800180000F07DF8031E01D0012330E0BB68D4
:102E3800013325D0FFF7E8F802007B68D31ABA6897
:102E48009A4202D3BB68002B1AD1FB681B689B69A6
:102E580002221340022B13D0FB685B6C20221A431A
:102E6800FB685A64FB68412220219954FB6842227E
:102E780000219954FB68402200219954012307E05E
:102E8800FB681B689B6902221340022BC5D10023F3
:102E98001800BD4604B080BD80B584B000AFF860AE
:102EA800B9607A602FE07A68B968FB68180000F0AA
:102EB80037F8031E01D001232DE0FFF7A5F8020023
:102EC8007B68D31ABA689A4202D3BB68002B1AD11E
:102ED800FB681B689B6920221340202B13D0FB68DA
:102EE8005B6C20221A43FB685A64FB68412220214C
:102EF8009954FB68422200219954FB684022002122
:102F08009954012307E0FB681B689B692022134042
:102F1800202BC8D100231800BD4604B080BD000096
:102F280080B58AB000AFF860B9607A602723FB18D3
:102F380000221A70FB681B689B69BB6100233B6217
:102F48007B68FB61BB691022134000D179E0FB6804
:102F58001B681022DA6157E02722BB18BA181278CA
:102F68001A70BB6801334FD0FFF74EF80200FB69B7
:102F7800D31ABA689A4202D3BB68002B44D1FB68C3
:102F88001B685A688023DB0113407B6113203B18C0
:102F9800FA684221525C1A70FB681B689A698023A0
:102FA8001B021A4080231B029A4226D17A69802389
:102FB800DB019A4221D03B181B78202B1DD0FB68DF
:102FC8001B685A68FB681B688021C9010A435A605C
:102FD800FFF71AF80300FB610FE0FFF715F802008E
:102FE800FB69D31A192B08D93B6A202213433B6289
:102FF8002723FB1801221A7006E0FB681B689B69EF
:1030080020221340202BE8D1FB681B689B692022F3
:103018001340202B04D02723FB181B78002B9BD0B0
:103028002723FB181B78002B03D1FB681B68202281
:10303800DA613B6A042213433B622723FB1801220F
:103048001A70FB681B689B69BB61BA6980235B00C7
:1030580013400CD03B6A012213433B62FB681B6898
:1030680080225200DA612723FB1801221A70BA69FC
:103078008023DB0013400CD03B6A082213433B62D9
:10308800FB681B688022D200DA612723FB18012223
:103098001A70BA6980239B0013400CD03B6A022245
:1030A80013433B62FB681B6880229200DA61272386
:1030B800FB1801221A702723FB181B78002B1DD040
:1030C800FB681800FFF728FEFB681B685A68FB6856
:1030D8001B680E490A405A60FB685A6C3B6A1A43DF
:1030E800FB685A64FB68412220219954FB684222FC
:1030F80000219954FB684022002199542723FB188A
:103108001B781800BD460AB080BDC04600E800FE26
:1031180090B587B000AFF860080011007B600A2402
:103128003B19021C1A8009203B180A1C1A703B190B
:103138001B889B059A0D3B181B781904FF231B0459
:103148000B401A437B681A43BB6A13435B005B0856
:103158007B61FB681B685B68BA6A510D8022D200EC
:103168000A4007490A43D2431A401100FB681B680A
:103178007A690A435A60C046BD4607B090BDC0464A
:10318800FF63FF0380B582B000AF786039607B6869
:1031980041229B5CDBB2202B38D17B6840229B5CB0
:1031A800012B01D1022332E07B684022012199548E
:1031B8007B684122242199547B681B681A687B68C4
:1031C8001B6801218A431A607B681B681A687B6840
:1031D8001B6811490A401A607B681B6819687B687C
:1031E8001B683A680A431A607B681B681A687B6820
:1031F8001B6801210A431A607B68412220219954E7
:103208007B68402200219954002300E00223180023
:10321800BD4602B080BDC046FFEFFFFF80B584B059
:1032280000AF786039607B6841229B5CDBB2202B61
:1032380039D17B6840229B5C012B01D1022333E00A
:103248007B684022012199547B68412224219954AA
:103258007B681B681A687B681B6801218A431A60AF
:103268007B681B681B68FB60FB68114A1340FB60A6
:103278003B681B02FA681343FB607B681B68FA68AB
:103288001A607B681B681A687B681B6801210A43FF
:103298001A607B684122202199547B6840220021D2
:1032A8009954002300E002231800BD4604B080BDF5
:1032B800FFF0FFFF80B584B000AF7860194B1B6842
:1032C800194A13401900174B7A680A431A607A683A
:1032D80080239B009A421FD1144B1A6813005B008D
:1032E8009B185B0012491800FCF710FF030001331C
:1032F800FB6008E0FB68002B03D0FB68013BFB6028
:1033080001E0032309E0074B5A698023DB001A40D8
:103318008023DB009A42EDD000231800BD4604B09C
:1033280080BDC04600700040FFF9FFFF1400002078
:1033380040420F0080B588B000AF78607B68002BF2
:1033480001D10123F3E27B681B680122134000D1FD
:103358007CE0C34B9B6838221340BB61C04BDB68E1
:10336800032213407B61BB69102B02D17B69032BBD
:1033780002D0BB69082B0BD1B94B1A6880239B027A
:10338800134062D07B685B68002B5ED10123CEE2DC
:103398007B685A6880235B029A4207D1B04B1A684F
:1033A800AF4B802149020A431A6020E07B685A68C3
:1033B800A023DB029A420ED1A94B1A68A84B8021A0
:1033C800C9020A431A60A64B1A68A54B8021490214
:1033D8000A431A600BE0A24B1A68A14BA1490A40A4
:1033E8001A609F4B1A689E4B9F490A401A607B6877
:1033F8005B68002B14D0FEF707FE03003B6108E072
:10340800FEF702FE02003B69D31A642B01D903239D
:103418008DE2934B1A6880239B021340F0D015E08D
:10342800FEF7F2FD03003B6108E0FEF7EDFD020048
:103438003B69D31A642B01D9032378E2884B1A68B5
:1034480080239B021340F0D100E0C0467B681B68D4
:103458000222134000D199E0814B9B683822134027
:10346800BB617F4BDB68032213407B61BB69102B78
:1034780002D17B69022B02D0BB69002B35D1784B76
:103488001A688023DB00134005D07B68DB68002BBB
:1034980001D101234BE2724B5B68744A1340190057
:1034A8007B685B691A026E4B0A435A60BB69002B42
:1034B80012D16B4B1B686E4A134019007B681A695E
:1034C800674B0A431A60664B1B68DB0A07221340E6
:1034D800684ADA40684B1A60684B1B681800FEF7A8
:1034E80037FD031E51D0012321E27B68DB68002BE6
:1034F80030D05B4B1B685E4A134019007B681A6921
:10350800574B0A431A60564B1A68554B802149009D
:103518000A431A60FEF778FD03003B6108E0FEF7F6
:1035280073FD02003B69D31A022B01D90323FEE184
:103538004B4B1A688023DB001340F0D0484B5B6884
:103548004A4A134019007B685B691A02444B0A43D4
:103558005A601BE0424B1A68414B49490A401A60BD
:10356800FEF752FD03003B6108E0FEF74DFD020047
:103578003B69D31A022B01D90323D8E1384B1A68C7
:103588008023DB001340F0D100E0C0467B681B6855
:103598000822134047D0324B9B6838221340182B1F
:1035A8000AD12F4B1B6E022213403CD07B689B69CB
:1035B800002B38D10123BAE17B689B69002B19D015
:1035C800274B1A6E264B01210A431A66FEF71CFD8B
:1035D80003003B6108E0FEF717FD02003B69D31AC0
:1035E800022B01D90323A2E11D4B1B6E02221340BB
:1035F800F1D018E01A4B1A6E194B01218A431A664A
:10360800FEF702FD03003B6108E0FEF7FDFC020047
:103618003B69D31A022B01D9032388E1104B1B6E97
:1036280002221340F1D17B681B680422134000D1A9
:10363800C6E01F23FB1800221A70094B9B6838222A
:103648001340202B1ED1064BDB6D0222134000D104
:10365800B6E07B689B68002B00D0B1E0012366E1EF
:1036680000100240FFFFFEFFFFFFFBFFFF80FFFF90
:10367800FFC7FFFF0024F4001400002018000020FA
:10368800FFFEFFFFAC4BDA6B80235B05134001D1D3
:10369800012300E00023002B11D0A74BDA6BA64BC7
:1036A800802149050A43DA63A34BDA6B80235B0563
:1036B8001340FB60FB681F23FB1801221A709F4B05
:1036C8001A6880235B0013401AD19C4B1A689B4BE5
:1036D800802149000A431A60FEF796FC03003B610B
:1036E80008E0FEF791FC02003B69D31A022B01D9CE
:1036F80003231CE1914B1A6880235B001340F0D030
:103708007B689B68012B06D18B4BDA6D8A4B0121B4
:103718000A43DA651CE07B689B68052B0CD1864B55
:10372800DA6D854B04210A43DA65834BDA6D824BE7
:1037380001210A43DA650BE07F4BDA6D7E4B0121EC
:103748008A43DA657C4BDA6D7B4B04218A43DA6560
:103758007B689B68002B14D0FEF756FC03003B6186
:1037680009E0FEF751FC02003B69D31A744A934200
:1037780001D90323DBE0704BDB6D02221340F0D04C
:1037880013E0FEF741FC03003B6109E0FEF73CFC57
:1037980002003B69D31A6A4A934201D90323C6E05F
:1037A800654BDB6D02221340F0D11F23FB181B78F9
:1037B800012B05D1604BDA6B5F4B62490A40DA6333
:1037C8007B68DB69002B00D1B0E05B4B9B6838223B
:1037D8001340102B00D178E07B68DB69022B53D1B2
:1037E800554B1A68544B58490A401A60FEF70CFCAE
:1037F80003003B6108E0FEF707FC02003B69D31AAF
:10380800022B01D9032392E04B4B1A6880239B04B7
:103818001340F0D1484BDB684C4A134019007B68D1
:103828001A6A7B685B6A1A437B689B6A1B021A43A5
:103838007B68DB6A1A437B681B6B1A433E4B0A435F
:10384800DA603D4B1A683C4B802149040A431A60F0
:10385800394BDA68384B802149050A43DA60FEF7AC
:10386800D3FB03003B6108E0FEF7CEFB02003B6997
:10387800D31A022B01D9032359E02F4B1A6880234E
:103888009B041340F0D051E02B4B1A682A4B2E4969
:103898000A401A60FEF7B8FB03003B6108E0FEF738
:1038A800B3FB02003B69D31A022B01D903233EE084
:1038B800214B1A6880239B041340F0D11E4BDA6811
:1038C8001D4B23490A40DA6030E07B68DB69012B35
:1038D80001D101232BE0184BDB687B617B69032254
:1038E8001A407B681B6A9A421ED17B6970221A4073
:1038F8007B685B6A9A4217D17A69FE23DB011A401A
:103908007B689B6A1B029A420ED17A69F8239B0353
:103918001A407B68DB6A9A4206D17B695B0F5A07BB
:103928007B681B6B9A4201D0012300E0002318003A
:10393800BD4608B080BDC04600100240007000407F
:1039480088130000FFFFFFEFFFFFFFFE8C80C11F01
:10395800FCFFFEEF80B584B000AF786039607B680B
:10396800002B01D10123E9E0764B1B6807221340A5
:103978003A689A421ED9734B1B6807229343190071
:10398800704B3A680A431A60FEF73EFB0300FB607F
:1039980009E0FEF739FB0200FB68D31A6A4A934232
:1039A80001D90323CAE0674B1B68072213403A6812
:1039B8009A42EED17B681B680222134015D07B68BF
:1039C8001B680422134006D0604B9A685F4BE021C5
:1039D800C9010A439A605D4B9B685D4A1340190010
:1039E8007B689A68594B0A439A607B681B68012276
:1039F800134057D07B685B68012B07D1534B1A687B
:103A080080239B0213402BD1012397E07B685B68DE
:103A1800022B07D14D4B1A6880239B0413401FD1FA
:103A280001238BE07B685B68002B07D1474B1A6842
:103A38008023DB00134013D101237FE07B685B68A0
:103A4800032B06D1414B1B6E0222134008D10123E0
:103A580074E03E4BDB6D0222134001D101236DE07F
:103A68003A4B9B680722934319007B685A68374B87
:103A78000A439A60FEF7C8FA0300FB6009E0FEF704
:103A8800C3FA0200FB68D31A2F4A934201D90323D1
:103A980054E02E4B9B6838221A407B685B68DB0039
:103AA8009A42ECD1274B1B68072213403A689A4286
:103AB8001ED2244B1B68072293431900214B3A68F6
:103AC8000A431A60FEF7A0FA0300FB6009E0FEF75C
:103AD8009BFA0200FB68D31A1B4A934201D90323BD
:103AE8002CE0184B1B68072213403A689A42EED123
:103AF8007B681B680422134009D0144B9B68154A45
:103B0800134019007B68DA68104B0A439A6000F08A
:103B180029F801000D4B9B681B0A0F221A400E4B17
:103B28009200D3581F2213400A00DA400B4B1A6048
:103B38000B4B1B681800FEF70BFA03001800BD4674
:103B480004B080BD0020024088130000001002402D
:103B5800FFF0FFFFFF8FFFFFCC920008140000204A
:103B68001800002080B586B000AF3C4B9B68382217
:103B780013400FD1394B1B68DB0A0722134001227F
:103B88009A4013003B6039683548FCF7BFFA0300D8
:103B98003B615DE0314B9B6838221340082B02D112
:103BA800304B3B6154E02D4B9B6838221340102B5F
:103BB80038D12A4BDB6803221340FB60274BDB68B4
:103BC8001B09072213400133BB60FB68032B0DD18F
:103BD800B9682448FCF79AFA030019001F4BDB6800
:103BE8001B0A7F2213404B437B610DE0B9681C48D8
:103BF800FCF78CFA03001900184BDB681B0A7F22BC
:103C080013404B437B61C046144BDB685B0F0722B4
:103C1800134001337B6079687869FCF777FA030011
:103C28003B6115E00D4B9B6838221340202B03D1D4
:103C380080231B023B610BE0084B9B683822134032
:103C4800182B03D1FA23DB013B6101E000233B6120
:103C58003B691800BD4606B080BDC0460010024052
:103C68000024F40000127A0080B586B000AF7860B6
:103C78001323FB1800221A701223FB1800221A7053
:103C88007B681A6880239B02134000D1A3E01120AF
:103C98003B1800221A707F4BDA6B80235B051340B8
:103CA80010D17C4BDA6B7B4B802149050A43DA63E0
:103CB800784BDA6B80235B051340BB60BB683B180D
:103CC80001221A70744B1A68734B802149000A4309
:103CD8001A60FEF799F90300FB600BE0FEF794F910
:103CE8000200FB68D31A022B04D91323FB18032202
:103CF8001A7005E0684B1A6880235B001340EDD00A
:103D08001323FB181B78002B54D1624BDA6DC023A8
:103D18009B0013407B617B69002B19D07B685B6932
:103D28007A699A4214D05B4BDB6D5C4A13407B6125
:103D3800584BDA6D574B802149020A43DA65554BD7
:103D4800DA6D544B56490A40DA65524B7A69DA659E
:103D58007B690122134016D0FEF756F90300FB6079
:103D68000CE0FEF751F90200FB68D31A4D4A934262
:103D780004D91323FB1803221A7004E0454BDB6DAA
:103D880002221340EDD01323FB181B78002B0AD115
:103D9800404BDB6D414A134019007B685A693D4B23
:103DA8000A43DA650CE01223FB181322BA181278BA
:103DB8001A7005E01223FB181322BA1812781A7029
:103DC8001123FB181B78012B05D1324BDA6B314BD1
:103DD80035490A40DA637B681B680122134009D021
:103DE8002C4B5B6D0322934319007B685A68294B5F
:103DF8000A435A657B681B682022134009D0254B6B
:103E08005B6D2A4A134019007B689A68214B0A4364
:103E18005A657B681A688023DB01134015D01D4B57
:103E28005B6D9B0099087B681A691A4B0A435A65AF
:103E38007B681A698023DB059A4206D1154BDA683C
:103E4800144B802149020A43DA607B681A68802390
:103E58001B01134016D00F4B5B6D154A1340190018
:103E68007B68DA680B4B0A435A657B68DA688023FB
:103E7800DB019A4206D1074BDA68064B80214902DA
:103E88000A43DA601223FB181B781800BD4606B0F7
:103E980080BDC0460010024000700040FFFCFFFFDC
:103EA800FFFFFEFF88130000FFFFFFEFFFCFFFFFBC
:103EB800FF3FFFFF80B582B000AF78607B68002BC2
:103EC80001D101234AE07B683D229B5CDBB2002BD9
:103ED80007D17B683C22002199547B681800FDF7C4
:103EE80067FF7B683D22022199547B681A687B68CA
:103EF80004331900100000F0ABF97B684822012157
:103F080099547B683E22012199547B683F22012104
:103F180099547B684022012199547B6841220121F0
:103F280099547B684222012199547B6843220121DC
:103F380099547B684422012199547B6845220121C8
:103F480099547B684622012199547B6847220121B4
:103F580099547B683D220121995400231800BD46DD
:103F680002B080BD80B584B000AF78607B683D2228
:103F78009B5CDBB2012B01D0012337E07B683D223B
:103F8800022199547B681B68DA687B681B680121E9
:103F98000A43DA607B681B68164A934204D07B6840
:103FA8001B68154A934216D17B681B689B68134AA5
:103FB8001340FB60FB68062B16D0FA6880235B026F
:103FC8009A4211D07B681B681A687B681B680121BC
:103FD8000A431A6008E07B681B681A687B681B68DC
:103FE80001210A431A6000E0C04600231800BD46BC
:103FF80004B080BD002C014000040040070001000F
:1040080080B584B000AF78607B681B68DB68FB60B4
:104018007B681B681B69BB60BB680222134021D008
:10402800FB68022213401DD07B681B6803225242A2
:104038001A617B6801221A777B681B689B690322D7
:10404800134004D07B68180000F0EAF807E07B68AA
:10405800180000F0DDF87B68180000F0E9F87B68CC
:1040680000221A77BB680422134022D0FB6804227E
:1040780013401ED07B681B68052252421A617B6878
:1040880002221A777B681B689A69C0239B00134039
:1040980004D07B68180000F0C3F807E07B681800BC
:1040A80000F0B6F87B68180000F0C2F87B680022C0
:1040B8001A77BB680822134021D0FB6808221340F6
:1040C8001DD07B681B68092252421A617B68042252
:1040D8001A777B681B68DB690322134004D07B686E
:1040E800180000F09DF807E07B68180000F090F8D1
:1040F8007B68180000F09CF87B6800221A77BB6880
:104108001022134022D0FB68102213401ED07B6877
:104118001B68112252421A617B6808221A777B6851
:104128001B68DA69C0239B00134004D07B68180021
:1041380000F076F807E07B68180000F069F87B6803
:10414800180000F075F87B6800221A77BB68012216
:1041580013400CD0FB680122134008D07B681B6811
:10416800022252421A617B681800FCF7F7FFBB680D
:104178008022134004D1BA6880239B0113400BD0DE
:10418800FB688022134007D07B681B681E4A1A61AF
:104198007B68180000F0DEF8BA6880235B001340E3
:1041A8000BD0FB688022134007D07B681B68174A36
:1041B8001A617B68180000F0D5F8BB6840221340EC
:1041C8000CD0FB684022134008D07B681B68412252
:1041D80052421A617B68180000F032F8BB6820224E
:1041E80013400CD0FB682022134008D07B681B6862
:1041F800212252421A617B68180000F0A3F8C046D9
:10420800BD4604B080BDC0467FDFFFFFFFFEFFFF55
:1042180080B582B000AF7860C046BD4602B080BDB0
:1042280080B582B000AF7860C046BD4602B080BDA0
:1042380080B582B000AF7860C046BD4602B080BD90
:1042480080B582B000AF7860C046BD4602B080BD80
:1042580080B584B000AF786039607B681B68FB600C
:104268007B68324A934203D07B68314A934208D133
:10427800FB6870229343FB603B685B68FA681343F2
:10428800FB607B68294A93420FD07B68284A934297
:104298000BD07B68274A934207D07B68264A934213
:1042A80003D07B68254A934208D1FB68244A13400F
:1042B800FB603B68DB68FA681343FB60FB6880229D
:1042C80093431A003B685B691343FB607B68FA6899
:1042D8001A603B689A687B68DA623B681A687B6890
:1042E8009A627B68114A934207D07B68124A9342CC
:1042F80003D07B68114A934203D13B681A697B68F3
:104308001A637B6801225A617B681B69012213408A
:10431800012B06D17B681B69012293431A007B6835
:104328001A61C046BD4604B080BDC046002C01409D
:1043380000040040002000400044014000480140C3
:10434800FFFCFFFF80B582B000AF7860C046BD4675
:1043580002B080BD80B582B000AF7860C046BD466F
:1043680002B080BD80B582B000AF7860C046BD465F
:1043780002B080BD0EB410B500240C499DB01FAB2F
:10438800029006900791049109480A4904CB0591C7
:10439800006802A901931B9400F0A8F9029B1C7005
:1043A8001DB010BC08BC03B01847C046FFFFFF7F14
:1043B800200000200802FFFF03008218934200D16A
:1043C800704719700133F9E7014B18687047C04608
:1043D8002000002070B500260C4C0D4D641BA41065
:1043E800A64209D1002600F063FC0A4C0A4D641B62
:1043F800A410A64205D170BDB300EB58984701360A
:10440800EEE7B300EB5898470136F2E7409300080F
:104418004093000844930008409300087047704791
:10442800002310B59A4200D110BDCC5CC4540133AE
:10443800F8E7000070B505000C1E10D0043C236896
:10444800002B00DAE418280000F0E0F81D4A136891
:10445800002B05D163601460280000F0DFF870BD00
:10446800A34208D9206821188B42F3D119685B68E8
:1044780009182160EEE71A005B68002B01D0A342FF
:10448800F9D911685018A0420BD1206809185018A2
:1044980011608342E0D118685B684118116053606D
:1044A800DAE7A04202D90C232B60D5E7206821184F
:1044B8008B4203D119685B680918216063605460F6
:1044C800CAE7C046CC07002070B50F4E0D00316812
:1044D8000400002902D100F095FB3060290020007B
:1044E80000F090FB431C03D101256D42280070BDEC
:1044F8000323C51C9D43A842F8D0291A200000F0C8
:1045080081FB0130F2D1EFE7C8070020F7B503229D
:10451800CB1C9343083305001F000C2B34D20C2707
:10452800B94233D8280000F071F8374E33681C00C0
:10453800002C2FD139002800FFF7C6FF0400431CC8
:104548005FD134680094009B002B4AD1002C52D0D4
:1045580023682800E3180099019300F053FB019B9E
:10456800834248D123682800FF1A3900FFF7ACFFBF
:10457800013040D02368DB19236033685A68002A69
:1045880033D1009B336019E0002BC9DA0C232B6070
:104598000020FEBD2168C91B20D40B290AD9E219C5
:1045A8002760A34204D1326063681160536005E05C
:1045B8005A60F9E76268A3420ED13260280000F021
:1045C8002DF8200007220B30231D9043C21A984271
:1045D800DFD01B1AA350DCE75A60EFE723006468BA
:1045E800A6E7009C63680093ADE71A005B68A342E6
:1045F800FBD10023DAE70C2328002B6000F00EF82B
:10460800C6E70760DAE7C046CC07002010B50248C5
:10461800FFF704FF10BDC046C407002010B50248CC
:10462800FFF7FDFE10BDC046C4070020F0B58E6838
:1046380085B01F000C000B6802900392BE4230D870
:104648000C21625E9021C9000A4228D0032021690A
:104658005B1A0193636943430198DD0FED187B1CD6
:104668001B186D10AB4200D91D00520528D5290032
:104678000298FFF74BFF061E2CD0019A2169FFF71D
:10468800CFFEA289184B1A4080231343A381019BB4
:104698002661F61826603E006561ED1AA560BE42E7
:1046A80000D93E0032000399206800F099FA0020F2
:1046B800A3689B1BA36023689B19236005B0F0BD0A
:1046C8002A00029800F0BBFA061EE0D12169029880
:1046D800FFF7B0FE0C230120029A40421360A28922
:1046E80034331343A381E9E77FFBFFFFF0B5A1B0A3
:1046F80003901D008B890F0016001B0611D50B694E
:10470800002B0ED14021FFF701FF386038610028E7
:1047180005D10C23039A136001204042CFE04023C7
:104728007B61002308AC6361203363761033A37682
:10473800079535002B78002B01D0252B48D1AB1BD2
:104748000593B5420BD0320039000398FFF76EFF8E
:10475800013000D1AEE06369059A9B1863612B783C
:10476800002B00D1A6E0012200235242626004A976
:10477800543252186E1C2360E360A3601370A36563
:10478800544B052218003178059300F04DFA751C3A
:1047980000281FD12268D30604D5532304A95B1827
:1047A80020211970130704D5532304A95B182B2162
:1047B800197033782A2B16D0350000210A20E368B7
:1047C8002A786E1C303A092A50D9002911D117E0ED
:1047D8000135AFE7059B2268C01A012383401343C4
:1047E8002E002360CCE7079B191D1B680791002B3F
:1047F80001DB0B9304E05B42E36002231343236075
:104808002B782E2B0CD16B782A2B34D1079B0235B1
:104818001A1D1B680792002B01DA01235B420993DA
:104828002D4E03223000297800F0FEF9002806D02A
:104838004023801B83402268013513432360297875
:10484800062226486E1C217600F0EEF9002838D0A2
:10485800234B002B22D10722079B073393430833AE
:1048680007936369049A9B18636162E743433500C1
:1048780001219B18A4E700230A2019000135636071
:104888002A786E1C303A092A03D9002BC8D009911E
:10489800C6E74143350001238918F1E707AA0092CA
:1048A80021003A000F4B039800E000BF0490049BDE
:1048B8000133D6D1BB890D985B0600D52CE721B012
:1048C800F0BD07AA009221003A00064B039800F0B9
:1048D8007BF8EBE70C930008129300081693000886
:1048E8000000000035460008F7B5160001938A68F5
:1048F8000B690C000090934200DA13002200336029
:1049080043321278002A01D00133336023689B06B2
:1049180002D53368023333602268062315001D4030
:104928001A4227D0230043331B785A1E934122682A
:10493800920630D4220001990098089D4332A84776
:10494800013025D00622236800251340042B05D109
:104958003368E568ED1AEB43DB171D40A36822694D
:10496800934201DD9B1AED180026B54220D10020A4
:1049780010E00135E36832689B1AAB42D2DD2200B1
:10498800012301990098089F1932B8470130F0D1E6
:1049980001204042FEBD3020E1184331087021005B
:1049A8005A1C45310978A218433202331170C1E705
:1049B8002200012301990098089F1A32B847013054
:1049C800E6D00136D1E70000F0B58BB006920A00B8
:1049D80043320793059003920A7E0C00109B782AB5
:1049E80009D8622A0BD8002A00D1BAE07A49049182
:1049F800582A00D18EE0250042352A7022E01000A6
:104A080063381528F7D8FBF777FB16001F00F6FF69
:104A1800F6FFF6FFF6FF1F00F6FFF6FFF6FFF6FFBC
:104A28009F0036007E00F6FFF6FFB000F6FF360066
:104A3800F6FFF6FF820025001A684235111D19603D
:104A480013682B7001239EE018680968021D0D0683
:104A58000BD506681A60002E03DA2D23039A7642D6
:104A680013705D4B0A27049318E006681A6049061C
:104A7800F1D536B2EFE70868196840C9050602D4CF
:104A8800400600D5B6B21960534B0A2704936F2A23
:104A980000D1023F2300002243331A706368A360E9
:104AA800002B06DB04212268039D8A4322603343DE
:104AB8000CD0039D30003900FBF7AEFB049B013D91
:104AC8005B5C2B70330006009F42F3D9082F09D195
:104AD8002368DB0706D5626823699A4202DC302323
:104AE800013D2B70039B5B1B2361079B21000093F7
:104AF8000598069B09AAFFF7F7FE013048D1012067
:104B080040420BB0F0BD202209680A432260782297
:104B180032490491210045310A701968226840C958
:104B2800100602D4500600D5B6B21960D30702D5D4
:104B3800202313432360002E01D01027AAE7202248
:104B4800236893432360F8E71A680D68101D4969C4
:104B5800186013682E0601D5196002E06D06FBD5B2
:104B680019800023039D2361BFE71A68111D19608E
:104B7800156800212800626800F056F8002801D066
:104B8800401B6060636823610023039A1370ACE7DD
:104B98002A00236906990598079DA8470130AED0D9
:104BA80023689B0715D4099BE0689842A9DA180086
:104BB800A7E72200012306990598079E1932B047F6
:104BC80001309CD00135E368099A9B1AAB42F0DCAE
:104BD800E9E70025F7E7C0461D9300082E93000873
:104BE80010B5884202D98B18984208D300239A42FC
:104BF80007D0CC5CC4540133F9E78B5C8354013A89
:104C0800FBD210BD002370B5064D040008002B60D0
:104C1800FDF718F9431C03D12B68002B00D0236043
:104C280070BDC046C0070020C9B28218904201D1A9
:104C38000020704703788B42FBD00130F6E7F7B5C8
:104C480006000C001500002905D11100FFF75EFCD5
:104C580004002000FEBD002A03D1FFF7EBFB2C0067
:104C6800F7E700F01CF80700854202D84308AB427A
:104C7800EFD329003000FFF749FC0190002801D14B
:104C8800019CE6E72A00BD4200D93A0021000198BC
:104C9800FFF7C6FB21003000FFF7CCFBF0E70B1F46
:104CA8001B68181F002B01DA0B58C018704700004A
:104CB800F8B5C046F8BC08BC9E467047F8B5C04673
:104CC800F8BC08BC9E46704701B40248844601BC43
:084CD800604700BF71000020DD
:104CE000256C750025752F730000000025752E2595
:104CF000752F73007361766564210000524553453A
:104D00005420414C4C3F0000507265737320616722
:104D100061696E00746F20636F6E6669726D00006A
:104D20005245534554204F4B2100000043616E63B0
:104D3000656C6C6564000000426F6E676F204361B4
:104D4000742046696467657420546F790000000020
:104D500062792041666F6E736F204D7572616C6869
:104D60006100000061666F6E736F6D7572616C68D3
:104D7000612E636F6D000000000000000000000065
:104D80000000000000000000000000000000000023
:104D90000000000000000000000000000000000013
:104DA0000000000000000000000000000000000003
:104DB00000000000000000000000000000000000F3
:104DC00000000000000000000000000000000000E3
:104DD00000000000000000000000000000000000D3
:104DE00000000000000000000000000000000000C3
:104DF00000000000000000000000000000000000B3
:104E000000000000000000000000000000000000A2
:104E10000000000000000000000000000000000092
:104E20000000000000000000000000000000000082
:104E30000000000000000000000000000000000072
:104E40000000000000000000000000000000000062
:104E50000000000000000000000000000000000052
:104E60000000000000000000000000000000000042
:104E70000000000000000000000000000000000032
:104E8000000000000000000000000000000000061C
:104E90000000000000000000000000000000000909
:104EA00000000000000000000000000000000010F2
:104EB0008000000000000000000000000000001062
:104EC0004000000000000000000000000000002082
:104ED0003C00000000000000000000000000002076
:104EE00003C00000000000000000000000000040BF
:104EF0000030000000000000000000000000008002
:104F00000008300000000000007000000000F30006
:104F10000004C80000000000000F800000010C0029
:104F2000000304000000000000007C0000020800F4
:104F30000000040000000000000003E00002040084
:104F400000000400000000000000001E0002043009
:104F5000000004000000000000000001F002023028
:104F60000000080000000000000000001F82020096
:104F700000000800000000000000000001F1020431
:104F8000019C08000000000000000000000F000766
:104F900091A2100000000000000000000000E000EE
:104FA00060211000000000000000000000001F80D1
:104FB0000041080000000000000000000000007C2C
:104FC0000040880000000000000000000000000316
:104FD000C04084000000000000000000000000004D
:104FE0003840040000000000000000000000000045
:104FF00007E00400000000000000000000000000C6
:10500000003C020000000000000000000000000062
:105010000003F2000000000000000000000000009B
:1050200000000F80000000000000000000000000F1
:10503000000001F800000000000000000000000077
:105040000000000F800000000000000000000000D1
:10505000000000007C0000000000000000000000D4
:105060000000000003E0000000000000000000005D
:1050700000000000001F0000000000000000000011
:10508000000000000000F800000000000000000028
:105090000000000000000700000000000000000009
:1050A0000000000000000000000000000000000000
:1050B00000000000000000000000000000000000F0
:1050C00000000000000000000000000000000000E0
:1050D00000000000000000000000000000000000D0
:1050E00000000000000000000000000000000000C0
:1050F00000000000000000000000000000000000B0
:10510000000000000000000000000000000000009F
:10511000000000000000000000000000000000008F
:10512000000000000000000000000000000000007F
:10513000000000000000000000000000000000006F
:10514000000000000000000000000000000000005F
:10515000000000000000000000000000000000004F
:10516000000000000000000000000000000000003F
:10517000000000000000000000000000000000002F
:10518000000000000000000000000000000000001F
:10519000000000000000000000000000000000000F
:1051A00000000000000000000000000000000000FF
:1051B00000000000000000000000000000000000EF
:1051C00000000000000000000000000000000000DF
:1051D00000000000000000000000000000000000CF
:1051E00000000000000000000000000000000000BF
:1051F00000000000000000000000000000000000AF
:10520000000000000000000000000000000000009E
:10521000000000000000000000000000000000008E
:10522000000000000000000000000000000000007E
:10523000000000000000000000000000000000006E
:10524000000000000000000000000000000000005E
:10525000000000000000000000000000000000004E
:10526000000000000000000000000000000000003E
:10527000000000000000000000000000000000002E
:105280000000000000000000000000000000000618
:105290000000000000000000000000000000000905
:1052A00000000000000000000000000000000010EE
:1052B000800000000000000000000000000000105E
:1052C000400000000000000000000000000000207E
:1052D0003C00000000000000000000000000002072
:1052E00003C00000000000000000000000000040BB
:1052F00000300000000000000000000000000080FE
:1053000000083000000000000070000000000300F2
:105310000004C80000000000000F8000000004002E
:10532000000304000000000000007C0000000800F2
:105330000000040000000000000003E00000100076
:1053400000000400000000000000001E00002030EB
:10535000000004000000000000000001F0004030E8
:105360000000080000000000000000001F80800016
:1053700000000800000000000000000001F100042F
:10538000018008000000000000000000000F00077E
:1053900091801000000000000000000000020000EA
:1053A000600010000000000000000000000201800A
:1053B0000000080000000000000000000002067C61
:1053C0000000080000000000000000000001F803D9
:1053D000C000040000000000000000000000000009
:1053E0003800040000000000000000000000000081
:1053F00004000400000000000000000000000000A5
:105400000800020000000000000000000000000092
:105410000803F2000000000000000000000000008F
:10542000080C0F80000000000000000000000000D9
:10543000083001F80000000000000000000000003B
:1054400007C0000F80000000000000000000000006
:10545000000000007C0000000000000000000000D0
:105460000000000003E00000000000000000000059
:1054700000000000001F000000000000000000000D
:10548000000000000000F800000000000000000024
:105490000000000000000700000000000000000005
:1054A00000000000000000000000000000000000FC
:1054B00000000000000000000000000000000000EC
:1054C00000000000000000000000000000000000DC
:1054D00000000000000000000000000000000000CC
:1054E00000000000000000000000000000000000BC
:1054F00000000000000000000000000000000000AC
:10550000000000000000000000000000000000009B
:10551000000000000000000000000000000000008B
:10552000000000000000000000000000000000007B
:10553000000000000000000000000000000000006B
:10554000000000000000000000000000000000005B
:10555000000000000000000000000000000000004B
:10556000000000000000000000000000000000003B
:10557000000000000000000000000000000000002B
:10558000000000000000000000000000000000001B
:10559000000000000000000000000000000000000B
:1055A00000000000000000000000000000000000FB
:1055B00000000000000000000000000000000000EB
:1055C00000000000000000000000000000000000DB
:1055D00000000000000000000000000000000000CB
:1055E00000000000000000000000000000000000BB
:1055F00000000000000000000000000000000000AB
:10560000000000000000000000000000000000009A
:10561000000000000000000000000000000000008A
:10562000000000000000000000000000000000007A
:10563000000000000000000000000000000000006A
:10564000000000000000000000000000000000005A
:10565000000000000000000000000000000000004A
:10566000000000000000000000000000000000003A
:10567000000000000000000000000000000000002A
:10568000000000000000000000000000000000001A
:105690000000000000000000000000000000000604
:1056A00000000000000000000000000000000009F1
:1056B00000000000000000000000000000000010DA
:1056C000800000000000000000000000000000104A
:1056D000400000000000000000000000000000206A
:1056E0003C0000000000000000000000000000205E
:1056F00003C00000000000000000000000000040A7
:105700000030000000000000007000000000008079
:105710000008300000000000000F800000000300BF
:105720000004C8000000000000007C00000004002D
:105730000003040000000000000003E00000080077
:1057400000000400000000000000001E0000100027
:10575000000004000000000000000001F000203004
:105760000000040000000000000000001F80403026
:1057700000000800000000000000000001F08000B0
:10578000000008000000000000000000000F0004FE
:105790000180080000000000000000000002000777
:1057A0009180100000000000000000000002018055
:1057B0006000100000000000000000000002067CF5
:1057C0000000080000000000000000000001F803D5
:1057D000C0000C00000000000000000000000000FD
:1057E000380004000000000000000000000000007D
:1057F00004000400000000000000000000000000A1
:10580000080002000000000000000000000000008E
:105810000803F2000000000000000000000000008B
:10582000080C0F80000000000000000000000000D5
:10583000083001F800000000000000000000000037
:1058400007C0000F80000000000000000000000002
:10585000000000007C0000000000000000000000CC
:105860000000000003E00000000000000000000055
:1058700000000000001F0000000000000000000009
:10588000000000000000F800000000000000000020
:105890000000000000000700000000000000000001
:1058A00000000000000000000000000000000000F8
:1058B00000000000000000000000000000000000E8
:1058C00000000000000000000000000000000000D8
:1058D00000000000000000000000000000000000C8
:1058E00000000000000000000000000000000000B8
:1058F00000000000000000000000000000000000A8
:105900000000000000000000000000000000000097
:105910000000000000000000000000000000000087
:105920000000000000000000000000000000000077
:105930000000000000000000000000000000000067
:105940000000000000000000000000000000000057
:105950000000000000000000000000000000000047
:105960000000000000000000000000000000000037
:105970000000000000000000000000000000000027
:105980000000000000000000000000000000000017
:105990000000000000000000000000000000000007
:1059A00000000000000000000000000000000000F7
:1059B00000000000000000000000000000000000E7
:1059C00000000000000000000000000000000000D7
:1059D00000000000000000000000000000000000C7
:1059E00000000000000000000000000000000000B7
:1059F00000000000000000000000000000000000A7
:105A00000000000000000000000000000000000096
:105A10000000000000000000000000000000000086
:105A20000000000000000000000000000000000076
:105A30000000000000000000000000000000000066
:105A40000000000000000000000000000000000056
:105A50000000000000000000000000000000000046
:105A60000000000000000000000000000000000036
:105A70000000000000000000000000000000000026
:105A80000000000000000000000000000000000016
:105A90000000000000000000000000000000000006
:105AA0000000000000000000000000000000000EE8
:105AB00000000000000000000000000000000011D5
:105AC00000000000000000000000000000000020B6
