:020000040800F2
:1000000000200020351E0008C91C0008CB1C000879
:1000100000000000000000000000000000000000E0
:10002000000000000000000000000000CD1C0008DF
:100030000000000000000000CF1C0008D11C0008D8
:10004000851E000800000000851E0008851E0008AF
:10005000D91C0008851E0008851E0008851E0008A2
:1000600000000000851E0008851E0008851E00088F
:10007000851E0008851E0008851E0008000000007F
:10008000851E00080000000000000000DD1C0008C4
:1000900000000000851E0008851E0008851E00085F
:1000A000851E0008851E0008851E0008851E0008A4
:0800B000851E0008000000009D
:1000B80010B5064C2378002B07D1054B002B02D036
:1000C800044800E000BF0123237010BDA8000020F1
:1000D80000000000E8370008044B10B5002B03D0DF
:1000E8000349044800E000BF10BDC04600000000FE
:1000F800AC000020E837000802B4714649084900FE
:10010800095C49008E4402BC7047C046002243087F
:100118008B4274D303098B425FD3030A8B4244D3C7
:10012800030B8B4228D3030C8B420DD3FF22090209
:1001380012BA030C8B4202D31212090265D0030BC8
:100148008B4219D300E0090AC30B8B4201D3CB03BE
:10015800C01A5241830B8B4201D38B03C01A524100
:10016800430B8B4201D34B03C01A5241030B8B4202
:1001780001D30B03C01A5241C30A8B4201D3CB02ED
:10018800C01A5241830A8B4201D38B02C01A5241D2
:10019800430A8B4201D34B02C01A5241030A8B42D5
:1001A80001D30B02C01A5241CDD2C3098B4201D3ED
:1001B800CB01C01A524183098B4201D38B01C01A6B
:1001C800524143098B4201D34B01C01A52410309E2
:1001D8008B4201D30B01C01A5241C3088B4201D391
:1001E800CB00C01A524183088B4201D38B00C01A3E
:1001F800524143088B4201D34B00C01A5241411A65
:1002080000D20146524110467047FFE701B5002071
:1002180000F0F0F802BDC0460029F7D076E7704735
:1002280003460B437FD4002243088B4274D303094F
:100238008B425FD3030A8B4244D3030B8B4228D3F0
:10024800030C8B420DD3FF22090212BA030C8B4216
:1002580002D31212090265D0030B8B4219D300E0B6
:10026800090AC30B8B4201D3CB03C01A5241830B3B
:100278008B4201D38B03C01A5241430B8B4201D3EB
:100288004B03C01A5241030B8B4201D30B03C01A14
:100298005241C30A8B4201D3CB02C01A5241830A8E
:1002A8008B4201D38B02C01A5241430A8B4201D3BD
:1002B8004B02C01A5241030A8B4201D30B02C01AE7
:1002C8005241CDD2C3098B4201D3CB01C01A52414E
:1002D80083098B4201D38B01C01A524143098B42D7
:1002E80001D34B01C01A524103098B4201D30B01C0
:1002F800C01A5241C3088B4201D3CB00C01A5241E5
:1003080083088B4201D38B00C01A524143088B42A9
:1003180001D34B00C01A5241411A00D20146524142
:10032800104670475DE0CA0F00D04942031000D361
:100338004042534000229C4603098B422DD3030AB6
:100348008B4212D3FC22890112BA030A8B420CD3C6
:10035800890192118B4208D3890192118B4204D3EF
:1003680089013AD0921100E08909C3098B4201D36F
:10037800CB01C01A524183098B4201D38B01C01AA9
:10038800524143098B4201D34B01C01A5241030920
:100398008B4201D30B01C01A5241C3088B4201D3CF
:1003A800CB00C01A524183088B4201D38B00C01A7C
:1003B8005241D9D243088B4201D34B00C01A524153
:1003C800411A00D20146634652415B10104601D3E0
:1003D8004042002B00D54942704763465B1000D36A
:1003E800404201B5002000F005F802BD0029F8D010
:1003F80016E770477047C0460023C25C0133002AE5
:10040800FBD1581E7047000003B4714649084000EC
:100418004900095E49008E4403BC70477047036871
:100428009A69920701D500229A62012299691142BC
:1004380002D199690A439A617047000030B5039C5C
:1004480000682343120489051A43890D054B456842
:100458000A43640D234352009D4352082A434260D5
:1004680030BDC046FF63FF03F7B5150002680E00F4
:10047800916910230F0004001F40002019420DD07D
:100488000700D3610190236820219A690A425FD14D
:10049800002F31D004270120019B1F4380222568AB
:1004A8005200AB69134202D00120EA61074380225F
:1004B800D200134203D0082101200F43EA618022B1
:1004C8009200134249D00223EA611F432000FFF73C
:1004D800A6FF6B68224A012013406B60636C2022E0
:1004E8003B436364230041331A70220000234232E5
:1004F80040341370237032E0721CC5D001F064F8E8
:10050800401BB04201D8002EBDD1220023684232E0
:10051800586811789A69C9B212040BD58022D201A1
:10052800104207D1202905D059680A435A6001F0C2
:100538004BF80500202223689B691342A3D101F0E0
:1005480043F8401B1928F5D92023012701939AE77E
:10055800002F9FD12022DA619CE70028B6D1FEBD8A
:1005680000E800FEF8B504000D0016000227236815
:100578009B693B4201D0002021E032002900200085
:10058800FFF772FF002819D16B1CF0D001F01CF89E
:10059800801BA84201D8002DE9D12368996902235C
:1005A8000A001A401942E2D12021636C0B436364AC
:1005B80023004034413319705A7022700120F8BD6D
:1005C800F8B504000D0017001E0023689B692B4036
:1005D8005B1B5A425341BB4201D0002026E0310048
:1005E8002000069AFFF740FF00281ED1731CECD0AC
:1005F80000F0EAFF069BC01AB04201D8002EE4D1F1
:1006080023689B692B405B1B5A425341BB42DCD198
:100618002022636C13436364230041331A70220061
:10062800002342324034137023700120F8BDF8B51E
:1006380004000E001700202523689B692B4201D077
:1006480000201DE03A0031002000FFF70DFF0028D0
:1006580015D100F0B9FFC01BB04201D8002EEBD174
:1006680023689B691A002A402B42E5D1636C2B430F
:1006780063642300403441331D705A702270012096
:10068800F8BD000070B504000120002C4ED02500F4
:1006980041352B78DAB2002B05D1230040332000F6
:1006A8001A7001F037FB242301212B702368E068BE
:1006B8001A68A6688A431A601D4962680A401A6166
:1006C8009A681C490A409A60012807D180221202C0
:1006D80032439A605A681848024009E0842212029C
:1006E80032439A600228F5D18022586812010243E9
:1006F8005A605868114A02435A60DA6800200A4072
:10070800DA60616922690A43A16909020A43DA6069
:10071800216AE2690A431A60012219680A431A60C9
:10072800202360642B7020634234207070BDC04663
:10073800FFFFFFF0FF7FFFFFFFF7FFFF00800002D2
:10074800F0B5070087B003930CAB029204CB413796
:100758001B88049205933B7804000E000220202B8E
:1007680008D1002A02D0059B002B05D180239B00CD
:100778006364012007B0F0BD230040331A780220DB
:10078800012AF7D001221A7000F01EFF802105000F
:1007980000901923012220000902FFF711FF002809
:1007A800E7D121233B7027001F3342373B70049B5E
:1007B80060646362059B606363856B461A7B4B4B81
:1007C80031000093802320005B04FFF737FE2A00E6
:1007D80020000E99FFF7C6FE002829D1039A236846
:1007E800012A16D16A46127A9A62002280212000D4
:1007F8000E9B0095FFF7E4FE002819D1638DFF2BAF
:100808001AD88023628D9B0492B22285D2B20090BE
:1008180017E0029A2000120A9A620E992A00FFF73E
:10082800A1FE002804D16B4622681B7A9362DCE79C
:100838000023403423709CE7FF22802322855B0439
:10084800009031002000FFF7F9FD2A0020000E99E2
:10085800FFF788FE002800D08BE7636A22681978C2
:10086800013391626362638D228D013B9BB2638584
:10087800013A638D92B22285002B16D0002A14D13A
:10088800802120000E9B0095FFF79AFE002800D0DB
:100898006FE7638DFF2B21D9FF22802322855B041C
:1008A800009031002000FFF7C9FD638D002BCCD1EB
:1008B8002A0020000E99FFF7BAFE002800D058E75A
:1008C800202123680A4DD9615A682A405A602300BA
:1008D800403441331970387020704BE78023628DA3
:1008E8009B0492B22285D2B20090DAE70020008001
:1008F80000E800FEF0B504004134227803000F0040
:100908000220D6B2202A18D11D0040352A78012AA3
:1009180013D0242222701B68233A19680748914390
:100928001960196801400020196019683943196075
:1009380019680A431A6026702870F0BDFFEFFFFFA0
:100948000200F0B5413214780300E5B20220202CF1
:1009580017D11C0040342678012E12D02230107096
:100968001B6823381E68074F86431E601E680902ED
:100978003E4031431960196808431860002015701B
:100988002070F0BDFFF0FFFFF0B5040085B000282F
:1009980002D1012005B0F0BD0368DB0710D423683D
:1009A8009B075CD423681B0700D5C1E023685B075D
:1009B80000D5F2E0E369002B00D079E10020E9E7F7
:1009C8003822AF4DAB681340EA68102B09D1D343E6
:1009D8009B0708D12B689B03E1D56368002BDED108
:1009E800D7E7082BF6D0802263685202934211D1D0
:1009F8002A6813432B6000F0E7FD80270600BF023A
:100A08002B683B42CBD100F0DFFD801B6428F7D96F
:100A18000320BFE7A021C9028B4208D1802329689F
:100A2800DB020B432B602B681A432A60E3E72A6832
:100A380094490A402A602A6893490A402A60002B90
:100A4800D9D100F0C1FD80270600BF022B683B42C8
:100A5800A5D000F0B9FD801B6428F7D9D8E7382263
:100A6800874DAB681340EA68102B28D103210A4050
:100A7800022A26D12A68520503D5E268002A00D145
:100A880087E7696862698148120201400A436A601F
:100A9800002B0CD12B687E4A7E49134022691343F0
:100AA8002B602B687C4A9B045B0FDA400A607B4B07
:100AB800186800F041FD002800D173E769E7002BB2
:100AC800D8D0E368002B20D02B68714A80271340C8
:100AD8002269FF0013432B6080232A685B001343BD
:100AE8002B6000F071FD06002B683B4207D06A6856
:100AF800636966491B020A4013436B6052E700F0C2
:100B080063FD801B0228EFD982E72B68644A80279F
:100B180013402B6000F058FD0600FF002B683B4295
:100B280000D13FE700F050FD801B0228F6D96FE79F
:100B38003822534DAB681340182B08D12B6E9B07F6
:100B480000D433E7A369002B00D02FE721E7A2697F
:100B58000123002A10D02A6E022713432B6600F0C7
:100B680033FD06002B6E3B4200D01FE700F02CFD42
:100B7800801B0228F6D94BE72A6E02279A432A6679
:100B880000F022FD06002B6E3B4200D10EE700F07C
:100B98001BFD801B0228F6D93AE73822384DAB688E
:100BA8001340202B08D1EB6D9B0700D402E7A36804
:100BB800002B00D0FEE6ECE680220021EB6B52050C
:100BC8000091134208D1EB6B1343EB63EB6B1340BB
:100BD8000393039B012300938027324E7F003368E1
:100BE8003B4215D0A368012B22D1EA6D1343EB6574
:100BF80000F0EAFC02270600EB6D3B4238D0009B70
:100C0800012B00D0D6E6EB6B274A1340EB63D1E605
:100C180033683B43336000F0D7FC019033683B42B4
:100C2800E0D100F0D1FC019BC01A0228F6D9EFE60A
:100C3800EA6D052B05D1013B1343EB65EA6D0123F2
:100C4800D4E701218A43EA65EA6D03318A43EA65FC
:100C5800002BCDD100F0B8FC02270600EB6D3B421B
:100C6800CDD000F0B1FC114B801B9842F6D9CFE6ED
:100C780000F0AAFC0D4B801B9842BDD9C8E6C046BF
:100C880000100240FFFFFEFFFFFFFBFFFF80FFFF9A
:100C9800FFC7FFFF000000200024F4000800002028
:100CA800FFFEFFFF00700040FFFFFFEF881300000A
:100CB80038213F4DAA680A40102A51D03D4A022BDC
:100CC80038D12B68802713402B6000F07DFC06008C
:100CD800BF042B683B4227D1616A236AEA680B4349
:100CE800354980260A401343E26AB6041343226B4F
:100CF8001343A26A12021343EB6080232A685B0441
:100D080013432B608023EA685B051343EB6000F014
:100D18005BFC04002B68334200D04FE600F054FC23
:100D2800001B0228F6D973E600F04EFC801B02284F
:100D3800CFD96DE62B68802613402B6000F044FC69
:100D48000400B6042B68334204D1EB681B4A1340F5
:100D5800EB6033E600F038FC001B0228F2D957E6B6
:100D6800012B00D115E60322E868216A02408A4275
:100D780000D00EE67022616A02408A4200D008E67E
:100D8800FE21A26AC90101401202914200D000E688
:100D9800F822E16A920302408A4200D0F9E5236B07
:100DA800400F4007C01A431E9841C0B2F2E5C04642
:100DB80000100240FFFFFFFE8C80C11FFCFFFEEF0A
:100DC800382370B51D4CA2681A4205D123681C4807
:100DD8009B045B0FD84070BDA2681A40082A27D030
:100DE800A2681A40102A17D1E368E168DB43E56876
:100DF8004906490F6F322D0A013115409B0709D169
:100E08001048FFF783F9E1686843490F0131FFF79C
:100E18007DF9E0E70A48F4E7A2681A40202A09D0D9
:100E2800A26800201340182BD5D1FA20C001D2E7C0
:100E38000448D0E780200002CDE7C04600100240F9
:100E48000024F40000127A00F7B504000D00002811
:100E580001D10120FEBD0727484E33683B408B4235
:100E68002AD3226893073BD4D20748D4072733688C
:100E78003B40AB420AD93368BB432B43336000F095
:100E8800A3FB019033683B40AB4268D123683C4DDB
:100E98005B076CD4FFF794FFAB683A491B051B0F3F
:100EA8009B005B581F210B40D840374A374B1060D6
:100EB800186800F041FBCDE73368BB430B43336050
:100EC80000F082FB019033683B40AB42C9D000F090
:100ED8007BFB019BC01A2E4B9842F4D90320B9E73B
:100EE8002749530704D5E0238868DB0103438B6057
:100EF8008B6828480340A06803438B60B4E76068A8
:100F08001F4F032829D8FFF7F7F820021C243B6855
:100F18009B039ED50722BB6893430343BB6000F045
:100F280053FB01903823BA681A406368DB009A4281
:100F38009CD000F049FB019BC01A154B9842F1D98F
:100F4800CCE73B689B01E5D483E73B685B05E1D4CC
:100F58007FE73B6E9B07DDD47BE7FB6DFAE700F08C
:100F680033FB019BC01A0A4B98428BD9B6E7AB6892
:100F7800094A1340E2681343AB608BE70020024044
:100F8800001002401038000800000020080000206F
:100F980088130000FFF0FFFFFF8FFFFFF0B5036825
:100FA800050085B000209B0351D58022484C52058E
:100FB800E36B0090134208D1E36B1343E363E36BE5
:100FC80013400393039B012300938027414E7F0026
:100FD80033683B43336000F0F7FA019033683B42D3
:100FE80027D0E26DC02310009B0069693A4E184073
:100FF8001A4217D0814215D08022E36DE06D1900A6
:1010080052020243E265E26D344831400240E26533
:10101800E165DB0706D500F0D7FA07000222E36D89
:1010280013424DD0E36D6A69334013430020E365F2
:1010380006E000F0C9FA019BC01A0228CED90320A5
:10104800009B012B03D1E36B254A1340E3632A6815
:10105800D30706D503241E494B6DA3436C6823436D
:101068004B65930606D51A491E4C4B6D2340AC6858
:1010780023434B6553040FD515492C694B6D9B00D1
:101088009B0823434B658023DB059C4204D18023C6
:10109800CC685B022343CB6012050FD50C4A124C77
:1010A800536DE96823400B4353658023DB01994264
:1010B80004D18023D1685B020B43D36005B0F0BD37
:1010C80000F082FA094BC01B9842A7D9B7E7C0467F
:1010D8000010024000700040FFFCFFFFFFFFFEFF12
:1010E800FFFFFFEFFFCFFFFFFF3FFFFF8813000069
:1010F8000020054B5A69824205DA044A9A60044A7C
:101108009A605869C00F7047002002402301674564
:10111800AB89EFCDF8B5040000F056FA8027060039
:101128007F02144D2B693B4216D12A69124B1100DC
:101138001248194028611A4217D18027FF022B69EB
:10114800180038403B420FD0631CF8D000F03CFA3E
:10115800801BA042F3D306E0631CE3D000F034FA0E
:10116800801BA042DDD30320F8BD054B0120596048
:10117800FAE7C04600200240FA830000FB83000023
:10118800C4000020F7B5174E0193337804000D0012
:1011980002200092012B1ED00123FA203370002375
:1011A80080007360FFF7B6FF002812D10E4F012CA4
:1011B80012D17B6923437B61009B2B60BFF36F8F48
:1011C800019B6B60FA208000FFF7A4FF7B69A343B3
:1011D8007B6100233370FEBD2800009902F00CFBF0
:1011E800F0E7C046C400002000200240FA2010B5F5
:1011F8008000FFF78FFF8022044B120659690A43CB
:101208005A615869C043C00F10BDC0460020024053
:10121800044A05485369C90003401943034B0B436B
:10122800536170470020024007E0FFFF0200010001
:10123800F7B5214F05003B7802240191012B1AD004
:101248000123FA203B70002380007B60FFF762FFD8
:10125800041E0ED104236B602B68042B0DD1FA20D9
:10126800164A174B516980000B435361FFF752FF31
:10127800040000233B702000FEBD0123019A5B425D
:101288001360AE68AB68EA689B18B3420CD968680B
:101298003100FFF7BDFFFA208000FFF73BFF002871
:1012A80008D00400019B1E600221044A53698B4345
:1012B8005361DEE70136E5E7C40000200020024064
:1012C800040001000023F0B585B00A681400DC4072
:1012D80001D105B0F0BD012514009D402C400094BB
:1012E8002A4200D191E04A685F009446032264468E
:1012F80022400324BC40E4430194541E012C2ED800
:101308008668019C2640CC68BC40344384604468AD
:101318000126AC4325006446240934409C402C43F4
:101328004460C568019C25408C68BC402C43C4605F
:10133800022A16D107250F261D40AD00AE40DC0855
:10134800A40004190294246A03962600039CA64369
:1013580034000E69AE402643029C266201E0032A4F
:10136800DFD1BA400468019D25402A43C0240260A9
:101378006246A402224248D0254A03259C08A400BC
:10138800A4180F221D40ED00AA40A027266EFF05D5
:1013980096430022B8420CD01E4F0132B84208D002
:1013A8001D4F0132B84204D01C4F0332B84200D15D
:1013B800023AAA40674632432266154C009A2668CC
:1013C800009DD2433543FF0201D4350015406746DE
:1013D80025606668009D3543BF0201D4350015407D
:1013E800674665600E4C009DE66F3543BF0301D428
:1013F800350015406746E5670A4C009EE56F2E43A9
:10140800FF0301D415402E00E66701335DE7C046AF
:10141800001802400004005000080050000C005062
:10142800081802400418024000690840431E984109
:10143800C0B27047002A01D0816170478162FCE721
:1014480010B5114C1149236802000B400343236077
:10145800802300209B009A420ED10D4B0D4918683D
:1014680006235843FEF752FE8022431CD2006169CE
:1014780008001040114200D110BD002B01D0013BE3
:10148800F5E70320F8E7C04600700040FFF9FFFFCA
:101498000000002040420F0010B5FF2403220B007B
:1014A80021000240D20091409B012340C943934050
:1014B80000280ADBC0240B4A800880008018A4009A
:1014C80002590A401343035110BD0F221040083837
:1014D800054A800880008018C26911401943C1611B
:1014E800F2E7C04600E100E000ED00E0002805DB7F
:1014F8001F2318401E3B8340014A13607047C046B3
:1015080000E100E08022431E5204012093420DD2E4
:10151800C021074A07485360036A09061B021B0AD1
:101528000B43036200200723906013607047C04696
:1015380010E000E000ED00E070B5104B05001978F0
:10154800002901D1012070BDFA208000FEF7DEFDE0
:101558000B4C01002068FEF7D9FDFFF7D3FF041EEE
:10156800F0D1032DEED80200012029004042FFF7F8
:1015780093FF044B20001D60E5E7C04604000020EF
:1015880000000020080000208023084A5B00116842
:1015980010B50B4303201360FFF7CEFF041E03D1E1
:1015A80000F0A0FB200010BD0124FBE70020024052
:1015B800034A044B11681B785B1813607047C046D8
:1015C800E000002004000020014B18687047C04666
:1015D800E000002070B50400FFF7F6FF0500631C6B
:1015E80002D0044B1B78E418FFF7EEFF401BA04223
:1015F800FAD370BD0400002001000300012010B5DB
:101608003D310C78E2B2844218D1001808701B688A
:10161800D9681143D9600B498B4202D00A498B42E1
:101628000DD19A6809490A40062A06D007398A4224
:1016380003D0012219680A431A60002010BD1968F6
:10164800F9E7C046002C01400004004007000100F3
:101658000121036810B5DA688A43DA601C6A074A10
:10166800144206D11C6A064A144202D11A688A43F7
:101678001A6001233D300370002010BD11111100C4
:10168800440400007047704770477047022203689F
:1016980070B5DD681E69040016420DD015420BD0E6
:1016A800053A1A61043202779B699B0700D17CE0F6
:1016B800FFF7E9FF0023237704231E4212D01D42BF
:1016C80010D00522236852421A61073222779A699C
:1016D800C0239B0020001A4200D16CE0FFF7D3FF23
:1016E8000023237708231E420FD01D420DD0092264
:1016F800236852421A610D322277DB6920009B076A
:101708005FD0FFF7C0FF0023237710231E4211D0BC
:101718001D420FD01122236852421A6119322277D2
:10172800DA69C0239B0020001A4250D0FFF7ABFFB4
:101738000023237701231E4208D01D4206D002222F
:101748002368524220001A6100F0BEF882239B01F0
:101758001E4207D02B0605D52368204A20001A61AF
:1017680000F0AFF8F30507D52B0605D523681C4A0A
:1017780020001A6100F0A6F840231E4208D01D423E
:1017880006D041222368524220001A61FFF77DFFEC
:1017980020231E4208D01D4206D02122236852422F
:1017A80020001A6100F08CF870BDFFF76BFF200075
:1017B800FFF76AFF7EE7FFF765FF2000FFF764FF8A
:1017C8008EE7FFF75FFF2000FFF75EFF9BE7FFF75D
:1017D80059FF2000FFF758FFAAE7C0467FDFFFFF49
:1017E800FFFEFFFF10B51B4C0368A0420AD01A4A3F
:1017F800904207D0194A904209D1194A1A40CB6839
:1018080013430AE0702293434A681343F5E7154AE5
:101818009042F2D0144A9042EFD0802293434A6912
:1018280013438A68C2620A688262A04205D00D4AE0
:10183800904202D00C4A904201D10A690263042204
:1018480001680A43026001224261BFF34F8F0360BF
:1018580010BDC046002C014000040040002000409C
:10186800FFFCFFFF004401400048014070B5040040
:101878000120002C23D025003D352B78DAB2002B2F
:1018880005D123003C3320001A7000F099FA022396
:101898002B702068211DFFF7A5FF220001230020DF
:1018A8004832137047340A3A137053709370D370E8
:1018B800137153719371D371137223702B7070BDB0
:1018C8007047704770470000034B10B5834201D141
:1018D80000F00AFD10BDC046E400002000B593B03A
:1018E8003422002105A801F0FFFA1022002101A8E6
:1018F80001F0FAFA8020C000FFF7A2FD0223059349
:10190800FE3340220893002305A809930A920C93FA
:10191800FFF73AF8002801D072B6FEE707230290D5
:1019280003900490012101A80193FFF78DFA002884
:1019380001D072B6FEE713B000BD0000F0B593B059
:10194800FFF722FEFFF7CAFF142200210DA801F0BD
:10195800CBFA022104268025A02000240327C64BA9
:101968002D025A6BC0050A435A635A6B0A400A9201
:101978000A9A5A6B013932435A635A6B32400B92B6
:101988000B9A5A6B0A435A635B6B00220B400C9309
:1019980029000C9BFFF74EFDB84BB9480D930DABD2
:1019A80019000E970F94FFF78DFCA020B54BC005CA
:1019B8000D930DAB19000E970F94FFF783FC40238E
:1019C800A0200D930DAB1900C0050E940F94FFF7DE
:1019D80079FC01210DABAC480D9119000E940F94C0
:1019E800FFF770FCFF235B000D930DAB1900A648B1
:1019F8000E970F94FFF766FC0121A0200DAB0E9106
:101A0800C00519000D950F941094FFF75BFC9F4FCC
:101A18009F4B01213B609F4B38007B6080239B02DA
:101A2800BC60F9603C617C61BC61FC613B62FEF7B3
:101A380029FEA04201D072B6FEE780213800490194
:101A4800FEF758FF011E01D072B6FEE73800FEF718
:101A580077FF002801D072B6FEE78F4F8F4BB86032
:101A68003B601F237B608E4B3861B8613800FB6098
:101A7800FFF7FCFE041E01D072B6FEE7020001006B
:101A88003000FFF709FD3000FFF730FD220021008C
:101A98001320FFF701FD1320FFF728FDA0202200E7
:101AA8002900C005FFF7C6FC0A20FFF793FDA02018
:101AB80001222900C005FFF7BDFC00F0A1FB7F2033
:101AC80000F086FB00F0F4FCFFF77EFD754B260066
:101AD800186001F0B7F900F06FFC0E2304AA9B18F8
:101AE8001C700F2338009B18089409940D941C70DF
:101AF800FFF782FD05940494039400F0A3FC00F022
:101B0800C1FC00F05DFD012E5BD0674B1B68002B0C
:101B180003D0664B1B68002B0AD100F0D5FB0028C8
:101B280002D1013000F05EFB002301260393E4E7B5
:101B3800039B002B04D1FFF747FD3400049003906A
:101B4800FFF742FD039BC01A594B984210D900F089
:101B5800BBFB002802D0002000F044FBFFF734FD57
:101B68000500FFF731FD401B6328C6D830BFF8E7F2
:101B7800504B984216D900F095FE200000F09AFECE
:101B880000F0DCFFFFF720FD049BC01AFA235B007E
:101B98009842E3D3F23BFF3B01341C40FFF714FDAE
:101BA8000490DBE7059800F06FFE00F0C7FF00F037
:101BB80077FE010005980130FEF718FCCBB20593BB
:101BC800CCE701F00DF80F2304AA9B181A000E2386
:101BD80004A95B18190008A800F018FF002842D1D2
:101BE800314B1B68012B03D1304B1B68012B0BD0E9
:101BF8000F2104A809180E2008AB04AD009309AA08
:101C08000DAB401900F0A6FD2B4D2B68002B23D0FF
:101C18003800FFF71DFD286800F0A0FE00233800FB
:101C28002B60FFF7E9FC00F05FFB1F4B1B68012BE3
:101C38001CD11E4B1B68012B18D10E22002304A9AE
:101C4800521813700F225218137009930D930893AA
:101C580000F02EFC00F072FB0DA909A800F044FD6D
:101C680000F06CFF49E700260396CDE700F03CFB47
:101C78000A20FFF7AFFCD8E70010024040C0000080
:101C880000080050BF1D0000000400503001002073
:101C98000054004033116000E400002000200040A0
:101CA80087130000A8050020A4050020A005002037
:101CB8005FEA0000973A0000D005002072B6FEE700
:101CC800FEE7FEE77047704710B5FFF771FC10BDDF
:101CD8007047000010B50248FFF7D8FC10BDC04699
:101CE800E400002001210A4B82B01A6C0A431A64EE
:101CF8001A6C0A4080210092009ADA6B49050A435F
:101D0800DA63DB6B0B400193019B02B07047C0465E
:101D180000100240F0B504008FB01422002103A87F
:101D280001F0E2F81822002108A801F0DDF8214BA3
:101D380022689A423CD1202308A80893FFF72EF97D
:101D4800002801D0FFF7BAFF022201251A4C80278C
:101D5800636B122613436363636B18481340009345
:101D6800009B636B04322B436363636BBF002B40A0
:101D78000193019B032303A90693079203970496F3
:101D88000595FFF79FFAA0200323062203A9C005A3
:101D980006930792039704960595FFF793FA802216
:101DA800E36B92031343E363E36B13400293029BD9
:101DB8000FB0F0BD00540040001002400004005075
:101DC800084B026882B09A4209D18021064B090269
:101DD8001A6C0A431A641B6C0B400193019B02B0F6
:101DE8007047C04600200040001002400B490C4AD2
:101DF8000300521A0B4910B50868002801D10A4897
:101E080008600868C318934206D901F075F80C23D6
:101E180003600120404210BD0B60FCE70004000095
:101E28000020002084010020800700200D488546FE
:101E3800FEF7F4FA0C480D490D4A002302E0D45885
:101E4800C4500433C4188C42F9D30A4A0A4C0023FC
:101E580001E013600432A242FBD301F053F8FFF70C
:101E68006DFDFEE70020002000000020A8000020F3
:101E7800CC950008A800002080070020FEE700009D
:101E88007FB5172201236A445B4210700293023324
:101E980000927821002201930248FEF751FC07B016
:101EA80000BDC046300100201FB50123064C5B422F
:101EB80089B20293019100904022782120000233D8
:101EC800FEF73EFC1FBDC04630010020431E98416E
:101ED800822210B54142C9B20248D20001F004F88A
:101EE80010BDC0468E01002070B5B024094D2000F9
:101EF800FFF7C6FF0020FFF7C3FF01341020FFF7EC
:101F0800BFFFE4B228008221FFF7CEFF8235B82C4C
:101F1800EDD170BD8E010020030030B581280FD8A7
:101F28003F290DD88220CC0860430724064D214064
:101F3800C018063C8C402B5C012A02D123432B5449
:101F480030BDA343FBE7C0468E010020F0B5040076
:101F58008DB00B9312AB1B7809A807932300203B85
:101F680004936B461B7C09910A925E2B48D8037830
:101F78000393244B03991A8801925218822A3FDC52
:101F880047785B880593DB19402B39DC00260B9BCF
:101F98000693049B7B435B000293B7420DD8069AD5
:101FA800039B002A02D01300049A9B5C0199154AEE
:101FB800CB18138020000DB0F0BD00250A9B029AB3
:101FC8009B5A0893039BAB4204D8029B0136023309
:101FD8000293E2E7019B80225819059B1202F1182F
:101FE800089BC0B2AB40C9B2134204D0079AFFF7AE
:101FF80093FF0135E6E7079B5A425A41D2B2F6E70A
:102008000024D7E78801002030B5040087B0059385
:102018000AAB1D78039104922078002801D107B0FB
:1020280030BD059B0399049A0095FFF78FFF0300C5
:1020380020788342F3D10134EEE70000014B188089
:102048005980704788010020F7B508AC24780194BE
:10205800041C904200D9141CE4B20094061C90425F
:1020680000D2161CF6B20C1C994200D91C1CE4B212
:102078000F1C994200D21F1CFFB2BC4201D83F2C52
:1020880000D9F7BD009D08E0812D08D8280021005F
:10209800019AFFF741FF0135EDB2B542F4D9013499
:1020A800E4B2EAE7F0B504000D00012085B0812A0A
:1020B80025D83F2B23D8A24221D38B421FD32800F7
:1020C80007252840F8352E008640B44607269E434B
:1020D8003541DF0882261F4BC908B9422AD02000A3
:1020E800644671437E43E4B2A446ECB201940C18F2
:1020F800823102961C190391904202D9002005B042
:10210800F0BD66462578039975402570029D270025
:1021180045190E18290082373D78B14205D8019932
:1021280001304D409D550134E6E7ED4382363D7060
:102138008237F1E760464E4305403419EDB2B618D0
:102148001B19A642DAD31A7801346A401A7001338F
:10215800F7E7C0468E010020F0B587B004920DAABB
:10216800127801930CAB0C001B7800900592812823
:102178002CD83F292AD800273D00019ACB180732CE
:10218800D210DBB202920393039B9C421ED000261E
:1021980013E007236D00EDB2184203D1049AC30877
:1021A800D219D55C6BB2002B06DA009B21001818F7
:1021B800059AC0B2FFF7B0FE0136019BF0B29E420D
:1021C800E7D1029B0134E4B2FF18DDE707B0F0BDA8
:1021D80010B504008120FFF753FE2000FFF750FEE2
:1021E80010BD0000030010B5AE20002B01D0012364
:1021F800C018024A5371FFF743FE10BD8801002042
:1022080010B56420FFF7E6F90020FFF7EBFF202068
:10221800FFF736FE0020FFF733FEB020FFF730FE51
:10222800C020FFF72DFE0020FFF72AFE1020FFF741
:1022380027FE4020FFF724FEFF20FFF7C9FFA0205C
:10224800FFF71EFEA620FFF71BFEA820FFF718FECB
:102258003F20FFF715FEA420FFF712FED320FFF75B
:102268000FFE0020FFF70CFED520FFF709FEF02037
:10227800FFF706FED920FFF703FE2220FFF700FE36
:10228800DA20FFF7FDFD1220FFF7FAFDDB20FFF74C
:10229800F7FD2020FFF7F4FD8D20FFF7F1FD142056
:1022A800FFF7EEFD0120FFF79DFF0020FFF70EFE70
:1022B800FFF71AFE0022034B1A805A8001321A7166
:1022C80010BDC04688010020014B58797047C046B0
:1022D8008801002010B5002803D0A720FFF7D0FD03
:1022E80010BDA620FAE70000A02010B54021C005C7
:1022F800FFF79AF842425041054B01211860054802
:10230800FFF792F842425041034B186010BDC04697
:10231800A405002000040050A005002042680368BE
:102328005340427B1204534082685340027B024868
:1023380012025340584070477856341230B5184D41
:1023480087B02800FFF7EAFF2861FEF7D1FE0223D5
:1023580002931D33049301A91E3B02A80593002490
:10236800FEF766FF0F492B19611801201A685B6890
:102378000834FEF707FF182CF4D1FEF737FFFFF7F4
:1023880023F90022084B1860084B1A70084B0132D9
:102398001A70FFF719F9074B186007B030BDC0462F
:1023A800B405002000F80008A8050020B1050020A9
:1023B800B0050020AC05002030B5124B87B00CCB1F
:1023C8000293114B01920CCB0493104B03921D689E
:1023D80001AC5B68200006930595FFF79FFF0C4B47
:1023E800A84208D1013006D023CC23C31A000ACC56
:1023F8000AC207B030BD00221A605A609A609A81FA
:102408001A61F6E700F8000808F8000810F8000854
:10241800B405002010B5FFF7D7F8632802D8642068
:10242800FFF7D8F80022064B1A605A609A6001320A
:10243800FF329A8100F03CF8FFF780FF10BDC046DC
:10244800B405002010B5074B1B78002B09D0FFF707
:10245800BBF8054B1B68C01A044B984201D9FFF71B
:102468006DFF10BDB1050020A80500202F750000E4
:1024780010B5034B1B78002B01D0FFF75FFF10BD91
:10248800B105002010B5084C2378002B0AD0FFF7BF
:102498009BF8064B1B68C01AFA23DB00984201D34D
:1024A8000023237010BDC046B0050020AC050020F5
:1024B800502210B50021054800F016FD0023044AFB
:1024C8001370044A1380044A136010BDE00500200D
:1024D800DC050020D4050020D805002010B5FFF742
:1024E80073F80C4B1A880C4B592A05D90B4A106003
:1024F80001221A70187810BD19780029FAD04F2ACD
:10250800F8D8064A1268801AFA2252009042F1D38B
:102518000022EEE7D4050020CC050020D8050020D5
:10252800F8B5FFF751F80023FA2601000200180059
:102538000F4DB6009C002C59002C06D00F1BB7423B
:1025480003D80130A24200D922000133142BF1D163
:102558000023012808DD8A4206D2064B0138584379
:10256800891AFDF7D3FD83B2034A1380F8BDC0462C
:10257800E005002010270000D4050020F8B5FFF77B
:1025880023F80D4E05003478142120001330FDF790
:102598002DFF0A4F8900CB59002B02D0EB1A132BC1
:1025A80006D9A3001421FD50601CFDF71FFF3170F0
:1025B800FFF7B6FFF8BDC046DC050020E0050020A7
:1025C80070B5FFF701F8054D04002B68C31A632B9B
:1025D80002D9FFF7A5FF2C6070BDC046C8050020D2
:1025E80070B5254C23685A1C01D00133236000289C
:1025F8001ED063685A1C01D00133636001261F4B4B
:102608001E70FFF7BBFF1E4D2B68002B0FD12468EF
:10261800002C0CD0FA22920094420FD2194A1A497F
:102628006243F24191425B41DBB2002B1BD170BD8A
:10263800A3685A1CE2D00133A360DFE7134A94422F
:1026480005D803210F4A6243CA411149EAE7114BF1
:102658009C420AD810492000FDF7DEFD4B42594143
:10266800C9B20029E3D02C60E1E70C4B9C4201D8A9
:102678000B49F0E70B49EEE7B4050020B10500204F
:10268800D0050020D578E926DD2406010F270000B3
:10269800378941009F860100102700003F420F0044
:1026A800A086010040420F0013B504000020FFF788
:1026B8000DFC0123002101933F3300932200080001
:1026C8004033FFF749FD014B1C6013BD3006002065
:1026D800012307B5002101933F330200009308004E
:1026E8004033FFF739FD07BD036870B505000C00DE
:1026F800002B10DC00262368002B16DDFEF764FF94
:102708002368C01AC82810D9002323600E4B186804
:10271800FFF7CAFF0BE0FEF757FF2B68C01AC8285F
:10272800E8D9002301262B60E5E7002EEED12B68BF
:10273800002B02DD0548FFF7CBFF2368002B02DDE5
:102748000348FFF7C5FF70BD30060020C4690008C4
:10275800C4650008F7B5160000221F00089B050095
:102768001A600C00FFF7BAFE3D4A03001268002AFF
:102778002ED13C4A1268002A4FD12A7821781000BD
:10278800084302D04A40012A21D13748002B00D003
:102798003648FFF789FF23780193002B08D1344886
:1027A800FFF796FFFEF710FF38600198FFF718FF54
:1027B8002B78002B08D12F48FFF78AFFFEF704FF7C
:1027C80030600120FFF70CFF012323702B70F7BD49
:1027D800012AFCD1234A1268002AF8D12278002A5B
:1027E80002D02A78012A13D12348002B00D023488D
:1027F800FFF75AFF2678002E08D11D48FFF768FF1B
:10280800FEF7E2FE38603000FFF7EAFE012323708E
:102818002B78002BDBD00023D8E7012AD7D12A78E0
:10282800002A02D02278012A13D11548002B00D0A3
:102838001448FFF739FF2B78002B08D10D48FFF714
:1028480047FFFEF7C1FE30600120FFF7C9FE0123F4
:102858002B702378002BBAD000232370B7E7C0462B
:10286800A4050020A0050020C4750008C461000864
:10287800C4650008C4690008C46D0008C455000890
:10288800C4710008C459000810B50521FDF7AEFD54
:10289800024C89000859FFF707FF10BD0C00002003
:1028A8000520704710B50248FFF7FEFE10BDC04670
:1028B800C479000873B50326264C274D0640022E1E
:1028C8001FD0032E37D0012E0AD01E216C20FFF70F
:1028D800B5FB0123009328000ECCFFF795FB73BDD1
:1028E80016216C20FFF7AAFB216828006268A368FC
:1028F8000096FFF789FB1E216420FFF79FFB0096D7
:10290800E9E701260E216C20FFF798FB6268A368AF
:10291800216828000096FFF777FB16216420FFF74F
:102928008DFB216828006268A3680096FFF76CFB9E
:102938001E215C20E1E701260E216420FFF77EFBC3
:10294800216828006268A3680096FFF75DFB1621DE
:10295800EFE7C0465C38000808550008F0B589B0B4
:102968000200274905A800F09DFA0B2405A8FDF7E9
:1029780043FD6442030044430B2003252A275843A0
:1029880080346410E4B202302018C3B20393A31E4B
:10299800DBB202931B4E013D3000FFF785FE00239A
:1029A800039A1421029800933B00FFF74DFB162170
:1029B8002000FFF743FB0122134B009205A80ECB22
:1029C800FFF722FBFFF790FAFA20FEF703FE3B0021
:1029D8001421039A0298FFF765FBFFF785FA642034
:1029E800FEF7F8FD002DD5D13000FFF75DFEFFF7AB
:1029F8007BFA96204000FEF7EDFD09B0F0BDC04619
:102A08000A550008C4910008503800081A4B70B5E0
:102A18001B6804000E001500012B01D0002070BDBA
:102A2800164B1B68012BF9D1FFF758FD144B0028F2
:102A380000D0144B1800FFF737FE2368002B02D193
:102A4800FEF7C2FD2060FEF7BFFDFA222368D20020
:102A5800C01A0023904204D32360FFF709FD012028
:102A6800DDE73278002A00D033702B78002BD5D0E0
:102A780000232B70D2E7C046A4050020A005002043
:102A8800C4910008C45D000870B51D4B8AB01A686F
:102A98001C4902A800F006FA01210220FFF7CEFA2D
:102AA8000123194C00932168A368626802A8FFF704
:102AB800ABFA164B1E88012E15D90A213000FDF7F6
:102AC80025FB85B2632E10D92A00114902A800F00F
:102AD800E9F901215F20FFF7B1FA012302A8009369
:102AE8000ECCFFF791FA0AB070BD30000A21FDF74D
:102AF80093FB2A008BB202A8064900F0D3F9E8E755
:102B0800B40500200F55000868380008D4050020D7
:102B1800165500081355000807B534215020FFF753
:102B28008DFA0122034B009203480ECBFFF76CFA93
:102B380007BDC046683800081B55000810B5074B8C
:102B48005B7B002B01D0FFF79FFF054B1B78002B09
:102B580001D0FFF7E1FFFFF7C7F910BDB40500206A
:102B6800B0050020044B10B51868002803D0FFF703
:102B78009BFDFFF7E3FF10BD3006002010B5164B94
:102B88000124187B42425041C0B21873FFF7A2FBE0
:102B9800124B20001C70FFF799F9FFF7A5F93220B6
:102BA800FEF718FD0020FFF791F9FFF79DF9322095
:102BB800FEF710FD2000FFF789F9FFF795F932209D
:102BC800FEF708FD0020FFF781F9FFF78DF93220A5
:102BD800FEF700FD10BDC046B4050020B105002079
:102BE800144A154B70B51B681568144C1D431DD14C
:102BF8002368002B04D1FEF7E7FC2060002070BD9D
:102C0800FEF7E2FC2368C01A0D4B9842F6D90D4A2C
:102C1800537B256059424B41012453730A4B1C7066
:102C2800FFF7A0FFFFF724FC2000E8E7002323605C
:102C3800E4E7C046A4050020A005002034060020D3
:102C4800C3090000B4050020B1050020F0B5012536
:102C580085B00A211B20FFF7F1F9424C424862680F
:102C6800A36821680095FFF7CFF91A211B20FFF709
:102C7800E5F96268A36821683C480095FFF7C4F944
:102C88002A211B20FFF7DAF921686268A36838480F
:102C98000095FFF7B9F9FFF727F9364E3368012B8E
:102CA8001DD0FEF791FC0390FEF78EFC039BC01A23
:102CB800314B98421DD90020FFF708F91921282027
:102CC800FFF7BCF901232D4800930ECCFFF79CF9C0
:102CD800FFF70AF9FA208000FEF77CFC22E0284B77
:102CE8001B68002BDDD10A20FEF774FCFFF7FCFA05
:102CF800D3E7FFF7F9FA33680293012B03D1204F8A
:102D08003D68002D15D06420FEF764FCCCE70A204E
:102D1800FEF760FCFFF7E8FA3368012B02D13B6845
:102D2800002BF4D00020FFF7D1F8FFF7DDF805B04D
:102D3800F0BDFFF76FFB2800FFF7CCFA2800FFF77C
:102D4800C5F814212320FFF779F9029B0D48009359
:102D58000ECCFFF759F9FFF7C7F8FA208000FEF705
:102D680039FCD9E768380008225500082D550008B5
:102D780039550008A40500200F2700004455000815
:102D8800A00500204E55000837B501250A21052069
:102D9800FFF754F9254C26486268A3682168009516
:102DA800FFF732F915210D20FFF748F9216862680D
:102DB800A36820480095FFF727F928210D20FFF781
:102DC8003DF90ECC1C480095FFF71EF9FFF78CF86B
:102DD8001A4C2368002B09D1194B1B68012B0BD8FF
:102DE8000A20FEF7F7FBFFF77FFAF1E7012B03D183
:102DF800134B1B68002BF3D0FFF776FA2368012BDF
:102E080009D10F4B1B68002B0BD10020FFF75EF890
:102E1800FFF76AF837BD002B03D1094B1B68012B5C
:102E2800F3D96420FEF7D6FBE6E7C0466838000809
:102E3800585500086D5500087F550008A405002066
:102E4800A005002070B5FFF74FFA144C2368002B3B
:102E580003D02368012B19D070BD114D2B68002BAE
:102E680002D1FFF791FFF7E7012BF5D1FFF786FEB7
:102E7800FFF7FEFA2368002BEBD12B68012BEBD16F
:102E88000A20FEF7A7FBFFF72FFAF3E7044B1B68AE
:102E9800002BE1D1FFF7DAFEDEE7C046A4050020EB
:102EA800A00500200EB410B500240C499DB01FAB3E
:102EB800029006900791049109480A4904CB0591AC
:102EC800006802A901931B9400F0A8F9029B1C70EA
:102ED8001DB010BC08BC03B01847C046FFFFFF7FF9
:102EE800200000200802FFFF03008218934200D14F
:102EF800704719700133F9E7014B18687047C046ED
:102F08002000002070B500260C4C0D4D641BA41049
:102F1800A64209D1002600F063FC0A4C0A4D641B46
:102F2800A410A64205D170BDB300EB5898470136EE
:102F3800EEE7B300EB5898470136F2E7C49500086E
:102F4800C4950008C8950008C495000870477047E4
:102F5800002310B59A4200D110BDCC5CC454013393
:102F6800F8E7000070B505000C1E10D0043C23687B
:102F7800002B00DAE418280000F0E0F81D4A136876
:102F8800002B05D163601460280000F0DFF870BDE5
:102F9800A34208D9206821188B42F3D119685B68CD
:102FA80009182160EEE71A005B68002B01D0A342E4
:102FB800F9D911685018A0420BD120680918501887
:102FC80011608342E0D118685B6841181160536052
:102FD800DAE7A04202D90C232B60D5E72068211834
:102FE8008B4203D119685B680918216063605460DB
:102FF800CAE7C0467C07002070B50F4E0D00316847
:103008000400002902D100F095FB3060290020005F
:1030180000F090FB431C03D101256D42280070BDD0
:103028000323C51C9D43A842F8D0291A200000F0AC
:1030380081FB0130F2D1EFE778070020F7B50322D2
:10304800CB1C9343083305001F000C2B34D20C27EC
:10305800B94233D8280000F071F8374E33681C00A5
:10306800002C2FD139002800FFF7C6FF0400431CAD
:103078005FD134680094009B002B4AD1002C52D0B9
:1030880023682800E3180099019300F053FB019B83
:10309800834248D123682800FF1A3900FFF7ACFFA4
:1030A800013040D02368DB19236033685A68002A4E
:1030B80033D1009B336019E0002BC9DA0C232B6055
:1030C8000020FEBD2168C91B20D40B290AD9E219AA
:1030D8002760A34204D1326063681160536005E041
:1030E8005A60F9E76268A3420ED13260280000F006
:1030F8002DF8200007220B30231D9043C21A984256
:10310800DFD01B1AA350DCE75A60EFE7230064689E
:10311800A6E7009C63680093ADE71A005B68A342CA
:10312800FBD10023DAE70C2328002B6000F00EF80F
:10313800C6E70760DAE7C0467C07002010B50248FA
:10314800FFF704FF10BDC0467407002010B5024801
:10315800FFF7FDFE10BDC04674070020F0B58E686D
:1031680085B01F000C000B6802900392BE4230D855
:103178000C21625E9021C9000A4228D003202169EF
:103188005B1A0193636943430198DD0FED187B1CBB
:103198001B186D10AB4200D91D00520528D5290017
:1031A8000298FFF74BFF061E2CD0019A2169FFF702
:1031B800CFFEA289184B1A4080231343A381019B99
:1031C8002661F61826603E006561ED1AA560BE42CC
:1031D80000D93E0032000399206800F099FA0020D7
:1031E800A3689B1BA36023689B19236005B0F0BDEF
:1031F8002A00029800F0BBFA061EE0D12169029865
:10320800FFF7B0FE0C230120029A40421360A28906
:1032180034331343A381E9E77FFBFFFFF0B5A1B087
:1032280003901D008B890F0016001B0611D50B6932
:10323800002B0ED14021FFF701FF386038610028CC
:1032480005D10C23039A136001204042CFE04023AC
:103258007B61002308AC6361203363761033A37667
:10326800079535002B78002B01D0252B48D1AB1BB7
:103278000593B5420BD0320039000398FFF76EFF73
:10328800013000D1AEE06369059A9B1863612B7821
:10329800002B00D1A6E0012200235242626004A95B
:1032A800543252186E1C2360E360A3601370A36548
:1032B800544B052218003178059300F04DFA751C1F
:1032C80000281FD12268D30604D5532304A95B180C
:1032D80020211970130704D5532304A95B182B2147
:1032E800197033782A2B16D0350000210A20E3689C
:1032F8002A786E1C303A092A50D9002911D117E0D2
:103308000135AFE7059B2268C01A012383401343A8
:103318002E002360CCE7079B191D1B680791002B23
:1033280001DB0B9304E05B42E36002231343236059
:103338002B782E2B0CD16B782A2B34D1079B023596
:103348001A1D1B680792002B01DA01235B420993BF
:103358002D4E03223000297800F0FEF9002806D00F
:103368004023801B8340226801351343236029785A
:10337800062226486E1C217600F0EEF9002838D087
:10338800234B002B22D10722079B07339343083393
:1033980007936369049A9B18636162E743433500A6
:1033A80001219B18A4E700230A2019000135636056
:1033B8002A786E1C303A092A03D9002BC8D0099103
:1033C800C6E74143350001238918F1E707AA0092AF
:1033D80021003A000F4B039800E000BF0490049BC3
:1033E8000133D6D1BB890D985B0600D52CE721B0F7
:1033F800F0BD07AA009221003A00064B039800F09E
:103408007BF8EBE791550008975500089B55000895
:103418000000000065310008F7B5160001938A68BE
:103428000B690C000090934200DA1300220033600D
:1034380043321278002A01D00133336023689B0697
:1034480002D53368023333602268062315001D4015
:103458001A4227D0230043331B785A1E934122680F
:10346800920630D4220001990098089D4332A8475B
:10347800013025D00622236800251340042B05D1EE
:103488003368E568ED1AEB43DB171D40A368226932
:10349800934201DD9B1AED180026B54220D1002089
:1034A80010E00135E36832689B1AAB42D2DD220096
:1034B800012301990098089F1932B8470130F0D1CB
:1034C80001204042FEBD3020E11843310870210040
:1034D8005A1C45310978A218433202331170C1E7EA
:1034E8002200012301990098089F1A32B847013039
:1034F800E6D00136D1E70000F0B58BB006920A009D
:1035080043320793059003920A7E0C00109B782A99
:1035180009D8622A0BD8002A00D1BAE07A49049166
:10352800582A00D18EE0250042352A7022E010008A
:1035380063381528F7D8FCF767FF16001F00F6FF59
:10354800F6FFF6FFF6FF1F00F6FFF6FFF6FFF6FFA1
:103558009F0036007E00F6FFF6FFB000F6FF36004B
:10356800F6FFF6FF820025001A684235111D196022
:1035780013682B7001239EE018680968021D0D0668
:103588000BD506681A60002E03DA2D23039A7642BB
:1035980013705D4B0A27049318E006681A60490601
:1035A800F1D536B2EFE70868196840C9050602D4B4
:1035B800400600D5B6B21960534B0A2704936F2A08
:1035C80000D1023F2300002243331A706368A360CE
:1035D800002B06DB04212268039D8A4322603343C3
:1035E8000CD0039D30003900FCF716FE049B013D0A
:1035F8005B5C2B70330006009F42F3D9082F09D17A
:103608002368DB0706D5626823699A4202DC302307
:10361800013D2B70039B5B1B2361079B21000093DB
:103628000598069B09AAFFF7F7FE013048D101204B
:1036380040420BB0F0BD202209680A43226078227C
:1036480032490491210045310A701968226840C93D
:10365800100602D4500600D5B6B21960D30702D5B9
:10366800202313432360002E01D01027AAE720222D
:10367800236893432360F8E71A680D68101D4969A9
:10368800186013682E0601D5196002E06D06FBD597
:1036980019800023039D2361BFE71A68111D196073
:1036A800156800212800626800F056F8002801D04B
:1036B800401B6060636823610023039A1370ACE7C2
:1036C8002A00236906990598079DA8470130AED0BE
:1036D80023689B0715D4099BE0689842A9DA18006B
:1036E800A7E72200012306990598079E1932B047DB
:1036F80001309CD00135E368099A9B1AAB42F0DC93
:10370800E9E70025F7E7C046A2550008B3550008C9
:1037180010B5884202D98B18984208D300239A42E0
:1037280007D0CC5CC4540133F9E78B5C8354013A6D
:10373800FBD210BD002370B5064D040008002B60B5
:10374800FEF754FB431C03D12B68002B00D02360E9
:1037580070BDC04670070020C9B28218904201D1DE
:103768000020704703788B42FBD00130F6E7F7B5AD
:1037780006000C001500002905D11100FFF75EFCBA
:1037880004002000FEBD002A03D1FFF7EBFB2C004C
:10379800F7E700F01CF80700854202D84308AB425F
:1037A800EFD329003000FFF749FC0190002801D130
:1037B800019CE6E72A00BD4200D93A0021000198A1
:1037C800FFF7C6FB21003000FFF7CCFBF0E70B1F2B
:1037D8001B68181F002B01DA0B58C018704700002F
:1037E800F8B5C046F8BC08BC9E467047F8B5C04658
:1037F800F8BC08BC9E46704701B40248844601BC28
:08380800604700BF71000020C1
:1038100000000000000000000000000000000000A8
:103820000000000000000000000000000000000098
:10383000010000000200000003000000040000007E
:10384000060000000700000008000000090000005A
:103850000B120000AC470008000000000608000042
:10386000BC410008000000000B0C0000D438000828
:10387000743800080403050908090805050506064B
:1038800004050306070607070707070707070404D9
:10389000050605060A0807070807070809060807B6
:1038A000070A0909060A07080808080B0807080597
:1038B00007050707070607060706060607040506A5
:1038C0000409060606060606060606080706060595
:1038D00005050700000000000000000000000000D7
:1038E00000000000000000000000000000000020B8
:1038F0000020002000200020002000000020000008
:10390000000000000000002800280028000000003F
:10391000000000000000000000000000000000099E
:103920000009807F00120012807F00240024000024
:10393000000000000008001E002800280028001CCD
:10394000000A000A003C0008000800000000003ADD
:10395000002E003C00040008000F001500170000B6
:10396000000000000000000C001400180038006A7D
:1039700000460044003A0000000000000000002063
:1039800000200020000000000000000000000000F7
:1039900000000000000000080010002000200020AF
:1039A000002000200020001000080000000000405F
:1039B0000020001000100010001000100010002067
:1039C0000040000000000010007C0038006800008B
:1039D00000000000000000000000000000000000E7
:1039E000000000100010007C00100010000000001B
:1039F00000000000000000000000000000000000C7
:103A00000000000000200040000000000000000056
:103A10000000000000000000007000000000000036
:103A20000000000000000000000000000000000096
:103A30000000000000200000000000000008000856
:103A40000010001000200020004000400000000096
:103A500000000000000000180024002400240024BE
:103A600000240024001800000000000000000010E6
:103A7000003000100010001000100010003800008E
:103A800000000000000000180024000400040018DA
:103A900000200020003C0000000000000000003872
:103AA0000044000400180004000400440038000032
:103AB0000000000000000004000C001400140024AA
:103AC000007E00040004000000000000003C002014
:103AD0000038002400040004002400380000000026
:103AE0000000000000000008001000100038002452
:103AF000002400240018000000000000007E0004E4
:103B00000008000800100010001000200000000055
:103B100000000000001800240024001800240024E5
:103B20000024001800000000000000000000001841
:103B3000002400240024001C0008000800100000DD
:103B40000000000000000000000000000020000055
:103B50000000002000000000000000000000000045
:103B600000000000002000000000000000200040D5
:103B70000000000000000000000000000010002015
:103B800000600010000000000000000000000000C5
:103B900000000000003800000000003800000000B5
:103BA00000000000000000000000004000200010A5
:103BB0000020004000000000000000000000007035
:103BC0000008000800100010002000000020000085
:103BD000000000000000001E0021804C8054005FA7
:103BE00000400021001E000000000000000000084E
:103BF000000800140014003C0024004200420000B1
:103C000000000000000000780044004400440078F8
:103C10000044004400780000000000000000001C88
:103C20000024002000400040004000440038000014
:103C30000000000000000060005800440042004204
:103C40000042004400780000000000000000007CFA
:103C500000400040007C004000400040007C00002C
:103C6000000000000000003E00200020003C00207A
:103C70000020002000200000000000000000000CD8
:103C8000001200200040005E0042004400380000A6
:103C90000000000000000021002100210021003F61
:103CA0000021002100210000000000000000003879
:103CB000001000100010001000100010003800006C
:103CC000000000000000001F0004000400040004C5
:103CD00000240024001C000000000000000000443C
:103CE00000480050006000600050004800440000A0
:103CF0000000000000000020002000200020002024
:103D000000200020003C0000000000000000001225
:103D100000120012002B002D002D80648044000052
:103D2000000000000000008200C200A200A2009279
:103D3000008A008600820000000000000000001ED3
:103D4000002100410041004100410042003C0000D0
:103D500000000000000000700048004800480070AB
:103D60000040004000400000000000000000001E75
:103D7000002180408040804080448023001F00015B
:103D800080000000007000480044004400480070BB
:103D90000048004400000000000000000000001E79
:103DA00000200020001C000200020042003C000035
:103DB00000000000007F000800080008000800085C
:103DC00000080008000000000000000000000022C1
:103DD000002200220022002200220022001C0000FB
:103DE0000000000000000022002200220014001445
:103DF000001400140008000000000000000020442F
:103E00004044402A402A802A802A80120011000063
:103E1000000000000000004100220014000800081B
:103E200000140022004100000000000000000042D9
:103E300000240024001400180008001000100000E6
:103E4000000000000000007E0004000800100010C8
:103E500000200040007E000000000000003800202C
:103E6000002000200020002000200020002000383A
:103E700000000000000000000040002000200020A2
:103E80000010001000080008000000000070001082
:103E90000010001000100010001000100010007042
:103EA000000000000000003000300048000000006A
:103EB0000000000000000000000000000000000002
:103EC00000000000000000000000000000000000F2
:103ED000007E000000000040002000000000000004
:103EE00000000000000000000000000000000000D2
:103EF000000000000038004800480048003400007E
:103F000000000000000000800080008000E00090C1
:103F10000090009000E000000000000000000000A1
:103F20000000000000380048004000480030000059
:103F300000000000000000080008000800380048E9
:103F400000480048003800000000000000000000A9
:103F50000000000000300048007000480030000001
:103F60000000000000000018002000200070002069
:103F700000200020002000000000000000000000E1
:103F800000000000003800480048004800380008E1
:103F900000080070000000800080008000A000D0B9
:103FA0000090009000900000000000000000000061
:103FB0000020000000200020002000200020000041
:103FC0000000000000000000002000000020002091
:103FD000002000200020002000A000600000004021
:103FE00000400040004800500070005000480000B1
:103FF0000000000000000020002000200020002021
:104000000020002000200000000000000000000050
:104010000000000000B600DA00920092009200005A
:1040200000000000000000000000000000A000D020
:1040300000900090009000000000000000000000D0
:104040000000000000600090009000900060000000
:1040500000000000000000000000000000700048A8
:104060000048004800700040004000400000000090
:1040700000000038004800480048003800080008E8
:1040800000080000000000000000000000380028C8
:1040900000200020002000000000000000000000C0
:1040A00000000000003800400030000800700000F0
:1040B0000000000000000000002000200070002030
:1040C0000020002000200000000000000000000090
:1040D0000000000000480048004800480038000088
:1040E0000000000000000000000000000048004840
:1040F0000048003000300000000000000000000018
:104100000000000000490049005A005A0024000045
:104110000000000000000000000000000044002833
:104120000010002800440000000000000000000013
:1041300000000000004400280028001000100010BB
:1041400000200020000000000000000000780010A7
:104150000010002000780000000000000000003087
:10416000002000200020002000600020002000200F
:10417000001000000000002000200020002000208F
:10418000002000200020002000200000000000602F
:10419000002000200020002000300020002000200F
:1041A0000040000000000000000000000024005457
:1041B00000480000000000000000000000000000B7
:1041C00000000000000000000000000000200020AF
:1041D00000200020002000000020000000500050BF
:1041E00000500000000000000000000000500050DF
:1041F00000F8005000F80050005000000020007847
:1042000000A00070002800F00020000000C000C8DE
:10421000001000200040009800180000004000A09E
:1042200000A0004000A800900068000000300030AE
:1042300000200040000000000000000000100020EE
:10424000004000400040002000100000004000201E
:10425000001000100010002000400000002000A806
:10426000007000F8007000A800200000000000208E
:10427000002000F8002000200000000000000000E6
:1042800000000000003000300020000000000000AE
:10429000000000F800000000000000000000000026
:1042A00000000000000000300030000000000008A6
:1042B0000010002000400080000000000070008816
:1042C000009800A800C8008800700000002000606E
:1042D00000200020002000200070000000700088F6
:1042E000000800700080008000F8000000F800085E
:1042F000001000300008008800700000001000303E
:104300000050009000F800100010000000F800803D
:1043100000F000080008008800700000003800402D
:10432000008000F0008800880070000000F800089D
:10433000000800100020004000800000007000888D
:1043400000880070008800880070000000700088FD
:10435000008800780008001000E000000000000065
:10436000002000000020000000000000000000000D
:104370000020000000200020004000000008001085
:104380000020004000200010000800000000000095
:1043900000F8000000F800000000000000400020CD
:1043A000001000080010002000400000007000888D
:1043B000000800300020000000200000007000888D
:1043C00000A800B800B00080007800000020005075
:1043D0000088008800F800880088000000F000884D
:1043E000008800F00088008800F00000007000885D
:1043F00000800080008000880070000000F00088CD
:10440000008800880088008800F0000000F8008024
:10441000008000F00080008000F8000000F80080BC
:10442000008000F00080008000800000007800889C
:1044300000800080009800880078000000880088D4
:10444000008800F8008800880088000000700020C4
:104450000020002000200020007000000038001024
:104460000010001000100090006000000088009014
:1044700000A000C000A00090008800000080008024
:10448000008000800080008000F80000008800D8D4
:1044900000A800A800A80088008800000088008804
:1044A00000C800A8009800880088000000700088FC
:1044B00000880088008800880070000000F00088F4
:1044C000008800F0008000800080000000700088FC
:1044D0000088008800A800900068000000F00088B4
:1044E000008800F000A000900088000000700088A4
:1044F00000800070000800880070000000F800A82C
:1045000000200020002000200020000000880088FB
:1045100000880088008800880070000000880088FB
:104520000088008800880050002000000088008873
:10453000008800A800A800A800500000008800889B
:10454000005000200050008800880000008800888B
:1045500000500020002000200020000000F800088B
:10456000001000700040008000F80000007800405B
:104570000040004000400040007800000000008043
:104580000040002000100008000000000078000833
:104590000008000800080008007800000020005013
:1045A0000088000000000000000000000000000083
:1045B000000000000000000000F800000060006043
:1045C00000200010000000000000000000000000BB
:1045D00000600010007000900078000000800080F3
:1045E00000B000C8008800C800B000000000000053
:1045F000007000880080008800700000000800083B
:104600000068009800880098006800000000000022
:104610000070008800F80080007000000010002882
:10462000002000700020002000200000000000009A
:10463000007000980098006800080000008000806A
:1046400000B000C80088008800880000002000003A
:10465000006000200020002000700000001000001A
:10466000001000100010009000600000008000802A
:10467000009000A000C000A000900000006000209A
:10468000002000200020002000700000000000003A
:1046900000D000A800A800A800A8000000000000AA
:1046A00000B000C8008800880088000000000000FA
:1046B0000070008800880088007000000000000082
:1046C00000B000C800C800B000800000000000007A
:1046D00000680098009800680008000000000000D2
:1046E00000B000C8008000800080000000000000D2
:1046F000007800800070000800F00000002000201A
:1047000000F8002000200028001000000000000039
:104710000088008800880098006800000000000001
:104720000088008800880050002000000000000081
:104730000088008800A800A80050000000000000C9
:104740000088005000200050008800000000000099
:104750000088008800780008008800000000000041
:1047600000F800100020004000F8000000100020B9
:104770000020004000200020001000000020002049
:104780000020000000200020002000000040002049
:10479000002000100020002000400000004000A881
:1047A00000100000000000000000000000000000F9
:1047B00000000000000000000000000000000000F9
:1047C00000000000000000000000000000000000E9
:1047D0000000000C000C000C000C000C000C000C85
:1047E000000C000C000C000C0000000C000C000081
:1047F000000000000000001B001B001B001B001B32
:1048000000000000000000000000000000000000A8
:1048100000000000000000000000801980198019CD
:104820008019C07FC07F80190033C07FC07F0033F4
:104830000033003300330000000000000000001EC1
:10484000003F807580650074003C001E00078005F5
:10485000806580658075003F001E00040004000034
:104860000000007000D840D8C0D880D9007300067E
:10487000000C801BC036C066C046C0068003000026
:10488000000000000000001E003F00330033003332
:10489000001E000CC03CC066806380618063C03E27
:1048A000801C0000000000000000000C000C000C48
:1048B000000C000C000000000000000000000000E0
:1048C0000000000000000000000000008000000167
:1048D0000003000600060004000C000C000C000C95
:1048E000000C000C0004000600060003000180001C
:1048F000002000100018000C000C00040006000648
:1049000000060006000600060004000C000C00185B
:10491000001000200000000C002D003F001E00339E
:104920000000000000000000000000000000000087
:104930000000000000000000000000000000000C6B
:10494000000C000C000CC0FFC0FF000C000C000CA1
:10495000000C00000000000000000000000000004B
:104960000000000000000000000000000000000047
:10497000000000000000000C000C0004000400080F
:104980000000000000000000000000000000000027
:104990000000001E001E00000000000000000000DB
:1049A0000000000000000000000000000000000007
:1049B0000000000000000000000000000000000CEB
:1049C000000C0000000000000000000300030003D2
:1049D0000006000600060006000C000C000C000C8F
:1049E0000018001800180000000000000000001E61
:1049F000003F0033806180618061806D806D8061E7
:104A0000806180610033003F001E00000000000054
:104A100000000006000E001E0036002600060006FC
:104A2000000600060006000600060006000600005C
:104A3000000000000000001E003F80738061806164
:104A4000800100030006000C001800300060807F29
:104A5000807F0000000000000000001C003E00639A
:104A600000630003000E000E0003800180018061DE
:104A70008073003F001E00000000000000000006E0
:104A8000000E000E001E001E0016003600360066E6
:104A9000807F807F00060006000600000000000006
:104AA0000000007F007F006000600060006E007FFB
:104AB00080638001800180618073003F001E0000E0
:104AC000000000000000001E003F80338061006095
:104AD000006E007F80738061806180618033003F61
:104AE000001E0000000000000000807F807F800129
:104AF0000003000300060006000C000C000C000878
:104B00000018001800180000000000000000001E3F
:104B1000003F8063806180610021001E003F806152
:104B2000806180618061003F001E00000000000085
:104B30000000001E003F007380618061806180730F
:104B4000803F801D800180610073003F001E0000D7
:104B50000000000000000000000000000000000C49
:104B6000000C000000000000000000000000000C2D
:104B7000000C000000000000000000000000000029
:104B800000000000000C000C00000000000000000D
:104B90000000000C000C00040004000800000000ED
:104BA0000000000080008003000E00380060003824
:104BB000000E8003800000000000000000000000E4
:104BC00000000000000000000000807F807F0000E7
:104BD0000000807F807F00000000000000000000D7
:104BE0000000000000000000000000000040007015
:104BF000001C000780010007001C0070004000003E
:104C000000000000000000000000001F803FC07195
:104C1000C060C000C00180030007000E000C000C43
:104C20000000000C000C0000000000000000001E4E
:104C3000003F803180718063806F806D806D806FF8
:104C4000806700600032003E001C00000000000091
:104C50000000000E000E001B001B001B001B80311B
:104C60008031803F803F8031C060C060C060000004
:104C7000000000000000007C007E00630063006311
:104C80000063007E007E0063806180618063007F3E
:104C9000007E0000000000000000001E003F803188
:104CA0008061006000600060006000600060806102
:104CB0008031003F001E0000000000000000007C6A
:104CC000007F0063806380618061806180618061BA
:104CD000806100630063007E007C00000000000033
:104CE0000000807F807F0060006000600060007FC7
:104CF000007F0060006000600060807F807F0000B7
:104D0000000000000000807F807F00600060006085
:104D10000060007F007F0060006000600060006055
:104D200000600000000000000000001E003F803115
:104D300080610060006000608063806380618061EA
:104D40008031803F001E00000000000000008061F4
:104D500080618061806180618061807F807F80610F
:104D600080618061806180618061000000000000DE
:104D70000000003F003F000C000C000C000C000C79
:104D8000000C000C000C000C000C003F003F000069
:104D9000000000000000800180018001800180018E
:104DA0008001800180018001806180618073003F0B
:104DB000001E0000000000000000C0608061006371
:104DC00000660066006C0078007C00660066006388
:104DD00080618061C0600000000000000000006091
:104DE00000600060006000600060006000600060C3
:104DF000006000600060807F807F00000000000095
:104E00000000C071C071C07BC07AC06AC06AC06E49
:104E1000C064C060C060C060C060C060C0600000AE
:104E200000000000000080718071807980798079B5
:104E3000806D806D806D806580678067806780632E
:104E400080630000000000000000001E003F0033EF
:104E5000806180618061806180618061806180614A
:104E60000033003F001E0000000000000000007E34
:104E7000007F80638061806180618063007F007E4D
:104E80000060006000600060006000000000000042
:104E90000000001E003F00338061806180618061FE
:104EA00080618061806580670033803F401E000024
:104EB000000000000000007E007F80638061806150
:104EC0008063007F007E0066006300638061806114
:104ED000C0600000000000000000000E001F8031D4
:104EE000803100300038001E00078003806180613F
:104EF0008031003F001E0000000000000000C0FFE5
:104F0000C0FF000C000C000C000C000C000C000C8E
:104F1000000C000C000C000C000C00000000000055
:104F2000000080618061806180618061806180615A
:104F300080618061806180618073003F001E00009D
:104F4000000000000000C060C060C060803180319F
:104F50008031001B001B001B001B000E000E000E0A
:104F600000040000000000000000C0C0C0C0C0C0BD
:104F7000C0C0C0C0C0CC804C804C805E805280528B
:104F80008073806180610000000000000000C0C0EC
:104F9000806080610033003B001E000C000C001E8E
:104FA000001F003B80718061C0C000000000000055
:104FB0000000C0C08061806100330033001E001E0D
:104FC000000C000C000C000C000C000C000C00008D
:104FD000000000000000803F803F800100030003CC
:104FE0000006000C000C0018001800300060807FE4
:104FF000807F000000000000000F000F000C000C7C
:10500000000C000C000C000C000C000C000C000C40
:10501000000C000C000C000C000F000F000000182A
:1050200000180018000C000C000C000C0006000614
:10503000000600060003000300030000000000005B
:10504000001E001E00060006000600060006000600
:105050000006000600060006000600060006000620
:10506000001E001E0000000C000C001E0012003389
:10507000003380618061000000000000000000003B
:105080000000000000000000000000000000000020
:105090000000000000000000000000000000000010
:1050A0000000000000000000E0FF000000000038E9
:1050B0000018000C000000000000000000000000CC
:1050C00000000000000000000000000000000000E0
:1050D00000000000000000000000001F803F806111
:1050E0008001801F803F80618063807FC038000026
:1050F0000000000000000060006000600060006EC2
:10510000007F807380618061806180618073007F37
:10511000006E000000000000000000000000000021
:105120000000001E003F80738061006000608061AD
:105130008073003F001E000000000000000080019E
:10514000800180018001801D803F807380618061CB
:10515000806180618073803F801D0000000000003E
:1051600000000000000000000000001E003F00736F
:105170008061807F807F00608071003F001E0000A2
:10518000000000000000C007C00F000C000C807F72
:10519000807F000C000C000C000C000C000C000CBC
:1051A000000C0000000000000000000000000000F3
:1051B000801D803F80738061806180618061807329
:1051C000803F801D80018063007F003E0000006002
:1051D000006000600060006F807F8071806180618E
:1051E000806180618061806180610000000000005A
:1051F00000000006000600000000003E003E000621
:105200000006000600060006000600060006000074
:10521000000000000006000600000000003E003E06
:10522000000600060006000600060006000600064E
:1052300000060046007E003C000000600060006048
:105240000060806100630066006C007C0076006393
:1052500000638061C0600000000000000000003EAC
:10526000003E0006000600060006000600060006D6
:105270000006000600060006000600000000000010
:105280000000000000000000000080DDC0FFC0CE74
:10529000C0CCC0CCC0CCC0CCC0CCC0CCC0CC00003A
:1052A0000000000000000000000000000000006F8F
:1052B000807F8071806180618061806180618061B8
:1052C00080610000000000000000000000000000FD
:1052D0000000001E003F80738061806180618061FA
:1052E0008073003F001E000000000000000000006E
:1052F00000000000006E007F80738061806180612B
:1053000080618073007F006E00600060006000605C
:105310000000000000000000801D803F807380615D
:105320008061806180618073803F801D8001800189
:105330008001800100000000000000000000006704
:10534000803F003900300030003000300030003045
:10535000003000000000000000000000000000001D
:105360000000001E803F80610060007F803F800160
:105370008061007F001E00000000000000000000AF
:10538000000800180018007F007F0018001800189F
:10539000001800180018801F800F00000000000097
:1053A000000000000000000000008061806180615A
:1053B00080618061806180618063807F803D0000CA
:1053C0000000000000000000000000000000C060BD
:1053D000803180318031001B001B001B000E000E4D
:1053E00000060000000000000000000000000000B7
:1053F000000080DD80DD80DD005500550055007720
:1054000000770022002200000000000000000000E1
:10541000000000000000806100330033001E000C1B
:10542000000C001E0033003380610000000000000B
:1054300000000000000000008061806180310033C6
:105440000033001B001B001B000E000E000E001C92
:10545000007C007000000000000000000000C07F21
:10546000C07F800100030006000C00180030C07FE0
:10547000C07F0000000000008003800700060006D7
:10548000000600060006000E001C001C000E0006B0
:1054900000060006000600068007800300060006DE
:1054A00000060006000600060006000600060006CC
:1054B00000060006000600060006000600060006BC
:1054C0000038003C000C000C000C000C000C000E1E
:1054D00000070007000E000C000C000C000C000C74
:1054E000003C003800000000000000000000000048
:1054F00000008038807F00470000000000000000AE
:1055000000000000000000007A00256C75210025D5
:105510006C750025752E25752F7300736176656493
:105520002100524553455420414C4C3F0050726578
:10553000737320616761696E00746F20636F6E66BC
:1055400069726D0043616E63656C6C656400524501
:10555000534554204F4B2100426F6E676F204361CB
:10556000742046696467657420546F7900627920FD
:1055700041666F6E736F204D7572616C686100617A
:10558000666F6E736F6D7572616C68612E636F6D9F
:1055900000232D302B2000686C4C00656667454663
:1055A000470030313233343536373839414243449D
:1055B000454600303132333435363738396162632D
:1055C00064656600000000000000000000000000AC
:1055D00000000000000000000000000000000000CB
:1055E00000000000000000000000000000000000BB
:1055F00000000000000000000000000000000000AB
:10560000000000000000000000000000000000009A
:10561000000000000000000000000000000000008A
:10562000000000000000000000000000000000007A
:10563000000000000000000000000000000000006A
:10564000000000000000000000000000000000005A
:10565000000000000000000000000000000000004A
:10566000000000000000000000000000000000003A
:10567000000000000000000000000000000000002A
:10568000000000000000000000000000000000001A
:10569000000000000000000000000000000000000A
:1056A00000000000000000000000000000000000FA
:1056B00000000000000000000000000000000000EA
:1056C00000000000000000000000000000000000DA
:1056D00000000000000000000000000600000000C4
:1056E00000000000000000000000000900000000B1
:1056F000000000000000000000000010800000001A
:105700000000000000000000000000104000000049
:105710000000000000000000000000203C0000002D
:1057200000000000000000000000002403C0000092
:1057300000000000000000000000004400300000F5
:10574000000000000000000000000086000830009B
:1057500000000000007000000000F3020004C80018
:1057600000000000000F800000010C030003040093
:105770000000000000007C0000020800006004003F
:1057800000000000000003E00002040003C0040069
:10579000000000000000001E0002043000000400B1
:1057A0000000000000000001F002023000000800CC
:1057B00000000000000000001F820200000008003E
:1057C000000000000000000001F102040180080058
:1057D0000000000000000000000F00079180100092
:1057E00000000000000000000000E0006000100069
:1057F000000000000000000000001F800000080002
:1058000000000000000000000000007C0000080014
:10581000000000000000000000000003C0000400C1
:10582000000000000000000000000000380004003C
:105830000000000000000000000000000400040060
:10584000000000000000000000000000080002004E
:105850000000000000000000000000000803F2004B
:10586000000000000000000000000000080C0F8095
:10587000000000000000000000000000083001F8F7
:1058800000000000000000000000000007C0000F42
:105890008000000000000000000000000000000088
:1058A0007C0000000000000000000000000000007C
:1058B00003E0000000000000000000000000000005
:1058C000001F0000000000000000000000000000B9
:1058D0000000F800000000000000000000000000D0
:1058E00000000700000000000000000000000000B1
:1058F00000000000000000000000000000000000A8
:105900000000000000000000000000000000000097
:105910000000000000000000000000000000000087
:105920000000000000000000000000000000000077
:105930000000000000000000000000000000000067
:105940000000000000000000000000000000000057
:105950000000000000000000000000000000000047
:105960000000000000000000000000000000000037
:105970000000000000000000000000000000000027
:105980000000000000000000000000000000000017
:105990000000000000000000000000000000000007
:1059A00000000000000000000000000000000000F7
:1059B00000000000000000000000000000000000E7
:1059C00000000000000000000000000000000000D7
:1059D00000000000000000000000000000000000C7
:1059E00000000000000000000000000000000000B7
:1059F00000000000000000000000000000000000A7
:105A00000000000000000000000000000000000096
:105A10000000000000000000000000000000000086
:105A20000000000000000000000000000000000076
:105A30000000000000000000000000000000000066
:105A40000000000000000000000000000000000056
:105A50000000000000000000000000000000000046
:105A60000000000000000000000000000000000036
:105A70000000000000000000000000000000000026
:105A80000000000000000000000000000000000016
:105A90000000000000000000000000000000000006
:105AA00000000000000000000000000000000000F6
:105AB00000000000000000000000000000000000E6
:105AC00000000000000000000000000000000000D6
