:020000040800F2
:10000000002000208D160008211500082315000887
:1000100000000000000000000000000000000000E0
:10002000000000000000000000000000251500088E
:100030000000000000000000271500082915000836
:10004000DD16000800000000DD160008DD160008BF
:1000500031150008DD160008DD160008DD16000861
:1000600000000000DD160008DD160008DD1600089F
:10007000DD160008DD160008DD160008000000008F
:10008000DD16000800000000000000003515000823
:1000900000000000DD160008DD160008DD1600086F
:1000A000DD160008DD160008DD160008DD16000864
:0800B000DD160008000000004D
:1000B8000448054B10B5834203D0044B002B00D0F5
:1000C800984710BDA8000020A800002000000000EC
:1000D80006480749091A8B10C90FC91810B54910E5
:1000E80003D0044B002B00D0984710BDA800002077
:1000F800A80000200000000010B5074C2378002B52
:1001080009D1FFF7D5FF054B002B02D0044800E0CA
:1001180000BF0123237010BDA800002000000000CC
:1001280048380008054B10B5002B03D00449054892
:1001380000E000BFFFF7CCFF10BDC0460000000084
:10014800AC0000204838000802B47146490849004C
:10015800095C49008E4402BC7047C046002243082F
:100168008B4274D303098B425FD3030A8B4244D377
:10017800030B8B4228D3030C8B420DD3FF220902B9
:1001880012BA030C8B4202D31212090265D0030B78
:100198008B4219D300E0090AC30B8B4201D3CB036E
:1001A800C01A5241830B8B4201D38B03C01A5241B0
:1001B800430B8B4201D34B03C01A5241030B8B42B2
:1001C80001D30B03C01A5241C30A8B4201D3CB029D
:1001D800C01A5241830A8B4201D38B02C01A524182
:1001E800430A8B4201D34B02C01A5241030A8B4285
:1001F80001D30B02C01A5241CDD2C3098B4201D39D
:10020800CB01C01A524183098B4201D38B01C01A1A
:10021800524143098B4201D34B01C01A5241030991
:100228008B4201D30B01C01A5241C3088B4201D340
:10023800CB00C01A524183088B4201D38B00C01AED
:10024800524143088B4201D34B00C01A5241411A14
:1002580000D20146524110467047FFE701B5002021
:1002680000F0F0F802BDC0460029F7D076E77047E5
:1002780003460B437FD4002243088B4274D30309FF
:100288008B425FD3030A8B4244D3030B8B4228D3A0
:10029800030C8B420DD3FF22090212BA030C8B42C6
:1002A80002D31212090265D0030B8B4219D300E066
:1002B800090AC30B8B4201D3CB03C01A5241830BEB
:1002C8008B4201D38B03C01A5241430B8B4201D39B
:1002D8004B03C01A5241030B8B4201D30B03C01AC4
:1002E8005241C30A8B4201D3CB02C01A5241830A3E
:1002F8008B4201D38B02C01A5241430A8B4201D36D
:100308004B02C01A5241030A8B4201D30B02C01A96
:100318005241CDD2C3098B4201D3CB01C01A5241FD
:1003280083098B4201D38B01C01A524143098B4286
:1003380001D34B01C01A524103098B4201D30B016F
:10034800C01A5241C3088B4201D3CB00C01A524194
:1003580083088B4201D38B00C01A524143088B4259
:1003680001D34B00C01A5241411A00D201465241F2
:10037800104670475DE0CA0F00D04942031000D311
:100388004042534000229C4603098B422DD3030A66
:100398008B4212D3FC22890112BA030A8B420CD376
:1003A800890192118B4208D3890192118B4204D39F
:1003B80089013AD0921100E08909C3098B4201D31F
:1003C800CB01C01A524183098B4201D38B01C01A59
:1003D800524143098B4201D34B01C01A52410309D0
:1003E8008B4201D30B01C01A5241C3088B4201D37F
:1003F800CB00C01A524183088B4201D38B00C01A2C
:100408005241D9D243088B4201D34B00C01A524102
:10041800411A00D20146634652415B10104601D38F
:100428004042002B00D54942704763465B1000D319
:10043800404201B5002000F005F802BD0029F8D0BF
:1004480016E770477047C0460CB410B500249CB03E
:100458000291069109491EAB04910791084904CB02
:10046800059102A901931B9400F022F9029B1C70CC
:100478001CB010BC08BC02B01847C046FFFFFF7F85
:100488000802FFFF0EB410B500240C499DB004917A
:1004980007910B491FAB05910A4904CB02900690BE
:1004A800086802A901931B9400F002F9029B1C70D2
:1004B8001DB010BC08BC03B01847C046FFFFFF7F43
:1004C8000802FFFF00000020F0B546464F46D6461A
:1004D800C0B58E6880460C0091461D0008689E4293
:1004E80039D80C228B5E9022D200134210D13500ED
:1004F8002A00494600F086FB0020A3689B1BA360E6
:1005080023685B192360E0BCBA46B146A846F0BD33
:100518000969421A9246606942001218D70FBF183B
:10052800681C7F1050443A00B84201D90700020005
:100538005B0512D51100404600F080FA061E1FD058
:100548005246216900F004FEA389124A1340802212
:100558001343A38106E01E00CAE7404600F0AAFB49
:10056800061E09D03000534650446761FF1A2661C1
:1005780020602E00A760BBE74046216900F0E6FA3C
:100588000C234246136040220120A38940421343B2
:10059800A381B8E77FFBFFFFF0B545465746DE4627
:1005A8004E46E0B5136883B0984693680D009246AE
:1005B8000190002B6FD0002300249B460A688B68AB
:1005C80049E00C216B5E9021C9000B422BD0686971
:1005D8002969561A42001218D00F8218701C52103E
:1005E80000199146904201D9814602008020C0003E
:1005F80003423AD01100019800F020FA071E3DD0BE
:100608003200296900F0A4FDAB89284A13408022F2
:100618001343AB814B46B8199E1B2F61AE60270070
:10062800260028606B613200594600F0EBFA51460B
:100638005046AB682A688968DB1B9219091BAB60B6
:100648002A60816027D0414609688B4641464C683C
:1006580008218C46E0441F001000002CF3D01E0037
:100668009C42AED227002600DDE7019800F022FB6D
:10067800071ECFD12969019800F068FA0C23019A66
:10068800012013604022AB8940421343AB8152469C
:100698000023936000E0002000235246536003B01B
:1006A800F0BCBB46B246A946A046F0BD7FFBFFFFA3
:1006B800F0B5DE4657464E464546E0B51C008B89E8
:1006C8008246894693469DB01B0603D50B69002BCD
:1006D80000D1F5E0002304AD6B6120336B76103355
:1006E800AB765B461B787F4F0394002B78D05C4633
:1006F80004E063780134002B00D17EE0252BF8D18B
:100708005B46E61A5C4500D07BE02378002B67D077
:10071800012300225B4204920593002200230692E3
:10072800079300234332AB54AB6501339B46013436
:1007380006E05A46C01B82401C0029680A432A600A
:1007480005223800217800F0C9FC631C1E0000282F
:10075800EFD12A68D10602D5432120306854110709
:1007680002D543212B20685421782A2955D1039B8F
:10077800191D1B680391002B00DA7CE0EB6061789F
:100788002E2960D0584C0322200000F0A7FC002836
:1007980006D04023001B83402A68013613432B6090
:1007A8003178731C062251489B46297600F096FC46
:1007B800002866D04E4B002B56D003AA0092290081
:1007C8004A4650464B4B00E000BF80464346013343
:1007D80006D06B6943446B615B461B78002B86D15E
:1007E8004B469B895B0600D579E068691DB0F0BC73
:1007F800BB46B246A946A046F0BD5B46E61A5C4534
:10080800EED033005A4649465046FFF75DFE0130A8
:10081800E6D06B699B196B6177E7080030382600D2
:100828000928ADD8EA68140000E00133A2001219C3
:10083800197852001418080030380928F5D91E0014
:10084800EC602E299ED171782A2924D1039BB01CF3
:100858001A1D1B6803926B60002B02DA01235B42AE
:100868006B60B17806008DE70722039B073393433B
:1008780008330393ADE75B42EB6002231A432A6017
:100888007DE703AA009229004A465046194B00F01A
:10089800F1FA80469AE708000023303801366B6089
:1008A800092800D96EE71A0093009B1871785B003D
:1008B8001A180800303801360928F5D96A6061E746
:1008C800402100F0BBF84B4618601861002803D09F
:1008D80040234A465361FDE60C235246136001202B
:1008E800404283E70C7F0008147F0008187F000847
:1008F80000000000D104000870B50D4B0D4D5E1BC3
:10090800B610AB4205D0002408CD01349847A64262
:10091800FAD802F095FF084B084D5E1BB610AB42A3
:1009280005D0002408CD01349847A642FAD870BDF6
:10093800487F0008487F00084C7F0008487F00086F
:10094800F0B50500830749D0541E002A45D003009E
:100958000326CAB202E00135013C3ED301332A70B6
:100968003342F8D1032C30D9FF220A401502AD18C2
:100978002A04AD180F2C34D92700103F3F093E0137
:10098800B4461E001A00103666441560556095601E
:10099800D56010329642F8D101373F01DB190F2795
:1009A8000C22274022403C00002A0ED03E1FB608E9
:1009B800B400A4461A001C1D644420C2A242FCD103
:1009C80003240136B6009B193C40002C05D0C9B25F
:1009D8001C19197001339C42FBD1F0BD03001400AF
:1009E800C0E72700E2E7C046014B18687047C046D9
:1009F8000000002070B5104E050033680C00002B75
:100A080015D02100280000F0E9FB431C0CD003237B
:100A1800C41C9C43A04205D0211A280000F0DEFB2C
:100A2800013001D0200070BD01246442FAE70021A2
:100A380000F0D4FB3060E4E7C4000020F8B50323DD
:100A4800CE464746CD1C9D430835060080B50C2D83
:100A58001ED20C25A9421DD8300000F03BFB3A4FAE
:100A68007A68002A1AD0140004E063682200002B78
:100A780014D01C0023685B1BF7D40B2B27D96119F2
:100A8800256094425BD051600B6063684B600DE059
:100A9800002DDFDA0C230020336014E02900300039
:100AA800FFF7A8FF0400431C19D00560300000F0D0
:100AB80013FB200007220B30231D9043C21A9842D3
:100AC80001D01B1AA350C0BCB946B046F8BD636834
:100AD800944202D05360E9E743467B60E6E77B68CF
:100AE8009846002B24D0444663689846002BFAD1D8
:100AF8002368002199463000A14400F06FFB81452E
:100B080016D123683000ED1A2900FFF773FF013072
:100B18000ED023687A685B1923605368002B02D1D2
:100B2800DAE71A005B689C42FBD100235360BDE7FB
:100B38000C233000336000F0CFFA0020C3E779605F
:100B48000B6063684B60B1E7C400002070B5050016
:100B5800002915D00C1F2368002B23DB280000F088
:100B6800B9FA274A1368002B05D0A3420BD921688C
:100B7800601883422CD028006360146000F0ACFA3F
:100B880070BDA34210D81A005B68002BF9D1106819
:100B980011188C4218D02CD363605460280000F0E0
:100BA8009BFAEDE7E418D9E711685018A04214D071
:100BB8001FD8216860188342EED118685B68411815
:100BC800216063605460E9E723681B181360E5E758
:100BD80018685B6841182160CDE72068091850182B
:100BE80011608342DAD118685B684118116053605C
:100BF800D4E70C2328002B6000F06EFAC0E7C0464B
:100C0800C8000020F0B588420AD98B18984207D24C
:100C1800531E002A03D0CA5CC254013BFBD2F0BD6C
:100C280005000F2A0AD8561E002AF8D00023CC5CEB
:100C38001A00EC5401339642F9D1F0E703273E003D
:100C48000D430C0003002E402F422DD11500103DFE
:100C58002D09AC462F013F1825681D6065685D6049
:100C6800A5689D60E5681034DD601D001033BD4245
:100C7800F2D165460F230C2401352D014919134083
:100C88004519144213D0043B9B0801339B008C592F
:100C9800AC5104369E42FAD103231A40AD19891982
:100CA800561E002AC2D1BAE70500561EBEE71A0032
:100CB800B9E7C046F0B5C64607000E00140000B5F7
:100CC80000292DD0002A27D000F09AFA80468442C5
:100CD80003D835004308A34210D321003800FFF79A
:100CE800ADFE051E0AD0220044450BD8310028006D
:100CF80000F02EFA31003800FFF728FF280080BCEA
:100D0800B846F0BD31004246280000F021FA310013
:100D18003800FFF71BFFF1E7FFF718FF0025EDE7A5
:100D28001100FFF78BFE0500E8E7C046F8B5574607
:100D38004E464546DE46E0B51F000A9B9246984659
:100D48000A698B6806000C009A4200DA1A005346BA
:100D58001A604323E35C002B02D0514601320A603B
:100D68002268910661D55346524606201B68023315
:100D7800136022681100104208D100208146193002
:100D88008346E168A344994247DC11004323E35CAE
:100D98005A1E934189060AD53020E118433108705C
:100DA80045215A1C615CA21843320233117022009B
:100DB800390030004332C04701301DD05346062564
:100DC8001B68E1689C462368A26820692B40042BB5
:100DD80031D0824239DD00239946121A9144002508
:100DE8001A3402E001354D452FDA0123220039007B
:100DF8003000C0470130F5D101204042F0BCBB466D
:100E0800B246A946A046F8BD01239C465346E5686C
:100E18001B68E144ED1A4D4524DD01235A4639008B
:100E28003000C0470130EFD1E6E7062111420ED06D
:100E38005A1E9341BBE76346C91ACB43DB170B40E5
:100E480099468242C9DC0029C9DC0020D6E7002087
:100E580053468146193083461B68E168A34499428A
:100E6800DBDC92E743232168E35C5A1E9341890641
:100E780092D49CE7F0B54E46994643239C46574684
:100E88004546DE468C446346E0B587B002930C00C5
:100E9800097E90460700109A002914D00B00583B91
:100EA800DBB2202B48D888489B00C3589F4613685C
:100EB80021681D1D606915601B680E0602D449066D
:100EC80000D5DCE018600023029D23614B46210019
:100ED80000933800434605AAFFF728FF01301ED0CB
:100EE8002A00414638002369C847013017D02368D3
:100EF800E068059E9B071BD5B04219DD19239A4669
:100F08000025A24404E0E0680135831BAB420FDDF5
:100F18000123524641463800C8470130F3D1012029
:100F2800404207B0F0BCBB46B246A946A046F0BD59
:100F3800B042F6DA3000F4E72500422301204235BA
:100F4800E154432300222061E254BFE7136821687B
:100F5800181D10600D0602D44D0600D594E01A68DD
:100F680016006368002A00DA92E0584A93460A227B
:100F780003924BE01368206840CB050601D4400675
:100F88007FD41360514B9B466F2900D191E00A230F
:100F9800039337E013682500191D11601A6842236E
:100FA80001204235E254CCE71368191D11601D6811
:100FB80000212800626800F091F8002800D181E043
:100FC800401B6060BDE7202321680B432360452157
:100FD800782060543E498B46116840C9180603D4EE
:100FE800580601D53604360C1160DA0702D52022DE
:100FF80013432360002E03D12022236893432360E8
:101008001023039343230022E2546368A360002B58
:1010180018DB042122688A432260002E12D1029D27
:10102800002B49D1039B082B1ED0029B5B1B23611D
:101038004CE745235821E154244923688B46CBE7E4
:101048002368C4E7039B9A46029D30005146FFF788
:101058000BF95B465B5C013D2B7033000600534582
:10106800F3D2039B082BE0D12368DB07DDD5626848
:1010780023699A42D9DC3023013D2B70D5E71880CB
:1010880021E73604360C7CE700269E5F320068E7CD
:1010980043222D20A054A360002B02DB0423994394
:1010A80021600A239A46094B76429B460A230393FA
:1010B800CAE708230393A5E75B4625001B7842355A
:1010C8002B70AFE760683CE770380008207F0008A5
:1010D800347F00087047C0467047C04670B5CCB230
:1010E80083070DD0531E002A0FD0032504E00130DA
:1010F800284206D0013B08D30278A242F7D170BD3E
:101108001300032B03D8002B14D10020F7E7FF228C
:101118000A401502AD182A040B4EAD1803E0043B33
:101128000430032BEFD9026808496A4051189143EB
:101138003142F4D0C31802E001309842E5D0027879
:10114800A242F9D1DBE7C04680808080FFFEFEFE28
:10115800F0B505000F2A31D903273E000D430C00D6
:1011680003002E402F4234D11500103D2D09AC4606
:101178002F013F1865685D60A5689D60E568DD60C2
:10118800256810341D601D001033BD42F2D165463C
:101198000F230C2401352D01491913404519144218
:1011A8001AD0043B9B0801339B008C59AC51043680
:1011B8009E42FAD10323AD1989191A40561E002AF6
:1011C80006D00023CC5C1A00EC5401339642F9D1C6
:1011D800F0BD0500561EF4E71A00EFE7002370B5CE
:1011E800064C05000800236000F02CFA431C00D0D0
:1011F80070BD2368002BFBD02B60F9E708020020A4
:101208000B1F1B68181F002B00DB70470B58C018FA
:10121800FBE7C046034B10B5834201D100F002FC46
:1012280010BDC0460C02002010B592B03422002137
:1012380005A8FFF785FB1022002101A8FFF780FB16
:101248008020800002F0D2F880235B0008930023FE
:1012580009930E9308330F9380239B0210938023E6
:10126800022440229B0505A805940A920C940D942B
:10127800119301F05FFB002801D072B6FEE7072347
:101288000193802304901B01012101A80294039378
:1012980001F0B0FD002801D072B6FEE712B010BD13
:1012A800F0B58FB002F046F9FFF7BEFF1422002117
:1012B80009A8FFF745FB02210426874B01255A6B35
:1012C800A0200A435A635A6B00240A40802103274E
:1012D8000692069A5A6B090232435A635A6BC00542
:1012E80032400792079A5A6B2A435A635B6B002273
:1012F8002B400893089B02F073F8784B784809A9AB
:1013080009930A970B9401F0B3FFA020754B09A924
:10131800C00509930A970B9401F0AAFFA020402367
:1013280009A9C00509930A940B9401F0A1FF6E481E
:1013380009A909950A940B9401F09AFFFF236A48BA
:101348005B0009A909930A970B9401F091FF802388
:10135800A0201B02C00509A909930A950B940C94B7
:1013680001F086FF614F624B38003B60614BBC6007
:101378007B6080239B02FD603C617C61BC61FC61F9
:101388003B6201F055F9A04201D072B6FEE7802118
:101398003800490101F084FA011E01D072B6FEE757
:1013A800380001F0A3FA002801D072B6FEE7524FC8
:1013B800524BB8603B601F237B60514B3861B8616A
:1013C8003800FB6002F00EFA041E01D072B6FEE788
:1013D80002000100300002F035F8300002F05CF83D
:1013E80022002100132002F02DF8132002F054F8F7
:1013F8008021A02022000902C00501F0F1FF0A2087
:1014080002F0BEF88021A0202A000902C00501F0E0
:10141800E7FF00F099FA00F06DFB3A4B2600187BC5
:1014280000F0F6FA02F0A6F8374B186000F09CFFBF
:101438006B4638000494059409949C73DC7302F09D
:10144800B1F800F09DFB00F0BBFB00F04BFC012E57
:1014580019D02E4B1B68002B13D02D4B1B68002B6B
:101468000FD0200000F056FD00F0FAFD00F05EFD00
:101478000100601CFEF7E2FF6420CCB202F080F8A5
:10148800DFE72E00DDE700F03DFE0F236B441A0076
:101498000E236B44190004A800F04AFD002818D157
:1014A8001A4B1B68012B03D1194B1B68012B09D060
:1014B8000F210E2004AB009305AA09AB69446844C8
:1014C80000F08EFC09A905A800F060FC00F0C8FD3A
:1014D800B7E70026F6E7C0460010024040C000000B
:1014E80000080050BF1D00000004005058020020F2
:1014F80000540040331160000C020020002000401E
:101508000F270000DC060020D0060020CC060020B3
:10151800C806002072B6FEE7FEE7FEE77047704790
:1015280010B502F01BF810BD7047000010B5024856
:1015380002F068F810BDC0460C02002001210A4BD9
:1015480082B01A6C0A431A641A6C0A40802100920D
:10155800009ADA6B49050A43DA63DB6B0B400193A7
:10156800019B02B07047C04600100240F0B504006D
:101578008FB01422002103A8FFF7E2F918220021F6
:1015880008A8FFF7DDF9214B22689A423CD12023B5
:1015980008A8089301F0D8FC002801D0FFF7BAFF8B
:1015A800022201251A4C8027636B122613436363BA
:1015B800636B184813400093009B636B04322B4302
:1015C8006363636BBF002B400193019B032303A953
:1015D8000693079203970496059501F049FEA0200B
:1015E8000323062203A9C0050693079203970496CE
:1015F800059501F03DFE8022E36B92031343E363FC
:10160800E36B13400293029B0FB0F0BD00540040FF
:101618000010024000040050084B026882B09A4251
:1016280009D18021064B09021A6C0A431A641B6C03
:101638000B400193019B02B07047C0460020004058
:10164800001002400B490C4A0300521A0B4910B50E
:101658000868002801D10A4808600868C31893423E
:1016680006D9FFF7C1F90C2303600120404210BDE1
:101678000B60FCE70004000000200020AC02002002
:10168800780700200D48854600F09EFE0C480D495D
:101698000D4A002302E0D458C4500433C4188C42C5
:1016A800F9D30A4A0A4C002301E013600432A2422B
:1016B800FBD3FFF721F9FFF7F3FDFEE70020002039
:1016C80000000020A8000020507F0008A80000208B
:1016D80078070020FEE700007FB5172201236A443F
:1016E8005B4210700293023300927821002201932A
:1016F800024800F0FBFF07B000BDC04658020020BA
:101708001FB50123064C5B4289B2029301910090F8
:10171800402278212000023300F0E8FF1FBDC046B8
:1017280058020020431E9841822210B54142C9B296
:101738000248D200FFF704F910BDC046B6020020E7
:1017480070B5B024094D2000FFF7C6FF0020FFF751
:10175800C3FF01341020FFF7BFFFE4B22800822145
:10176800FFF7CEFF8235B82CEDD170BDB602002050
:10177800030030B581280FD83F290DD88220CC0826
:1017880060430724064D2140C018063C8C402B5C62
:10179800012A02D123432B5430BDA343FBE7C046A3
:1017A800B6020020F0B504008DB00B9312AB1B7885
:1017B80009A807932300203B04936B461B7C0991DF
:1017C8000A925E2B48D803780393244B03991A880E
:1017D80001925218822A3FDC47785B880593DB190F
:1017E800402B39DC00260B9B0693049B7B435B0054
:1017F8000293B7420DD8069A039B002A02D0130021
:10180800049A9B5C0199154ACB18138020000DB0EF
:10181800F0BD00250A9B029A9B5A0893039BAB4292
:1018280004D8029B013602330293E2E7019B80222F
:101838005819059B1202F118089BC0B2AB40C9B2F7
:10184800134204D0079AFFF793FF0135E6E7079B99
:101858005A425A41D2B2F6E70024D7E7B002002034
:1018680030B5040087B005930AAB1D780391049244
:101878002078002801D107B030BD059B0399049A50
:101888000095FFF78FFF030020788342F3D10134DE
:10189800EEE70000014B188059807047B002002025
:1018A800F0B587B004920DAA127801930CAB0C0026
:1018B8001B780090059281282CD83F292AD8002728
:1018C8003D00019ACB180732D210DBB20292039383
:1018D800039B9C421ED0002613E007236D00EDB247
:1018E800184203D1049AC308D219D55C6BB2002BF5
:1018F80006DA009B21001818059AC0B2FFF738FFD6
:101908000136019BF0B29E42E7D1029B0134E4B25A
:10191800FF18DDE707B0F0BD10B504008120FFF720
:10192800DBFE2000FFF7D8FE10BD0000030010B555
:10193800AE20002B01D00123C018024A5371FFF7D3
:10194800CBFE10BDB002002010B5642001F018FED7
:101958000020FFF7EBFF2020FFF7BEFE0020FFF777
:10196800BBFEB020FFF7B8FEC020FFF7B5FE002091
:10197800FFF7B2FE1020FFF7AFFE4020FFF7ACFEE6
:10198800FF20FFF7C9FFA020FFF7A6FEA620FFF75C
:10199800A3FEA820FFF7A0FE3F20FFF79DFEA4208E
:1019A800FFF79AFED320FFF797FE0020FFF794FE7B
:1019B800D520FFF791FEF020FFF78EFED920FFF724
:1019C8008BFE2220FFF788FEDA20FFF785FE122023
:1019D800FFF782FEDB20FFF77FFE2020FFF77CFE6B
:1019E8008D20FFF779FE1420FFF776FE0120FFF720
:1019F8009DFF0020FFF796FEFFF7A2FE0022034B93
:101A08001A805A8001321A7110BDC046B0020020F7
:101A180010B5002803D0A720FFF75EFE10BDA62052
:101A2800FAE70000A02010B54021C00501F0D2FC63
:101A380042425041054B01211860054801F0CAFC9B
:101A480042425041034B186010BDC046CC060020EE
:101A580000040050C8060020426803685340427BD7
:101A68001204534082685340027B024812025340DA
:101A7800584070477856341230B5184D87B0280052
:101A8800FFF7EAFF286101F009FB022302931D33E7
:101A9800049301A91E3B02A80593002401F09EFBB4
:101AA8000F492B19611801201A685B68083401F086
:101AB8003FFB182CF4D101F06FFB01F05BFD002215
:101AC800084B1860084B1A70084B01321A7001F065
:101AD80051FD074B186007B030BDC046DC0600203A
:101AE80000F80008D0060020D9060020D8060020FB
:101AF800D406002030B5124B87B00CCB0293114BA3
:101B080001920CCB0493104B03921D6801AC5B68E7
:101B1800200006930595FFF79FFF0C4BA84208D1BC
:101B2800013006D023CC23C31A000ACC0AC207B05E
:101B380030BD00221A605A609A609A811A61F6E7ED
:101B480000F8000808F8000810F80008DC06002073
:101B580010B501F00FFD632802D8642001F010FDD4
:101B68000022064B1A605A609A600132FF329A814D
:101B780000F03CF8FFF780FF10BDC046DC060020EF
:101B880010B5074B1B78002B09D001F0F3FC054B6F
:101B98001B68C01A044B984201D9FFF76DFF10BDAE
:101BA800D9060020D00600202F75000010B5034B81
:101BB8001B78002B01D0FFF75FFF10BDD90600206E
:101BC80010B5084C2378002B0AD001F0D3FC064B43
:101BD8001B68C01AFA23DB00984201D30023237044
:101BE80010BDC046D8060020D4060020502210B5EB
:101BF80000210548FEF7A4FE0023044A1370044A96
:101C08001380044A136010BD00070020FC06002062
:101C1800F6060020F806002010B501F0ABFC0C4BCE
:101C28001A880C4B592A05D90B4A106001221A70E0
:101C3800187810BD19780029FAD04F2AF8D8064A22
:101C48001268801AFA2252009042F1D30022EEE77D
:101C5800F6060020F4060020F8060020F8B501F08A
:101C680089FC0023FA260100020018000F4DB60077
:101C78009C002C59002C06D00F1BB74203D801300A
:101C8800A24200D922000133142BF1D100230128EC
:101C980008DD8A4206D2064B01385843891AFEF7F6
:101CA8005DFA83B2034A1380F8BDC04600070020DE
:101CB80010270000F606002070B5084C257801F0C2
:101CC80059FC074BAD005851207814210130FEF71C
:101CD800B5FB2170FFF7C2FF70BDC046FC060020AF
:101CE8000007002070B501F045FC054D04002B6885
:101CF800C31A632B02D9FFF7B1FF2C6070BDC04631
:101D0800F006002010B5094B00280BD05A680132A4
:101D18005A601A6801321A600122054B1A70FFF7DF
:101D2800CBFF10BD9A6801329A60F2E7DC0600200A
:101D3800D906002013B504000020FFF7F3FC0123A7
:101D4800002101933F330093220008004033FFF73E
:101D5800A7FD014B1C6013BD5007002007B54023A9
:101D680002000020009301000190DB18FFF798FDA6
:101D780007BD012307B5002101933F3302000093FB
:101D880008004033FFF78CFD07BD0000036870B5FD
:101D980005000C00002B0ADD01F0ECFB2B68C31AD0
:101DA8000D48C82B12D9FFF7D9FF00232B602368F1
:101DB800002B0ADD01F0DEFB2368C31A0748C82B95
:101DC80007D9FFF7CBFF0023236070BDFFF7D1FFD2
:101DD800EDE7FFF7CEFFF8E748560008485200083D
:101DE800F7B5160000221F00089B05001A600C00BA
:101DF800FFF712FF3D4A03001268002A2ED13C4A21
:101E08001268002A4FD12A7821781000084302D09E
:101E18004A40012A21D13748002B00D03648FFF725
:101E280089FF23780193002B08D13448FFF7A1FFDD
:101E380001F0A0FB38600198FFF764FF2B78002BB6
:101E480008D12F48FFF795FF01F094FB306001207F
:101E5800FFF758FF012323702B70F7BD012AFCD12F
:101E6800234A1268002AF8D12278002A02D02A7858
:101E7800012A13D12348002B00D02348FFF75AFF2B
:101E88002678002E08D11D48FFF773FF01F072FB7A
:101E980038603000FFF736FF012323702B78002BC2
:101EA800DBD00023D8E7012AD7D12A78002A02D02C
:101EB8002278012A13D11548002B00D01448FFF7C7
:101EC80039FF2B78002B08D10D48FFF752FF01F09E
:101ED80051FB30600120FFF715FF01232B70237899
:101EE800002BBAD000232370B7E7C046CC060020E9
:101EF800C806002048620008484E000848520008FA
:101F080048560008485A000848420008485E000839
:101F18004846000810B50521FEF790FA024C8900E2
:101F28000859FFF707FF10BD500000200520704733
:101F38001A4B70B51B6804000E001500012B01D068
:101F4800002070BD164B1B68012BF9D1FFF764FE0A
:101F5800144B002800D0144B1800FFF7EBFE236841
:101F6800002B02D101F006FB206001F003FBFA22EE
:101F78002368D200C01A0023904204D32360FFF7DD
:101F880015FE0120DDE73278002A00D033702B7867
:101F9800002BD5D000232B70D2E7C046CC060020FA
:101FA800C8060020487A0008484A000870B51D4B4A
:101FB8008AB01A681C4902A8FEF764FA01210220B7
:101FC800FFF768FC0123194C00932168A368626835
:101FD80002A8FFF745FC164B1E88012E15D90A21C9
:101FE8003000FEF7BBF885B2632E10D92A001149DC
:101FF80002A8FEF747FA01215F20FFF74BFC0123F7
:1020080002A800930ECCFFF72BFC0AB070BD30007D
:102018000A21FEF729F92A008BB202A80649FEF721
:1020280031FAE8E7DC060020487E0008F4380008AA
:10203800F60600204F7E00084C7E000807B53421C4
:102048005020FFF727FC0122034B009203480ECBD8
:10205800FFF706FC07BDC046F4380008547E0008A8
:1020680010B5074B5B7B002B01D0FFF79FFF054B9B
:102078001B78002B01D0FFF7E1FFFFF761FB10BDD4
:10208800DC060020D8060020044B10B5186800288C
:1020980003D0FFF74FFEFFF7E3FF10BD5007002006
:1020A80010B5164B0124187B42425041C0B2187338
:1020B800FFF7AEFC124B20001C70FFF733FBFFF755
:1020C8003FFB322001F05CFA0020FFF72BFBFFF703
:1020D80037FB322001F054FA2000FFF723FBFFF70B
:1020E8002FFB322001F04CFA0020FFF71BFBFFF713
:1020F80027FB322001F044FA10BDC046DC06002060
:10210800D9060020144A154B70B51B681568144C85
:102118001D431DD12368002B04D101F02BFA206048
:10212800002070BD01F026FA2368C01A0D4B9842B2
:10213800F6D90D4A537B256059424B41012453730C
:102148000A4B1C70FFF7A0FFFFF730FD2000E8E7FF
:1021580000232360E4E7C046CC060020C806002020
:1021680054070020C3090000DC060020D90600201F
:10217800F0B5012585B00A211B20FFF78BFB424CE7
:1021880042486268A36821680095FFF769FB1A2135
:102198001B20FFF77FFB6268A36821683C48009515
:1021A800FFF75EFB2A211B20FFF774FB216862689A
:1021B800A36838480095FFF753FBFFF7C1FA364E7E
:1021C8003368012B1DD001F0D5F9039001F0D2F945
:1021D800039BC01A314B98421DD90020FFF7A2FA81
:1021E80019212820FFF756FB01232D4800930ECC18
:1021F800FFF736FBFFF7A4FAFA20800001F0C0F9D8
:1022080022E0284B1B68002BDDD10A2001F0B8F929
:10221800FFF708FCD3E7FFF705FC33680293012BAF
:1022280003D1204F3D68002D15D0642001F0A8F996
:10223800CCE70A2001F0A4F9FFF7F4FB3368012B7F
:1022480002D13B68002BF4D00020FFF76BFAFFF7B0
:1022580077FA05B0F0BDFFF77BFC2800FFF7D8FB45
:102268002800FFF75FFA14212320FFF713FB029BD6
:102278000D4800930ECCFFF7F3FAFFF761FAFA2046
:10228800800001F07DF9D9E7F43800085B7E00088A
:10229800667E0008727E0008CC0600200F2700002A
:1022A8007D7E0008C8060020877E000837B5012516
:1022B8000A210520FFF7EEFA254C26486268A36834
:1022C80021680095FFF7CCFA15210D20FFF7E2FAF7
:1022D80021686268A36820480095FFF7C1FA2821A1
:1022E8000D20FFF7D7FA0ECC1C480095FFF7B8FA77
:1022F800FFF726FA1A4C2368002B09D1194B1B68E3
:10230800012B0BD80A2001F03BF9FFF78BFBF1E713
:10231800012B03D1134B1B68002BF3D0FFF782FB73
:102328002368012B09D10F4B1B68002B0BD1002010
:10233800FFF7F8F9FFF704FA37BD002B03D1094B73
:102348001B68012BF3D9642001F01AF9E6E7C046AF
:10235800F4380008917E0008A67E0008B87E0008C0
:10236800CC060020C806002070B5FFF75BFB144CB4
:102378002368002B03D02368012B19D070BD114DA1
:102388002B68002B02D1FFF791FFF7E7012BF5D15E
:10239800FFF786FEFFF70AFC2368002BEBD12B68BA
:1023A800012BEBD10A2001F0EBF8FFF73BFBF3E739
:1023B800044B1B68002BE1D1FFF7DAFEDEE7C046CD
:1023C800CC060020C8060020704703689A69920767
:1023D80001D500229A6201229969114202D19969B4
:1023E8000A439A617047000030B5039C0068234394
:1023F800120489051A43890D054B45680A43640D83
:10240800234352009D4352082A43426030BDC046D0
:10241800FF63FF03F7B5150002680E0091691023EA
:102428000F0004001F40002019420DD00700D3619F
:102438000190236820219A690A425FD1002F31D088
:1024480004270120019B1F43802225685200AB69A5
:10245800134202D00120EA6107438022D2001342CE
:1024680003D0082101200F43EA6180229200134221
:1024780049D00223EA611F432000FFF7A6FF6B68DB
:10248800224A012013406B60636C20223B43636443
:10249800230041331A702200002342324034137063
:1024A800237032E0721CC5D001F064F8401BB042C2
:1024B80001D8002EBDD12200236842325868117815
:1024C8009A69C9B212040BD58022D201104207D1F1
:1024D800202905D059680A435A6001F04BF80500D5
:1024E800202223689B691342A3D101F043F8401BC3
:1024F8001928F5D92023012701939AE7002F9FD1A6
:102508002022DA619CE70028B6D1FEBD00E800FE73
:10251800F8B504000D001600022723689B693B42AA
:1025280001D0002021E0320029002000FFF772FFCF
:10253800002819D16B1CF0D001F01CF8801BA842B0
:1025480001D8002DE9D12368996902230A001A40AD
:102558001942E2D12021636C0B43636423004034A9
:10256800413319705A7022700120F8BDF8B5040083
:102578000D0017001E0023689B692B405B1B5A4205
:102588005341BB4201D0002026E031002000069ACA
:10259800FFF740FF00281ED1731CECD000F0EAFFC3
:1025A800069BC01AB04201D8002EE4D123689B696B
:1025B8002B405B1B5A425341BB42DCD12022636C47
:1025C80013436364230041331A702200002342320C
:1025D8004034137023700120F8BDF8B504000E00D4
:1025E8001700202523689B692B4201D000201DE09D
:1025F8003A0031002000FFF70DFF002815D100F048
:10260800B9FFC01BB04201D8002EEBD123689B69EB
:102618001A002A402B42E5D1636C2B4363642300E4
:10262800403441331D705A7022700120F8BD0000FB
:1026380070B504000120002C4ED0250041352B78C0
:10264800DAB2002B05D12300403320001A70FEF7C0
:102658008DFF242301212B702368E0681A68A6687F
:102668008A431A601D4962680A401A619A681C49BF
:102678000A409A60012807D18022120232439A60E8
:102688005A681848024009E08422120232439A60CC
:102698000228F5D180225868120102435A6058680E
:1026A800114A02435A60DA6800200A40DA60616918
:1026B80022690A43A16909020A43DA60216AE269C8
:1026C8000A431A60012219680A431A6020236064C9
:1026D8002B7020634234207070BDC046FFFFFFF0AE
:1026E800FF7FFFFFFFF7FFFF00800002F0B5070044
:1026F80087B003930CAB029204CB41371B8804923A
:1027080005933B7804000E000220202B08D1002AF4
:1027180002D0059B002B05D180239B006364012018
:1027280007B0F0BD230040331A780220012AF7D001
:1027380001221A7000F01EFF802105000090192365
:10274800012220000902FFF711FF0028E7D1212309
:102758003B7027001F3342373B70049B6064636201
:10276800059B606363856B461A7B4B4B3100009376
:10277800802320005B04FFF737FE2A0020000E9913
:10278800FFF7C6FE002829D1039A2368012A16D12B
:102798006A46127A9A620022802120000E9B0095D8
:1027A800FFF7E4FE002819D1638DFF2B1AD8802388
:1027B800628D9B0492B22285D2B2009017E0029AF1
:1027C8002000120A9A620E992A00FFF7A1FE00283B
:1027D80004D16B4622681B7A9362DCE700234034FD
:1027E80023709CE7FF22802322855B040090310040
:1027F8002000FFF7F9FD2A0020000E99FFF788FE58
:10280800002800D08BE7636A226819780133916247
:102818006362638D228D013B9BB26385013A638DB0
:1028280092B22285002B16D0002A14D180212000D4
:102838000E9B0095FFF79AFE002800D06FE7638D86
:10284800FF2B21D9FF22802322855B0400903100D1
:102858002000FFF7C9FD638D002BCCD12A00200092
:102868000E99FFF7BAFE002800D058E72021236808
:102878000A4DD9615A682A405A60230040344133CE
:102888001970387020704BE78023628D9B0492B2D8
:102898002285D2B20090DAE70020008000E800FE2E
:1028A800F0B504004134227803000F000220D6B2AC
:1028B800202A18D11D0040352A78012A13D0242255
:1028C80022701B68233A19680748914319601968F0
:1028D80001400020196019683943196019680A43D2
:1028E8001A6026702870F0BDFFEFFFFF0200F0B5F8
:1028F800413214780300E5B20220202C17D11C00C5
:1029080040342678012E12D0223010701B682338EC
:102918001E68074F86431E601E6809023E40314309
:102928001960196808431860002015702070F0BD00
:10293800FFF0FFFFF0B5040085B0002802D10120A8
:1029480005B0F0BD0368DB0710D423689B075CD48F
:1029580023681B0700D5C1E023685B0700D5F2E0B8
:10296800E369002B00D079E10020E9E73822AF4D78
:10297800AB681340EA68102B09D1D3439B0708D1F1
:102988002B689B03E1D56368002BDED1D7E7082BC2
:10299800F6D0802263685202934211D12A68134309
:1029A8002B6000F0E7FD80270600BF022B683B4242
:1029B800CBD100F0DFFD801B6428F7D90320BFE7E7
:1029C800A021C9028B4208D180232968DB020B436E
:1029D8002B602B681A432A60E3E72A6894490A4067
:1029E8002A602A6893490A402A60002BD9D100F04E
:1029F800C1FD80270600BF022B683B42A5D000F02E
:102A0800B9FD801B6428F7D9D8E73822874DAB6811
:102A18001340EA68102B28D103210A40022A26D144
:102A28002A68520503D5E268002A00D187E7696859
:102A380062698148120201400A436A60002B0CD186
:102A48002B687E4A7E491340226913432B602B680A
:102A58007C4A9B045B0FDA400A607B4B186800F0E5
:102A680041FD002800D173E769E7002BD8D0E3685F
:102A7800002B20D02B68714A802713402269FF0061
:102A880013432B6080232A685B0013432B6000F0FC
:102A980071FD06002B683B4207D06A686369664986
:102AA8001B020A4013436B6052E700F063FD801B72
:102AB8000228EFD982E72B68644A802713402B60ED
:102AC80000F058FD0600FF002B683B4200D13FE7AD
:102AD80000F050FD801B0228F6D96FE73822534DCD
:102AE800AB681340182B08D12B6E9B0700D433E733
:102AF800A369002B00D02FE721E7A2690123002A50
:102B080010D02A6E022713432B6600F033FD06000F
:102B18002B6E3B4200D01FE700F02CFD801B0228E3
:102B2800F6D94BE72A6E02279A432A6600F022FD5F
:102B380006002B6E3B4200D10EE700F01BFD801B08
:102B48000228F6D93AE73822384DAB681340202BD3
:102B580008D1EB6D9B0700D402E7A368002B00D0D7
:102B6800FEE6ECE680220021EB6B52050091134251
:102B780008D1EB6B1343EB63EB6B13400393039B9D
:102B8800012300938027324E7F0033683B4215D0E3
:102B9800A368012B22D1EA6D1343EB6500F0EAFC30
:102BA80002270600EB6D3B4238D0009B012B00D07A
:102BB800D6E6EB6B274A1340EB63D1E633683B4319
:102BC800336000F0D7FC019033683B42E0D100F05D
:102BD800D1FC019BC01A0228F6D9EFE6EA6D052B55
:102BE80005D1013B1343EB65EA6D0123D4E70121CD
:102BF8008A43EA65EA6D03318A43EA65002BCDD141
:102C080000F0B8FC02270600EB6D3B42CDD000F087
:102C1800B1FC114B801B9842F6D9CFE600F0AAFC14
:102C28000D4B801B9842BDD9C8E6C0460010024033
:102C3800FFFFFEFFFFFFFBFFFF80FFFFFFC7FFFF58
:102C4800640000200024F4006C000020FFFEFFFF59
:102C580000700040FFFFFFEF8813000038213F4D50
:102C6800AA680A40102A51D03D4A022B38D12B6855
:102C7800802713402B6000F07DFC0600BF042B6802
:102C88003B4227D1616A236AEA680B4335498026AB
:102C98000A401343E26AB6041343226B1343A26A41
:102CA80012021343EB6080232A685B0413432B60F2
:102CB8008023EA685B051343EB6000F05BFC0400CB
:102CC8002B68334200D04FE600F054FC001B02286A
:102CD800F6D973E600F04EFC801B0228CFD96DE6CA
:102CE8002B68802613402B6000F044FC0400B604D7
:102CF8002B68334204D1EB681B4A1340EB6033E680
:102D080000F038FC001B0228F2D957E6012B00D14D
:102D180015E60322E868216A02408A4200D00EE6DE
:102D28007022616A02408A4200D008E6FE21A26A47
:102D3800C90101401202914200D000E6F822E16A7E
:102D4800920302408A4200D0F9E5236B400F400706
:102D5800C01A431E9841C0B2F2E5C04600100240B6
:102D6800FFFFFFFE8C80C11FFCFFFEEF382370B50C
:102D78001D4CA2681A4205D123681C489B045B0FAE
:102D8800D84070BDA2681A40082A27D0A2681A4005
:102D9800102A17D1E368E168DB43E5684906490F63
:102DA8006F322D0A013115409B0709D11048FDF7F4
:102DB800D5F9E1686843490F0131FDF7CFF9E0E73C
:102DC8000A48F4E7A2681A40202A09D0A26800201D
:102DD8001340182BD5D1FA20C001D2E70448D0E718
:102DE80080200002CDE7C046001002400024F40015
:102DF80000127A00F7B504000D00002801D1012067
:102E0800FEBD0727484E33683B408B422AD32268D1
:102E180093073BD4D20748D4072733683B40AB42DB
:102E28000AD93368BB432B43336000F0A3FB0190FE
:102E380033683B40AB4268D123683C4D5B076CD498
:102E4800FFF794FFAB683A491B051B0F9B005B58C3
:102E58001F210B40D840374A374B1060186800F0E4
:102E680041FBCDE73368BB430B43336000F082FB83
:102E7800019033683B40AB42C9D000F07BFB019B1B
:102E8800C01A2E4B9842F4D90320B9E727495307B3
:102E980004D5E0238868DB0103438B608B682848EE
:102EA8000340A06803438B60B4E760681F4F0328A2
:102EB80029D8FDF749F920021C243B689B039ED5BD
:102EC8000722BB6893430343BB6000F053FB0190A8
:102ED8003823BA681A406368DB009A429CD000F035
:102EE80049FB019BC01A154B9842F1D9CCE73B68C6
:102EF8009B01E5D483E73B685B05E1D47FE73B6E44
:102F08009B07DDD47BE7FB6DFAE700F033FB019B01
:102F1800C01A0A4B98428BD9B6E7AB68094A1340E6
:102F2800E2681343AB608BE70020024000100240C8
:102F3800CC7E0008640000206C000020881300008C
:102F4800FFF0FFFFFF8FFFFFF0B50368050085B0B6
:102F580000209B0351D58022484C5205E36B00901A
:102F6800134208D1E36B1343E363E36B134003930A
:102F7800039B012300938027414E7F0033683B4326
:102F8800336000F0F7FA019033683B4227D0E26DD6
:102F9800C02310009B0069693A4E18401A4217D0A6
:102FA800884215D08022E36DE06D19005202024379
:102FB800E265E26D344831400240E265E165DB07D5
:102FC80006D500F0D7FA07000222E36D13424DD070
:102FD800E36D6A69334013430020E36506E000F0BF
:102FE800C9FA019BC01A0228CED90320009B012BE5
:102FF80003D1E36B254A1340E3632A68D30706D558
:1030080003241E494B6DA3436C6823434B65930609
:1030180006D51A491E4C4B6D2340AC6823434B65BB
:1030280053040FD515492C694B6D9B009B0823430E
:103038004B658023DB059C4204D18023CC685B026E
:103048002343CB6012050FD50C4A124C536DE96827
:1030580023400B4353658023DB01994204D180232D
:10306800D1685B020B43D36005B0F0BD00F082FA73
:10307800094BC01B9842A7D9B7E7C04600100240C9
:1030880000700040FFFCFFFFFFFFFEFFFFFFFFEFA8
:10309800FFCFFFFFFF3FFFFF881300000020054B15
:1030A8005A69824205DA044A9A60044A9A60586961
:1030B800C00F70470020024023016745AB89EFCD60
:1030C800F8B5040000F056FA802706007F02144D78
:1030D8002B693B4216D12A69124B1100124819403C
:1030E80028611A4217D18027FF022B69180038403F
:1030F8003B420FD0631CF8D000F03CFA801BA04282
:10310800F3D306E0631CE3D000F034FA801BA0423E
:10311800DDD30320F8BD054B01205960FAE7C0460E
:1031280000200240FA830000FB83000058070020BB
:10313800F7B5174E0193337804000D000220009272
:10314800012B1ED00123FA20337000238000736006
:10315800FFF7B6FF002812D10E4F012C12D17B6960
:1031680023437B61009B2B60BFF36F8F019B6B60D8
:10317800FA208000FFF7A4FF7B69A3437B6100234B
:103188003370FEBD2800009900F066FBF0E7C046EA
:103198005807002000200240FA2010B58000FFF7F1
:1031A8008FFF8022044B120659690A435A615869F5
:1031B800C043C00F10BDC04600200240044A054865
:1031C8005369C90003401943034B0B4353617047CC
:1031D8000020024007E0FFFF02000100F7B5214F81
:1031E80005003B7802240191012B1AD00123FA2013
:1031F8003B70002380007B60FFF762FF041E0ED146
:1032080004236B602B68042B0DD1FA20164A174B48
:10321800516980000B435361FFF752FF04000023FC
:103228003B702000FEBD0123019A5B421360AE682B
:10323800AB68EA689B18B3420CD968683100FFF79D
:10324800BDFFFA208000FFF73BFF002808D00400EC
:10325800019B1E600221044A53698B435361DEE7D8
:103268000136E5E75807002000200240040001006D
:103278000023F0B585B00A681400DC4001D105B020
:10328800F0BD012514009D402C4000942A4200D135
:1032980091E04A685F009446032264462240032472
:1032A800BC40E4430194541E012C2ED88668019C2E
:1032B8002640CC68BC403443846044680126AC4353
:1032C80025006446240934409C402C434460C5686A
:1032D800019C25408C68BC402C43C460022A16D14E
:1032E80007250F261D40AD00AE40DC08A4000419D8
:1032F8000294246A03962600039CA64334000E69B0
:10330800AE402643029C266201E0032ADFD1BA4080
:103318000468019D25402A43C02402606246A40235
:10332800224248D0254A03259C08A400A4180F224D
:103338001D40ED00AA40A027266EFF0596430022F7
:10334800B8420CD01E4F0132B84208D01D4F01328E
:10335800B84204D01C4F0332B84200D1023AAA4006
:10336800674632432266154C009A2668009DD24370
:103378003543FF0201D4350015406746256066686D
:10338800009D3543BF0201D435001540674665608E
:103398000E4C009DE66F3543BF0301D43500154040
:1033A8006746E5670A4C009EE56F2E43FF0301D48C
:1033B80015402E00E66701335DE7C046001802405D
:1033C8000004005000080050000C0050081802408B
:1033D8000418024000690840431E9841C0B2704773
:1033E800002A01D0816170478162FCE710B5114C59
:1033F8001149236802000B40034323608023002007
:103408009B009A420ED10D4B0D491868062358436C
:10341800FCF7A4FE8022431CD2006169080010401A
:10342800114200D110BD002B01D0013BF5E703206C
:10343800F8E7C04600700040FFF9FFFF6400002075
:1034480040420F0010B5FF2403220B002100024068
:10345800D20091409B012340C943934000280ADBD6
:10346800C0240B4A800880008018A40002590A4032
:103478001343035110BD0F2210400838054A800835
:1034880080008018C26911401943C161F2E7C04643
:1034980000E100E000ED00E0002805DB1F231840F4
:1034A8001E3B8340014A13607047C04600E100E0BC
:1034B8008022431E5204012093420DD2C021074AA4
:1034C80007485360036A09061B021B0A0B43036281
:1034D80000200723906013607047C04610E000E0AA
:1034E80000ED00E070B5104B05001978002901D1F6
:1034F800012070BDFA208000FCF730FE0B4C010063
:103508002068FCF72BFEFFF7D3FF041EF0D1032D34
:10351800EED80200012029004042FFF793FF044B38
:1035280020001D60E5E7C046680000206400002018
:103538006C0000208023084A5B00116810B50B431B
:1035480003201360FFF7CEFF041E03D1FDF7F6FF3B
:10355800200010BD0124FBE700200240034A044B71
:1035680011681B785B1813607047C0467407002009
:1035780068000020014B18687047C0467407002097
:1035880070B50400FFF7F6FF0500631C02D0044B7A
:103598001B78E418FFF7EEFF401BA042FAD370BD7A
:1035A8006800002001000300012010B53D310C78AF
:1035B800E2B2844218D1001808701B68D968114318
:1035C800D9600B498B4202D00A498B420DD19A68C7
:1035D80009490A40062A06D007398A4203D001223F
:1035E80019680A431A60002010BD1968F9E7C04637
:1035F800002C01400004004007000100704770479C
:10360800704770470222036870B5DD681E690400C0
:1036180016420DD015420BD0053A1A6104320277D2
:103628009B699B0700D17CE0FFF7E9FF0023237724
:1036380004231E4212D01D4210D005222368524294
:103648001A61073222779A69C0239B0020001A4228
:1036580000D16CE0FFF7D3FF0023237708231E4235
:103668000FD01D420DD00922236852421A610D3233
:103678002277DB6920009B075FD0FFF7C0FF00239C
:10368800237710231E4211D01D420FD01122236828
:1036980052421A6119322277DA69C0239B0020004E
:1036A8001A4250D0FFF7ABFF0023237701231E42B5
:1036B80008D01D4206D002222368524220001A6117
:1036C800FDF7A8FD82239B011E4207D02B0605D5D6
:1036D8002368204A20001A6100F0AFF8F30507D5E7
:1036E8002B0605D523681C4A20001A6100F0A6F8AD
:1036F80040231E4208D01D4206D041222368524270
:1037080020001A61FFF77DFF20231E4208D01D42CA
:1037180006D021222368524220001A6100F08CF85A
:1037280070BDFFF76BFF2000FFF76AFF7EE7FFF72A
:1037380065FF2000FFF764FF8EE7FFF75FFF2000BB
:10374800FFF75EFF9BE7FFF759FF2000FFF758FFE1
:10375800AAE7C0467FDFFFFFFFFEFFFF10B51B4C47
:103768000368A0420AD01A4A904207D0194A9042E8
:1037780009D1194A1A40CB6813430AE070229343CF
:103788004A681343F5E7154A9042F2D0144A90422A
:10379800EFD0802293434A6913438A68C2620A6859
:1037A8008262A04205D00D4A904202D00C4A904253
:1037B80001D10A690263042201680A4302600122F6
:1037C8004261BFF34F8F036010BDC046002C01401B
:1037D8000004004000200040FFFCFFFF00440140BF
:1037E8000048014070B504000120002C23D02500BA
:1037F8003D352B78DAB2002B05D123003C3320006D
:103808001A70FDF709FF02232B702068211DFFF7AE
:10381800A5FF2200012300204832137047340A3ADA
:10382800137053709370D370137153719371D37174
:10383800137223702B7070BD70477047704700007B
:10384800F8B5C046F8BC08BC9E467047F8B5C046F7
:10385800F8BC08BC9E46704701B40248844601BCC7
:08386800604700BF7100002061
:103870003A100008400F0008400F0008400F0008F1
:10388000400F0008400F0008400F0008400F0008DC
:10389000400F0008400F0008400F00089C0F000870
:1038A000540F0008400F0008400F0008400F0008A8
:1038B000400F0008540F0008400F0008400F000898
:1038C000400F0008400F0008B60E00087C0F0008EB
:1038D000CE0F0008400F0008400F0008B00F00088E
:1038E000400F00087C0F0008400F0008400F000840
:1038F000481000080B0C000060390008003900086F
:10390000040305090809080505050606040503065C
:103910000706070707070707070704040506050644
:103920000A0807070807070809060807070A090918
:10393000060A07080808080B08070805070507070F
:103940000706070607060606070405060409060615
:10395000060606060606060807060605050507000C
:103960000000000000000000000000000000000057
:1039700000000000000000000000002000200020E7
:1039800000200020002000000020000000000000B7
:1039900000000028002800280000000000000000AF
:1039A0000000000000000000000000090009807F06
:1039B00000120012807F002400240000000000009C
:1039C0000008001E002800280028001C000A000A29
:1039D000003C0008000800000000003A002E003CF7
:1039E00000040008000F0015001700000000000090
:1039F0000000000C001400180038006A0046004463
:103A0000003A00000000000000000020002000201C
:103A100000000000000000000000000000000000A6
:103A200000000008001000200020002000200020DE
:103A300000200010000800000000004000200010DE
:103A400000100010001000100010002000400000C6
:103A500000000010007C003800680000000000003A
:103A60000000000000000000000000000000001046
:103A70000010007C0010001000000000000000009A
:103A80000000000000000000000000000000000036
:103A900000200040000000000000000000000000C6
:103AA00000000000007000000000000000000000A6
:103AB0000000000000000000000000000000000006
:103AC00000200000000000000008000800100010A6
:103AD0000020002000400040000000000000000026
:103AE00000000018002400240024002400240024E6
:103AF000001800000000000000000010003000105E
:103B0000001000100010001000380000000000003D
:103B10000000001800240004000400180020002009
:103B2000003C0000000000000000003800440004D9
:103B300000180004000400440038000000000000E9
:103B400000000004000C001400140024007E000497
:103B50000004000000000000003C002000380024A9
:103B600000040004002400380000000000000000F1
:103B70000000000800100010003800240024002479
:103B80000018000000000000007E0004000800088B
:103B900000100010001000200000000000000000D5
:103BA0000018002400240018002400240024001819
:103BB00000000000000000000000001800240024A5
:103BC0000024001C00080008001000000000000095
:103BD00000000000000000000020000000000020A5
:103BE00000000000000000000000000000000000D5
:103BF0000020000000000000002000400000000045
:103C00000000000000000000001000200060001014
:103C100000000000000000000000000000000000A4
:103C20000038000000000038000000000000000024
:103C300000000000000000400020001000200040B4
:103C400000000000000000000000007000080008F4
:103C50000010001000200000002000000000000004
:103C60000000001E0021804C8054005F00400021B5
:103C7000001E000000000000000000080008001402
:103C80000014003C0024004200420000000000003C
:103C900000000078004400440044007800440044E0
:103CA00000780000000000000000001C002400203C
:103CB00000400040004000440038000000000000C8
:103CC00000000060005800440042004200420044EE
:103CD00000780000000000000000007C0040004070
:103CE000007C004000400040007C0000000000001C
:103CF0000000003E00200020003C002000200020AA
:103D000000200000000000000000000C0012002055
:103D10000040005E00420044003800000000000047
:103D200000000021002100210021003F002100218E
:103D3000002100000000000000000038001000100A
:103D400000100010001000100038000000000000FB
:103D50000000001F000400040004000400240024EC
:103D6000001C00000000000000000044004800505B
:103D700000600060005000480044000000000000A7
:103D80000000002000200020002000200020002053
:103D9000003C0000000000000000001200120012B1
:103DA000002B002D002D80648044000000000000E6
:103DB0000000008200C200A200A20092008A0086D9
:103DC00000820000000000000000001E00210041F1
:103DD0000041004100410042003C000000000000A2
:103DE000000000700048004800480070004000409B
:103DF00000400000000000000000001E0021804084
:103E00008040804080448023001F0001800000002B
:103E1000007000480044004400480070004800441E
:103E200000000000000000000000001E0020002034
:103E3000001C000200020042003C000000000000E4
:103E4000007F0008000800080008000800080008BB
:103E500000000000000000000000002200220022FC
:103E60000022002200220022001C000000000000AE
:103E7000000000220022002200140014001400148C
:103E80000008000000000000000020444044402AD8
:103E9000402A802A802A80120011000000000000C1
:103EA0000000004100220014000800080014002255
:103EB0000041000000000000000000420024002437
:103EC000001400180008001000100000000000009E
:103ED0000000007E000400080010001000200040D8
:103EE000007E0000000000000038002000200020BC
:103EF00000200020002000200020003800000000EA
:103F000000000000004000200020002000100010F1
:103F100000080008000000000070001000100010F1
:103F200000100010001000100010007000000000D1
:103F300000000030003000480000000000000000D9
:103F40000000000000000000000000000000000071
:103F5000000000000000000000000000007E0000E3
:103F600000000040002000000000000000000000F1
:103F70000000000000000000000000000000000041
:103F800000380048004800480034000000000000ED
:103F9000000000800080008000E000900090009011
:103FA00000E0000000000000000000000000000031
:103FB00000380048004000480030000000000000C9
:103FC00000000008000800080038004800480048C9
:103FD00000380000000000000000000000000000A9
:103FE0000030004800700048003000000000000071
:103FF0000000001800200020007000200020002099
:104000000020000000000000000000000000000090
:1040100000380048004800480038000800080070D8
:10402000000000800080008000A000D00090009080
:1040300000900000000000000000000000200000D0
:1040400000200020002000200020000000000000D0
:1040500000000000002000000020002000200020C0
:104060000020002000A00060000000400040004050
:1040700000480050007000500048000000000000A0
:104080000000002000200020002000200020002050
:104090000020000000000000000000000000000000
:1040A00000B600DA009200920092000000000000CA
:1040B000000000000000000000A000D00090009070
:1040C0000090000000000000000000000000000060
:1040D0000060009000900090006000000000000070
:1040E0000000000000000000007000480048004888
:1040F0000070004000400040000000000000003858
:104100000048004800480038000800080008000087
:1041100000000000000000000038002800200020FF
:10412000002000000000000000000000000000006F
:10413000003800400030000800700000000000005F
:10414000000000000020002000700020002000205F
:10415000002000000000000000000000000000003F
:1041600000480048004800480038000000000000F7
:104170000000000000000000004800480048003037
:1041800000300000000000000000000000000000FF
:1041900000490049005A005A0024000000000000B5
:1041A000000000000000000000440028001000286B
:1041B00000440000000000000000000000000000BB
:1041C00000440028002800100010001000200020EB
:1041D0000000000000000000007800100010002027
:1041E00000780000000000000000003000200020E7
:1041F00000200020006000200020002000100000AF
:1042000000000020002000200020002000200020CE
:10421000002000200020000000000060002000209E
:10422000002000200030002000200020004000007E
:1042300000000000000000000024005400480000BE
:10424000000000000000000000000000000000006E
:10425000000000000000000000000000000000005E
:10426000000000000000000000000000000000004E
:10427000000000000000000000000000000000003E
:10428000000000000000000000000000000000002E
:10429000000000000000000000000000000000001E
:1042A000000000000000000000000000000000000E
:1042B00000000000000000000000000000000000FE
:1042C00000000000000000000000000000000000EE
:1042D00000000000000000000000000000000000DE
:1042E00000000000000000000000000000000000CE
:1042F00000000000000000000000000000000000BE
:1043000000000000000000000000000000000000AD
:10431000000000000000000000000000000000009D
:10432000000000000000000000000000000000008D
:10433000000000000000000000000000000000007D
:10434000000000000000000000000000000000006D
:104350000000000000000000000000000000000657
:104360000000000000000000000000000000000944
:10437000000000000000000000000000000000102D
:10438000800000000000000000000000000000109D
:1043900040000000000000000000000000000020BD
:1043A0003C000000000000000000000000000024AD
:1043B00003C00000000000000000000000000044F6
:1043C0000030000000000000000000000000008637
:1043D0000008300000000000007000000000F30240
:1043E0000004C80000000000000F800000010C0362
:1043F000000304000000000000007C000002080030
:104400000060040000000000000003E0000204005F
:1044100003C00400000000000000001E0002043081
:10442000000004000000000000000001F002023063
:104430000000080000000000000000001F820200D1
:1044400000000800000000000000000001F102046C
:10445000018008000000000000000000000F0007BD
:104460009180100000000000000000000000E0004B
:1044700060001000000000000000000000001F802D
:104480000000080000000000000000000000007CA8
:104490000000080000000000000000000000000311
:1044A000C000040000000000000000000000000048
:1044B00038000400000000000000000000000000C0
:1044C00004000400000000000000000000000000E4
:1044D00008000200000000000000000000000000D2
:1044E0000803F200000000000000000000000000CF
:1044F000080C0F8000000000000000000000000019
:10450000083001F80000000000000000000000007A
:1045100007C0000F80000000000000000000000045
:10452000000000007C00000000000000000000000F
:104530000000000003E00000000000000000000098
:1045400000000000001F000000000000000000004C
:10455000000000000000F800000000000000000063
:104560000000000000000700000000000000000044
:10457000000000000000000000000000000000003B
:10458000000000000000000000000000000000002B
:10459000000000000000000000000000000000001B
:1045A000000000000000000000000000000000000B
:1045B00000000000000000000000000000000000FB
:1045C00000000000000000000000000000000000EB
:1045D00000000000000000000000000000000000DB
:1045E00000000000000000000000000000000000CB
:1045F00000000000000000000000000000000000BB
:1046000000000000000000000000000000000000AA
:10461000000000000000000000000000000000009A
:10462000000000000000000000000000000000008A
:10463000000000000000000000000000000000007A
:10464000000000000000000000000000000000006A
:10465000000000000000000000000000000000005A
:10466000000000000000000000000000000000004A
:10467000000000000000000000000000000000003A
:10468000000000000000000000000000000000002A
:10469000000000000000000000000000000000001A
:1046A000000000000000000000000000000000000A
:1046B00000000000000000000000000000000000FA
:1046C00000000000000000000000000000000000EA
:1046D00000000000000000000000000000000000DA
:1046E00000000000000000000000000000000000CA
:1046F00000000000000000000000000000000000BA
:1047000000000000000000000000000000000000A9
:104710000000000000000000000000000000000099
:104720000000000000000000000000000000000089
:104730000000000000000000000000000000000079
:104740000000000000000000000000000000000069
:104750000000000000000000000000000000000653
:104760000000000000000000000000000000000940
:104770000000000000000000000000000000001029
:104780008000000000000000000000000000001099
:1047900040000000000000000000000000000020B9
:1047A0003C000000000000000000000000000024A9
:1047B00003C00000000000000000000000000044F2
:1047C0000030000000000000000000000000008633
:1047D000000830000000000000700000000003022C
:1047E0000004C80000000000000F80000000040367
:1047F000000304000000000000007C00000008002E
:104800000060040000000000000003E00000100051
:1048100003C00400000000000000001E0000203063
:10482000000004000000000000000001F000403023
:104830000000080000000000000000001F80800051
:1048400000000800000000000000000001F100046A
:10485000019C08000000000000000000000F00079D
:1048600091A2100000000000000000000002000003
:104870006021100000000000000000000002018024
:104880000041080000000000000000000002067C5B
:104890000040880000000000000000000001F80354
:1048A000C040840000000000000000000000000084
:1048B000384004000000000000000000000000007C
:1048C00007E00400000000000000000000000000FD
:1048D000003C02000000000000000000000000009A
:1048E0000003F200000000000000000000000000D3
:1048F00000000F8000000000000000000000000029
:10490000000001F8000000000000000000000000AE
:104910000000000F80000000000000000000000008
:10492000000000007C00000000000000000000000B
:104930000000000003E00000000000000000000094
:1049400000000000001F0000000000000000000048
:10495000000000000000F80000000000000000005F
:104960000000000000000700000000000000000040
:104970000000000000000000000000000000000037
:104980000000000000000000000000000000000027
:104990000000000000000000000000000000000017
:1049A0000000000000000000000000000000000007
:1049B00000000000000000000000000000000000F7
:1049C00000000000000000000000000000000000E7
:1049D00000000000000000000000000000000000D7
:1049E00000000000000000000000000000000000C7
:1049F00000000000000000000000000000000000B7
:104A000000000000000000000000000000000000A6
:104A10000000000000000000000000000000000096
:104A20000000000000000000000000000000000086
:104A30000000000000000000000000000000000076
:104A40000000000000000000000000000000000066
:104A50000000000000000000000000000000000056
:104A60000000000000000000000000000000000046
:104A70000000000000000000000000000000000036
:104A80000000000000000000000000000000000026
:104A90000000000000000000000000000000000016
:104AA0000000000000000000000000000000000006
:104AB00000000000000000000000000000000000F6
:104AC00000000000000000000000000000000000E6
:104AD00000000000000000000000000000000000D6
:104AE00000000000000000000000000000000000C6
:104AF00000000000000000000000000000000000B6
:104B000000000000000000000000000000000000A5
:104B10000000000000000000000000000000000095
:104B20000000000000000000000000000000000085
:104B30000000000000000000000000000000000075
:104B40000000000000000000000000000000000065
:104B5000000000000000000000000000000000064F
:104B6000000000000000000000000000000000093C
:104B70000000000000000000000000000000001025
:104B80008000000000000000000000000000001095
:104B900040000000000000000000000000000020B5
:104BA0003C000000000000000000000000000024A5
:104BB00003C00000000000000000000000000044EE
:104BC000003000000000000000000000000000862F
:104BD0000008300000000000007000000000F30238
:104BE0000004C80000000000000F800000010C035A
:104BF000000304000000000000007C000002080028
:104C00000060040000000000000003E00002040057
:104C100003C00400000000000000001E0002043079
:104C2000000004000000000000000001F00202305B
:104C30000000080000000000000000001F820200C9
:104C400000000800000000000000000001F1020464
:104C5000019C08000000000000000000000F000799
:104C600091A2100000000000000000000000E00021
:104C700060211000000000000000000000001F8004
:104C80000041080000000000000000000000007C5F
:104C90000040880000000000000000000000000349
:104CA000C040840000000000000000000000000080
:104CB0003840040000000000000000000000000078
:104CC00007E00400000000000000000000000000F9
:104CD000003C020000000000000000000000000096
:104CE0000003F200000000000000000000000000CF
:104CF00000000F8000000000000000000000000025
:104D0000000001F8000000000000000000000000AA
:104D10000000000F80000000000000000000000004
:104D2000000000007C000000000000000000000007
:104D30000000000003E00000000000000000000090
:104D400000000000001F0000000000000000000044
:104D5000000000000000F80000000000000000005B
:104D6000000000000000070000000000000000003C
:104D70000000000000000000000000000000000033
:104D80000000000000000000000000000000000023
:104D90000000000000000000000000000000000013
:104DA0000000000000000000000000000000000003
:104DB00000000000000000000000000000000000F3
:104DC00000000000000000000000000000000000E3
:104DD00000000000000000000000000000000000D3
:104DE00000000000000000000000000000000000C3
:104DF00000000000000000000000000000000000B3
:104E000000000000000000000000000000000000A2
:104E10000000000000000000000000000000000092
:104E20000000000000000000000000000000000082
:104E30000000000000000000000000000000000072
:104E40000000000000000000000000000000000062
:104E50000000000000000000000000000000000052
:104E60000000000000000000000000000000000042
:104E70000000000000000000000000000000000032
:104E80000000000000000000000000000000000022
:104E90000000000000000000000000000000000012
:104EA0000000000000000000000000000000000002
:104EB00000000000000000000000000000000000F2
:104EC00000000000000000000000000000000000E2
:104ED00000000000000000000000000000000000D2
:104EE00000000000000000000000000000000000C2
:104EF00000000000000000000000000000000000B2
:104F000000000000000000000000000000000000A1
:104F10000000000000000000000000000000000091
:104F20000000000000000000000000000000000081
:104F30000000000000000000000000000000000071
:104F40000000000000000000000000000000000061
:104F5000000000000000000000000000000000064B
:104F60000000000000000000000000000000000938
:104F70000000000000000000000000000000001021
:104F80008000000000000000000000000000001091
:104F900040000000000000000000000000000020B1
:104FA0003C000000000000000000000000000024A1
:104FB00003C00000000000000000000000000044EA
:104FC000003000000000000000000000000000862B
:104FD0000008300000000000007000000000030224
:104FE0000004C80000000000000F8000000004035F
:104FF000000304000000000000007C000000080026
:105000000060040000000000000003E00000100049
:1050100003C00400000000000000001E000020305B
:10502000000004000000000000000001F00040301B
:105030000000080000000000000000001F80800049
:1050400000000800000000000000000001F1000462
:10505000018008000000000000000000000D0007B3
:10506000918010000000000000000000000200001D
:10507000600010000000000000000000000201803D
:105080000000080000000000000000000002067C94
:105090000000080000000000000000000001F8030C
:1050A000C00004000000000000000000000000003C
:1050B00038000400000000000000000000000000B4
:1050C00004000400000000000000000000000000D8
:1050D00008000200000000000000000000000000C6
:1050E0000803F200000000000000000000000000C3
:1050F000080C0F800000000000000000000000000D
:10510000083001F80000000000000000000000006E
:1051100007C0000F80000000000000000000000039
:10512000000000007C000000000000000000000003
:105130000000000003E0000000000000000000008C
:1051400000000000001F0000000000000000000040
:10515000000000000000F800000000000000000057
:105160000000000000000700000000000000000038
:10517000000000000000000000000000000000002F
:10518000000000000000000000000000000000001F
:10519000000000000000000000000000000000000F
:1051A00000000000000000000000000000000000FF
:105510000001FC000000000000000000000000008E
:105520000003FC000000000000000000000000007C
:105530000003FC000000000000000000000000006C
:105540000000FC000000000000000000000000005F
:105550001E0000000000000000000000000000002D
:105560003E1C0000000000000000000000000000E1
:105570007E1E00000000000000000000000000008F
:10558000FE1F0000000000000000000000000001FD
:10559000FE0F80000000000000000000000000017D
:1055A000FE0FC0000000000000000000000000002E
:1055B0007E0FC0000000000000000000000000009E
:1055C0001E07800000000000000000000000000036
:1055D00006060000000000000000000000000000BF
:1055E00000000000000000000000000000000000BB
:1055F00000000000000000000000000000000000AB
:10560000000000000000000000000000000000009A
:10561000000000000000000000000000000000008A
:10562000000000000000000000000000000000007A
:10563000000000000000000000000000000000006A
:10564000000000000000000000000000000000005A
:10565000000000000000000000000000000000004A
:10566000000000000000000000000000000000003A
:10567000000000000000000000000000000000002A
:10568000000000000000000000000000000000001A
:10569000000000000000000000000000000000000A
:1056A00000000000000000000000000000000000FA
:1056B00000000000000000000000000000000000EA
:1056C00000000000000000000000000000000000DA
:1056D00000000000000000000000000000000000CA
:1056E00000000000000000000000000000000000BA
:1056F00000000000000000000000000000000000AA
:105700000000000000000000000000000000000099
:105710000000000000000000000000000000000089
:105720000000000000000000000000000000000079
:105730000000000000000000000000000000000069
:105740000000000000000000000000000000000059
:105750000000000000000000000000000000000049
:105760000000000000000000000000000000000039
:105770000000000000000000000000000000000029
:105780000000000000000000000000000007800092
:105790000000000000000000000000000007800082
:1057A0000000000000000000000000000007800072
:1057B0000000000000000000000000000007800062
:1057C000000000000000000000000000030780004F
:1057D00000000000000000000000000007878000BB
:1057E00000000000000000000000000007C380006F
:1057F0000000000000000000000000000FE30000B7
:105800000000000000000000000000000FF0000099
:1058100000000000000000000000000003F0000095
:105820000000000000000000000000000070000008
:105830000000000000000000000000000000000068
:105840000000000000000000000000000000000058
:105850000000000000000000000000000000000048
:105860000000000000000000000000000000000038
:105870000000000000000000000000000FF8000021
:105880000000000000000000000000000FF8000011
:1058900000000000000000000000000007F8000009
:1058A00000000000000000000000000007F80000F9
:1058B00000000000000000000000000003F00000F5
:1058C00000000000000000000000000003E00000F5
:1058D00000000000000000000000000001C0000007
:1058E0000000000000000000000000000180000037
:1058F00000000000000000000000000000000000A8
:105900000000000000000000000000000000000097
:105910000000000000000000000000000000000087
:105920000000000000000000000000000000000077
:105B5000000000000000000000000000000000063F
:105B6000000000000000000000000000000000092C
:105B70000000000000000000000000000000001015
:105B80008000000000000000000000000000001085
:105B900040000000000000000000000000000020A5
:105BA0003C00000000000000000000000000002099
:105BB00003C00000000000000000000000000040E2
:105BC0000030000000000000000000000000008025
:105BD0000008300000000000007000000000F3002A
:105BE0000004C80000000000000F800000010C004D
:105BF000000304000000000000007C000002080018
:105C00000000040000000000000003E000020400A7
:105C100000000400000000000000001E000204302C
:105C2000000004000000000000000001F00202304B
:105C30000000080000000000000000001F820200B9
:105C400000000800000000000000000001F1020454
:105C5000018008000000000000000000000F0007A5
:105C60009180100000000000000000000000E00033
:105C700060001000000000000000000000001F8015
:105C80000000080000000000000000000000007C90
:105C900000000800000000000000000000000003F9
:105CA000C000040000000000000000000000000030
:105CB00038000400000000000000000000000000A8
:105CC00004000400000000000000000000000000CC
:105CD00008000200000000000000000000000000BA
:105CE0000803F200000000000000000000000000B7
:105CF000080C0F8000000000000000000000000001
:105D0000083001F800000000000000000000000062
:105D100007C0000F8000000000000000000000002D
:105D2000000000007C0000000000000000000000F7
:105D30000000000003E00000000000000000000080
:105D400000000000001F0000000000000000000034
:105D5000000000000000F80000000000000000004B
:105D6000000000000000070000000000000000002C
:105D70000000000000000000000000000000000023
:105D80000000000000000000000000000000000013
:105D90000000000000000000000000000000000003
:105DA00000000000000000000000000000000000F3
:105DB00000000000000000000000000000000000E3
:105DC00000000000000000000000000000000000D3
:105DD00000000000000000000000000000000000C3
:105DE00000000000000000000000000000000000B3
:105DF00000000000000000000000000000000000A3
:105E00000000000000000000000000000000000092
:105E10000000000000000000000000000000000082
:105E20000000000000000000000000000000000072
:105E30000000000000000000000000000000000062
:105E40000000000000000000000000000000000052
:105E50000000000000000000000000000000000042
:105E60000000000000000000000000000000000032
:105E70000000000000000000000000000000000022
:105E80000000000000000000000000000000000012
:105E90000000000000000000000000000000000002
:105EA00000000000000000000000000000000000F2
:105EB00000000000000000000000000000000000E2
:105EC00000000000000000000000000000000000D2
:105ED00000000000000000000000000000000000C2
:105EE00000000000000000000000000000000000B2
:105EF00000000000000000000000000000000000A2
:105F00000000000000000000000000000000000091
:105F10000000000000000000000000000000000081
:105F20000000000000000000000000000000000071
:105F30000000000000000000000000000000000061
:105F40000000000000000000000000000000000051
:105F5000000000000000000000000000000000063B
:105F60000000000000000000000000000000000928
:105F70000000000000000000000000000000001011
:105F80008000000000000000000000000000001081
:105F900040000000000000000000000000000020A1
:105FA0003C00000000000000000000000000002095
:105FB00003C00000000000000000000000000040DE
:105FC0000030000000000000000000000000008021
:105FD0000008300000000000007000000000030016
:105FE0000004C80000000000000F80000000040052
:105FF000000304000000000000007C000000080016
:106000000000040000000000000003E00000100099
:1060100000000400000000000000001E000020300E
:10602000000004000000000000000001F00040300B
:106030000000080000000000000000001F80800039
:1060400000000800000000000000000001F1000452
